{
  "_format": "hh-sol-artifact-1",
  "contractName": "Storage",
  "sourceName": "contracts/Storage.sol",
  "abi": [
    {
      "inputs": [
        {
          "internalType": "uint256",
          "name": "tokenId",
          "type": "uint256"
        },
        {
          "internalType": "uint256",
          "name": "auctionId",
          "type": "uint256"
        },
        {
          "internalType": "uint256",
          "name": "bid",
          "type": "uint256"
        }
      ],
      "name": "addBid",
      "outputs": [],
      "stateMutability": "nonpayable",
      "type": "function"
    },
    {
      "inputs": [
        {
          "internalType": "uint256",
          "name": "tokenId",
          "type": "uint256"
        },
        {
          "internalType": "uint256",
          "name": "auctionId",
          "type": "uint256"
        },
        {
          "internalType": "address",
          "name": "bidder",
          "type": "address"
        }
      ],
      "name": "addBidder",
      "outputs": [],
      "stateMutability": "nonpayable",
      "type": "function"
    },
    {
      "inputs": [
        {
          "internalType": "uint256",
          "name": "tokenId",
          "type": "uint256"
        },
        {
          "internalType": "contract Token",
          "name": "token",
          "type": "address"
        }
      ],
      "name": "addToken",
      "outputs": [],
      "stateMutability": "nonpayable",
      "type": "function"
    },
    {
      "inputs": [],
      "name": "echo",
      "outputs": [
        {
          "internalType": "bool",
          "name": "",
          "type": "bool"
        }
      ],
      "stateMutability": "view",
      "type": "function"
    },
    {
      "inputs": [],
      "name": "getAdmin",
      "outputs": [
        {
          "internalType": "address",
          "name": "",
          "type": "address"
        }
      ],
      "stateMutability": "view",
      "type": "function"
    },
    {
      "inputs": [
        {
          "internalType": "uint256",
          "name": "tokenId",
          "type": "uint256"
        },
        {
          "internalType": "uint256",
          "name": "auctionId",
          "type": "uint256"
        }
      ],
      "name": "getAuction",
      "outputs": [
        {
          "components": [
            {
              "internalType": "uint256",
              "name": "auctionId",
              "type": "uint256"
            },
            {
              "internalType": "uint256",
              "name": "tokenId",
              "type": "uint256"
            },
            {
              "internalType": "address",
              "name": "owner",
              "type": "address"
            },
            {
              "internalType": "uint256",
              "name": "startBlock",
              "type": "uint256"
            },
            {
              "internalType": "uint256",
              "name": "endBlock",
              "type": "uint256"
            },
            {
              "internalType": "uint256",
              "name": "currentBlock",
              "type": "uint256"
            },
            {
              "internalType": "uint256",
              "name": "sellNowPrice",
              "type": "uint256"
            },
            {
              "internalType": "address",
              "name": "highestBidder",
              "type": "address"
            },
            {
              "internalType": "uint256",
              "name": "highestBid",
              "type": "uint256"
            },
            {
              "internalType": "bool",
              "name": "cancelled",
              "type": "bool"
            },
            {
              "internalType": "uint256",
              "name": "minimumBid",
              "type": "uint256"
            },
            {
              "internalType": "address[]",
              "name": "bidders",
              "type": "address[]"
            },
            {
              "internalType": "uint256[]",
              "name": "bids",
              "type": "uint256[]"
            },
            {
              "internalType": "bool",
              "name": "started",
              "type": "bool"
            },
            {
              "internalType": "bool",
              "name": "finished",
              "type": "bool"
            },
            {
              "internalType": "bool",
              "name": "sellNowTriggered",
              "type": "bool"
            }
          ],
          "internalType": "struct Models.AuctionInfo",
          "name": "",
          "type": "tuple"
        }
      ],
      "stateMutability": "view",
      "type": "function"
    },
    {
      "inputs": [
        {
          "internalType": "uint256",
          "name": "tokenId",
          "type": "uint256"
        },
        {
          "internalType": "uint256",
          "name": "auctionId",
          "type": "uint256"
        }
      ],
      "name": "getBidders",
      "outputs": [
        {
          "internalType": "address[]",
          "name": "",
          "type": "address[]"
        }
      ],
      "stateMutability": "view",
      "type": "function"
    },
    {
      "inputs": [
        {
          "internalType": "uint256",
          "name": "tokenId",
          "type": "uint256"
        },
        {
          "internalType": "uint256",
          "name": "auctionId",
          "type": "uint256"
        }
      ],
      "name": "getBids",
      "outputs": [
        {
          "internalType": "uint256[]",
          "name": "",
          "type": "uint256[]"
        }
      ],
      "stateMutability": "view",
      "type": "function"
    },
    {
      "inputs": [
        {
          "internalType": "uint256",
          "name": "tokenId",
          "type": "uint256"
        },
        {
          "internalType": "uint256",
          "name": "auctionId",
          "type": "uint256"
        }
      ],
      "name": "getCurrentBlock",
      "outputs": [
        {
          "internalType": "uint256",
          "name": "",
          "type": "uint256"
        }
      ],
      "stateMutability": "view",
      "type": "function"
    },
    {
      "inputs": [
        {
          "internalType": "uint256",
          "name": "tokenId",
          "type": "uint256"
        },
        {
          "internalType": "uint256",
          "name": "auctionId",
          "type": "uint256"
        }
      ],
      "name": "getEndBlock",
      "outputs": [
        {
          "internalType": "uint256",
          "name": "",
          "type": "uint256"
        }
      ],
      "stateMutability": "view",
      "type": "function"
    },
    {
      "inputs": [
        {
          "internalType": "uint256",
          "name": "tokenId",
          "type": "uint256"
        },
        {
          "internalType": "uint256",
          "name": "auctionId",
          "type": "uint256"
        }
      ],
      "name": "getHighestBid",
      "outputs": [
        {
          "internalType": "uint256",
          "name": "",
          "type": "uint256"
        }
      ],
      "stateMutability": "view",
      "type": "function"
    },
    {
      "inputs": [
        {
          "internalType": "uint256",
          "name": "tokenId",
          "type": "uint256"
        },
        {
          "internalType": "uint256",
          "name": "auctionId",
          "type": "uint256"
        }
      ],
      "name": "getHighestBidder",
      "outputs": [
        {
          "internalType": "address",
          "name": "",
          "type": "address"
        }
      ],
      "stateMutability": "view",
      "type": "function"
    },
    {
      "inputs": [],
      "name": "getIssuerFeesPercentage",
      "outputs": [
        {
          "internalType": "uint256",
          "name": "",
          "type": "uint256"
        }
      ],
      "stateMutability": "view",
      "type": "function"
    },
    {
      "inputs": [
        {
          "internalType": "uint256",
          "name": "tokenId",
          "type": "uint256"
        },
        {
          "internalType": "uint256",
          "name": "auctionId",
          "type": "uint256"
        }
      ],
      "name": "getMinimumBid",
      "outputs": [
        {
          "internalType": "uint256",
          "name": "",
          "type": "uint256"
        }
      ],
      "stateMutability": "view",
      "type": "function"
    },
    {
      "inputs": [
        {
          "internalType": "uint256",
          "name": "tokenId",
          "type": "uint256"
        }
      ],
      "name": "getOwner",
      "outputs": [
        {
          "internalType": "address",
          "name": "",
          "type": "address"
        }
      ],
      "stateMutability": "view",
      "type": "function"
    },
    {
      "inputs": [],
      "name": "getParent",
      "outputs": [
        {
          "internalType": "address",
          "name": "",
          "type": "address"
        }
      ],
      "stateMutability": "view",
      "type": "function"
    },
    {
      "inputs": [
        {
          "internalType": "uint256",
          "name": "tokenId",
          "type": "uint256"
        },
        {
          "internalType": "uint256",
          "name": "auctionId",
          "type": "uint256"
        }
      ],
      "name": "getSellNowPrice",
      "outputs": [
        {
          "internalType": "uint256",
          "name": "",
          "type": "uint256"
        }
      ],
      "stateMutability": "view",
      "type": "function"
    },
    {
      "inputs": [
        {
          "internalType": "uint256",
          "name": "tokenId",
          "type": "uint256"
        },
        {
          "internalType": "uint256",
          "name": "auctionId",
          "type": "uint256"
        }
      ],
      "name": "getStartBlock",
      "outputs": [
        {
          "internalType": "uint256",
          "name": "",
          "type": "uint256"
        }
      ],
      "stateMutability": "view",
      "type": "function"
    },
    {
      "inputs": [
        {
          "internalType": "uint256",
          "name": "tokenId",
          "type": "uint256"
        }
      ],
      "name": "getToken",
      "outputs": [
        {
          "internalType": "contract Token",
          "name": "",
          "type": "address"
        }
      ],
      "stateMutability": "view",
      "type": "function"
    },
    {
      "inputs": [],
      "name": "getXendFeesAddress",
      "outputs": [
        {
          "internalType": "address payable",
          "name": "",
          "type": "address"
        }
      ],
      "stateMutability": "view",
      "type": "function"
    },
    {
      "inputs": [],
      "name": "getXendFeesPercentage",
      "outputs": [
        {
          "internalType": "uint256",
          "name": "",
          "type": "uint256"
        }
      ],
      "stateMutability": "view",
      "type": "function"
    },
    {
      "inputs": [
        {
          "internalType": "uint256",
          "name": "tokenId",
          "type": "uint256"
        },
        {
          "internalType": "uint256",
          "name": "auctionId",
          "type": "uint256"
        }
      ],
      "name": "isCancelled",
      "outputs": [
        {
          "internalType": "bool",
          "name": "",
          "type": "bool"
        }
      ],
      "stateMutability": "view",
      "type": "function"
    },
    {
      "inputs": [
        {
          "internalType": "uint256",
          "name": "tokenId",
          "type": "uint256"
        },
        {
          "internalType": "uint256",
          "name": "auctionId",
          "type": "uint256"
        }
      ],
      "name": "isFinished",
      "outputs": [
        {
          "internalType": "bool",
          "name": "",
          "type": "bool"
        }
      ],
      "stateMutability": "view",
      "type": "function"
    },
    {
      "inputs": [
        {
          "internalType": "uint256",
          "name": "tokenId",
          "type": "uint256"
        }
      ],
      "name": "isInAuction",
      "outputs": [
        {
          "internalType": "bool",
          "name": "",
          "type": "bool"
        }
      ],
      "stateMutability": "view",
      "type": "function"
    },
    {
      "inputs": [
        {
          "internalType": "uint256",
          "name": "tokenId",
          "type": "uint256"
        },
        {
          "internalType": "uint256",
          "name": "auctionId",
          "type": "uint256"
        }
      ],
      "name": "isSellNowTriggered",
      "outputs": [
        {
          "internalType": "bool",
          "name": "",
          "type": "bool"
        }
      ],
      "stateMutability": "view",
      "type": "function"
    },
    {
      "inputs": [
        {
          "internalType": "uint256",
          "name": "tokenId",
          "type": "uint256"
        },
        {
          "internalType": "uint256",
          "name": "auctionId",
          "type": "uint256"
        }
      ],
      "name": "isStarted",
      "outputs": [
        {
          "internalType": "bool",
          "name": "",
          "type": "bool"
        }
      ],
      "stateMutability": "view",
      "type": "function"
    },
    {
      "inputs": [
        {
          "internalType": "address",
          "name": "_admin",
          "type": "address"
        },
        {
          "internalType": "address",
          "name": "_parent",
          "type": "address"
        }
      ],
      "name": "setAdmin",
      "outputs": [],
      "stateMutability": "nonpayable",
      "type": "function"
    },
    {
      "inputs": [
        {
          "internalType": "uint256",
          "name": "tokenId",
          "type": "uint256"
        },
        {
          "internalType": "uint256",
          "name": "auctionId",
          "type": "uint256"
        },
        {
          "internalType": "bool",
          "name": "_cancelled",
          "type": "bool"
        }
      ],
      "name": "setCancelled",
      "outputs": [],
      "stateMutability": "nonpayable",
      "type": "function"
    },
    {
      "inputs": [
        {
          "internalType": "uint256",
          "name": "tokenId",
          "type": "uint256"
        },
        {
          "internalType": "uint256",
          "name": "auctionId",
          "type": "uint256"
        },
        {
          "internalType": "uint256",
          "name": "_endBlock",
          "type": "uint256"
        }
      ],
      "name": "setEndBlock",
      "outputs": [],
      "stateMutability": "nonpayable",
      "type": "function"
    },
    {
      "inputs": [
        {
          "internalType": "uint256",
          "name": "tokenId",
          "type": "uint256"
        },
        {
          "internalType": "uint256",
          "name": "auctionId",
          "type": "uint256"
        },
        {
          "internalType": "bool",
          "name": "_finished",
          "type": "bool"
        }
      ],
      "name": "setFinished",
      "outputs": [],
      "stateMutability": "nonpayable",
      "type": "function"
    },
    {
      "inputs": [
        {
          "internalType": "uint256",
          "name": "tokenId",
          "type": "uint256"
        },
        {
          "internalType": "uint256",
          "name": "auctionId",
          "type": "uint256"
        },
        {
          "internalType": "uint256",
          "name": "hb",
          "type": "uint256"
        }
      ],
      "name": "setHighestBid",
      "outputs": [],
      "stateMutability": "nonpayable",
      "type": "function"
    },
    {
      "inputs": [
        {
          "internalType": "uint256",
          "name": "tokenId",
          "type": "uint256"
        },
        {
          "internalType": "uint256",
          "name": "auctionId",
          "type": "uint256"
        },
        {
          "internalType": "address",
          "name": "bidder",
          "type": "address"
        }
      ],
      "name": "setHighestBidder",
      "outputs": [],
      "stateMutability": "nonpayable",
      "type": "function"
    },
    {
      "inputs": [
        {
          "internalType": "uint256",
          "name": "tokenId",
          "type": "uint256"
        },
        {
          "internalType": "bool",
          "name": "_inAuction",
          "type": "bool"
        }
      ],
      "name": "setInAuction",
      "outputs": [],
      "stateMutability": "nonpayable",
      "type": "function"
    },
    {
      "inputs": [
        {
          "internalType": "uint256",
          "name": "_percentage",
          "type": "uint256"
        }
      ],
      "name": "setIssuerFeesPercentage",
      "outputs": [],
      "stateMutability": "nonpayable",
      "type": "function"
    },
    {
      "inputs": [
        {
          "internalType": "uint256",
          "name": "tokenId",
          "type": "uint256"
        },
        {
          "internalType": "address",
          "name": "_owner",
          "type": "address"
        }
      ],
      "name": "setOwner",
      "outputs": [],
      "stateMutability": "nonpayable",
      "type": "function"
    },
    {
      "inputs": [
        {
          "internalType": "uint256",
          "name": "tokenId",
          "type": "uint256"
        },
        {
          "internalType": "uint256",
          "name": "auctionId",
          "type": "uint256"
        },
        {
          "internalType": "bool",
          "name": "_sellNowTriggered",
          "type": "bool"
        }
      ],
      "name": "setSellNowTriggered",
      "outputs": [],
      "stateMutability": "nonpayable",
      "type": "function"
    },
    {
      "inputs": [
        {
          "internalType": "uint256",
          "name": "tokenId",
          "type": "uint256"
        },
        {
          "internalType": "uint256",
          "name": "auctionId",
          "type": "uint256"
        },
        {
          "internalType": "bool",
          "name": "_started",
          "type": "bool"
        }
      ],
      "name": "setStarted",
      "outputs": [],
      "stateMutability": "nonpayable",
      "type": "function"
    },
    {
      "inputs": [
        {
          "internalType": "address payable",
          "name": "_feesAddress",
          "type": "address"
        }
      ],
      "name": "setXendFeesAddress",
      "outputs": [],
      "stateMutability": "nonpayable",
      "type": "function"
    },
    {
      "inputs": [
        {
          "internalType": "uint256",
          "name": "_percentage",
          "type": "uint256"
        }
      ],
      "name": "setXendFeesPercentage",
      "outputs": [],
      "stateMutability": "nonpayable",
      "type": "function"
    },
    {
      "inputs": [
        {
          "components": [
            {
              "internalType": "uint256",
              "name": "auctionId",
              "type": "uint256"
            },
            {
              "internalType": "uint256",
              "name": "tokenId",
              "type": "uint256"
            },
            {
              "internalType": "address",
              "name": "owner",
              "type": "address"
            },
            {
              "internalType": "uint256",
              "name": "startBlock",
              "type": "uint256"
            },
            {
              "internalType": "uint256",
              "name": "endBlock",
              "type": "uint256"
            },
            {
              "internalType": "uint256",
              "name": "currentBlock",
              "type": "uint256"
            },
            {
              "internalType": "uint256",
              "name": "sellNowPrice",
              "type": "uint256"
            },
            {
              "internalType": "address",
              "name": "highestBidder",
              "type": "address"
            },
            {
              "internalType": "uint256",
              "name": "highestBid",
              "type": "uint256"
            },
            {
              "internalType": "bool",
              "name": "cancelled",
              "type": "bool"
            },
            {
              "internalType": "uint256",
              "name": "minimumBid",
              "type": "uint256"
            },
            {
              "internalType": "address[]",
              "name": "bidders",
              "type": "address[]"
            },
            {
              "internalType": "uint256[]",
              "name": "bids",
              "type": "uint256[]"
            },
            {
              "internalType": "bool",
              "name": "started",
              "type": "bool"
            },
            {
              "internalType": "bool",
              "name": "finished",
              "type": "bool"
            },
            {
              "internalType": "bool",
              "name": "sellNowTriggered",
              "type": "bool"
            }
          ],
          "internalType": "struct Models.AuctionInfo",
          "name": "ai",
          "type": "tuple"
        }
      ],
      "name": "startAuction",
      "outputs": [],
      "stateMutability": "nonpayable",
      "type": "function"
    }
  ],
  "bytecode": "0x6080604052601080546001600160a01b031990811690915560118054821690556005601255600a6013556014805490911673616b6c01dfea4af613326fdf683429f43cee86fd17905534801561005457600080fd5b50611a1c806100646000396000f3fe608060405234801561001057600080fd5b50600436106102485760003560e01c80638bb712221161013b578063c41a360a116100b8578063e16d536c1161007c578063e16d536c146104fb578063e1e7cef614610503578063e4b50cb814610516578063f7336fb114610529578063f941ac801461053c57610248565b8063c41a360a146104a7578063c55b6bb7146104ba578063c8ea3498146104cd578063c8f77edf146104e0578063d2aa4187146104e857610248565b8063b54303b0116100ff578063b54303b014610448578063b76536fd1461045b578063bf9fde031461046e578063c0b49c7014610481578063c3c5efaf1461049457610248565b80638bb71222146103f45780639057c0631461040757806390f7e24c1461041a578063a2b2c6f31461042d578063abd67b0a1461044057610248565b806356469425116101c95780637fd392471161018d5780637fd392471461038657806380f760211461039957806386514e26146103a157806386a1bd7a146103c15780638a828b08146103d457610248565b8063564694251461033257806357016b0a1461034557806360e6f552146103585780636e9960c31461036b5780637e3ce5f61461037357610248565b806329f4acb01161021057806329f4acb0146102d15780632bd87dd1146102d957806330efaeb6146102ec5780633b667d5e146102ff5780634b4a39b91461031257610248565b80630b8974f81461024d5780630d08358b1461027657806315e48d391461028b5780631b3a5e3a146102ab57806326567db6146102be575b600080fd5b61026061025b3660046115fa565b61055c565b60405161026d919061195f565b60405180910390f35b610289610284366004611653565b610579565b005b61029e6102993660046115fa565b6105e7565b60405161026d9190611771565b6102606102b93660046115fa565b610607565b6102896102cc36600461161b565b610624565b61029e610686565b61029e6102e73660046115fa565b6106ee565b6102896102fa366004611653565b61070e565b61028961030d366004611687565b610778565b6103256103203660046115fa565b6107cf565b60405161026d9190611737565b6102606103403660046115fa565b6107f5565b6102896103533660046115ab565b610812565b61029e6103663660046115fa565b61086a565b61032561088a565b6102896103813660046115cf565b610899565b6102896103943660046115ab565b6108e3565b61032561093b565b6103b46103af3660046115fa565b61094a565b60405161026d919061175e565b6102896103cf366004611593565b6109b5565b6103e76103e23660046115fa565b6109e4565b60405161026d919061174b565b610289610402366004611653565b610a58565b610289610415366004611439565b610ac2565b6102606104283660046115fa565b610c2f565b61026061043b3660046115fa565b610c4c565b610325610c69565b61028961045636600461161b565b610c78565b6102896104693660046113de565b610ceb565b61028961047c366004611687565b610d37565b61028961048f366004611593565b610d7d565b61029e6104a2366004611593565b610dac565b6103256104b5366004611593565b610dc4565b6102896104c8366004611401565b610ddf565b6102896104db366004611653565b610e8d565b610260610ef7565b6102896104f6366004611687565b610efd565b610260610f43565b6102606105113660046115fa565b610f49565b610325610524366004611593565b610f66565b61029e6105373660046115fa565b610f81565b61054f61054a3660046115fa565b610fa1565b60405161026d9190611843565b6000918252600e6020908152604080842092845291905290205490565b6010546001600160a01b031633146105ac5760405162461bcd60e51b81526004016105a3906117f9565b60405180910390fd5b6000838152600960209081526040808320948352938152838220805493151560ff19948516179055938152600d909352912080549091169055565b6000918252600b6020908152604080842092845291905290205460ff1690565b600091825260046020908152604080842092845291905290205490565b6010546001600160a01b0316331461064e5760405162461bcd60e51b81526004016105a3906117f9565b6000928352600760209081526040808520938552929052912080546001600160a01b0319166001600160a01b03909216919091179055565b60006106be6040518060600160405280602481526020016119c36024913960105460115433916001600160a01b0390811691166111e7565b6010546001600160a01b031633146106e85760405162461bcd60e51b81526004016105a3906117f9565b50600190565b6000918252600c6020908152604080842092845291905290205460ff1690565b6010546001600160a01b031633146107385760405162461bcd60e51b81526004016105a3906117f9565b6000838152600a60209081526040808320948352938152838220805460ff19908116941515948517909155948252600d9052919091208054909216179055565b6010546001600160a01b031633146107a25760405162461bcd60e51b81526004016105a3906117f9565b60009283526006602090815260408085209385529281529183208054600181018255908452919092200155565b60009182526007602090815260408084209284529190529020546001600160a01b031690565b600091825260026020908152604080842092845291905290205490565b6010546001600160a01b0316331461083c5760405162461bcd60e51b81526004016105a3906117f9565b6000918252600f602052604090912080546001600160a01b0319166001600160a01b03909216919091179055565b600091825260096020908152604080842092845291905290205460ff1690565b6010546001600160a01b031690565b6010546001600160a01b031633146108c35760405162461bcd60e51b81526004016105a3906117f9565b6000918252600d6020526040909120805460ff1916911515919091179055565b6010546001600160a01b0316331461090d5760405162461bcd60e51b81526004016105a3906117f9565b60009182526020829052604090912080546001600160a01b0319166001600160a01b03909216919091179055565b6011546001600160a01b031690565b60008281526006602090815260408083208484528252918290208054835181840281018401909452808452606093928301828280156109a857602002820191906000526020600020905b815481526020019060010190808311610994575b5050505050905092915050565b6010546001600160a01b031633146109df5760405162461bcd60e51b81526004016105a3906117f9565b601255565b60008281526005602090815260408083208484528252918290208054835181840281018401909452808452606093928301828280156109a857602002820191906000526020600020905b81546001600160a01b03168152600190910190602001808311610a2e575050505050905092915050565b6010546001600160a01b03163314610a825760405162461bcd60e51b81526004016105a3906117f9565b6000838152600c60209081526040808320948352938152838220805460ff19908116941515948517909155948252600d9052919091208054909216179055565b6010546001600160a01b03163314610aec5760405162461bcd60e51b81526004016105a3906117f9565b6020818101518251604080850151600084815280865282812080546001600160a01b0319166001600160a01b03909316929092179091556060860151600286528282208483528652828220556080860180518583526003875283832085845287528383205551848252600180875283832085845287528383209190915560c0870151858352600487528383208584528752838320556101409096018051858352600e87528383208584528752838320555184825260088652828220848352865282822055838152600a85528181208382528552818120805460ff199081168817909155848252600b86528282208483528652828220805482169055848252600c8652828220848352865282822080548216905584825260098652828220938252928552818120805484169055928352600d90935291902080549091169091179055565b600091825260036020908152604080842092845291905290205490565b600091825260016020908152604080842092845291905290205490565b6014546001600160a01b031690565b6010546001600160a01b03163314610ca25760405162461bcd60e51b81526004016105a3906117f9565b60009283526005602090815260408085209385529281529183208054600181018255908452919092200180546001600160a01b0319166001600160a01b03909216919091179055565b6010546001600160a01b03163314610d155760405162461bcd60e51b81526004016105a3906117f9565b601480546001600160a01b0319166001600160a01b0392909216919091179055565b6010546001600160a01b03163314610d615760405162461bcd60e51b81526004016105a3906117f9565b6000928352600360209081526040808520938552929052912055565b6010546001600160a01b03163314610da75760405162461bcd60e51b81526004016105a3906117f9565b601355565b6000818152600d602052604090205460ff165b919050565b6000908152602081905260409020546001600160a01b031690565b6010546001600160a01b0316158015610e0157506011546001600160a01b0316155b15610e3b57601180546001600160a01b038084166001600160a01b0319928316179092556010805492851692909116919091179055610e89565b6011546001600160a01b0382811691161415610e7157601080546001600160a01b0319166001600160a01b038416179055610e89565b60405162461bcd60e51b81526004016105a390611824565b5050565b6010546001600160a01b03163314610eb75760405162461bcd60e51b81526004016105a3906117f9565b6000838152600b60209081526040808320948352938152838220805460ff19908116941515948517909155948252600d9052919091208054909216179055565b60135490565b6010546001600160a01b03163314610f275760405162461bcd60e51b81526004016105a3906117f9565b6000928352600860209081526040808520938552929052912055565b60125490565b600091825260086020908152604080842092845291905290205490565b6000908152600f60205260409020546001600160a01b031690565b6000918252600a6020908152604080842092845291905290205460ff1690565b610fa9611257565b610fb1611257565b604080516102008101825285815260208082018690526000878152808252838120546001600160a01b03908116848601528882526002835284822088835283528482205460608501528882526003835284822088835283528482205460808501528882526001835284822088835283528482205460a08501528882526004835284822088835283528482205460c0850152888252600783528482208883528352848220541660e0840152878152600882528381208782528252838120546101008401528781526009825283812087825282528381205460ff161515610120840152878152600e825283812087825282528381205461014084015287815260058252838120878252825283902080548451818402810184019095528085529293610160850193909283018282801561111157602002820191906000526020600020905b81546001600160a01b031681526001909101906020018083116110f3575b50505091835250506000868152600660209081526040808320888452825291829020805483518184028101840190945280845293820193909183018282801561117957602002820191906000526020600020905b815481526020019060010190808311611165575b50505091835250506000868152600a6020908152604080832088845282528083205460ff908116151583860152898452600b83528184208985528352818420548116151582860152898452600c83528184208985529092529091205416151560609091015291505092915050565b61123084848484604051602401611201949392919061177c565b60408051601f198184030181529190526020810180516001600160e01b03166376c7947b60e11b179052611236565b50505050565b80516a636f6e736f6c652e6c6f67602083016000808483855afa5050505050565b604051806102000160405280600081526020016000815260200160006001600160a01b031681526020016000815260200160008152602001600081526020016000815260200160006001600160a01b03168152602001600081526020016000151581526020016000815260200160608152602001606081526020016000151581526020016000151581526020016000151581525090565b8035610dbf816119aa565b600082601f830112611309578081fd5b813561131c6113178261198c565b611968565b81815291506020808301908481018184028601820187101561133d57600080fd5b60005b84811015611365578135611353816119aa565b84529282019290820190600101611340565b505050505092915050565b600082601f830112611380578081fd5b813561138e6113178261198c565b8181529150602080830190848101818402860182018710156113af57600080fd5b60005b84811015611365578135845292820192908201906001016113b2565b80358015158114610dbf57600080fd5b6000602082840312156113ef578081fd5b81356113fa816119aa565b9392505050565b60008060408385031215611413578081fd5b823561141e816119aa565b9150602083013561142e816119aa565b809150509250929050565b60006020828403121561144a578081fd5b813567ffffffffffffffff80821115611461578283fd5b8184019150610200808387031215611477578384fd5b61148081611968565b9050823581526020830135602082015261149c604084016112ee565b6040820152606083013560608201526080830135608082015260a083013560a082015260c083013560c08201526114d560e084016112ee565b60e082015261010083810135908201526101206114f38185016113ce565b9082015261014083810135908201526101608084013583811115611515578586fd5b611521888287016112f9565b828401525050610180808401358381111561153a578586fd5b61154688828701611370565b8284015250506101a0915061155c8284016113ce565b828201526101c091506115708284016113ce565b828201526101e091506115848284016113ce565b91810191909152949350505050565b6000602082840312156115a4578081fd5b5035919050565b600080604083850312156115bd578182fd5b82359150602083013561142e816119aa565b600080604083850312156115e1578182fd5b823591506115f1602084016113ce565b90509250929050565b6000806040838503121561160c578182fd5b50508035926020909101359150565b60008060006060848603121561162f578081fd5b83359250602084013591506040840135611648816119aa565b809150509250925092565b600080600060608486031215611667578283fd5b833592506020840135915061167e604085016113ce565b90509250925092565b60008060006060848603121561169b578283fd5b505081359360208301359350604090920135919050565b6001600160a01b03169052565b6000815180845260208085019450808401835b838110156116f75781516001600160a01b0316875295820195908201906001016116d2565b509495945050505050565b6000815180845260208085019450808401835b838110156116f757815187529582019590820190600101611715565b15159052565b6001600160a01b0391909116815260200190565b6000602082526113fa60208301846116bf565b6000602082526113fa6020830184611702565b901515815260200190565b6000608082528551806080840152815b818110156117a957602081890181015160a086840101520161178c565b818111156117ba578260a083860101525b50601f01601f1916820160a00190506117d660208301866116b2565b6117e360408301856116b2565b6117f060608301846116b2565b95945050505050565b602080825260119082015270165bdd4818d85b89dd08191bc81d1a185d607a1b604082015260600190565b60208082526005908201526413d050d11560da1b604082015260600190565b6000602082528251602083015260208301516040830152604083015161186c60608401826116b2565b5060608301516080830152608083015160a083015260a083015160c083015260c083015160e083015260e08301516101006118a9818501836116b2565b8401516101208481019190915284015190506101406118ca81850183611731565b84015161016084810191909152840151610200610180808601829052919250906118f86102208601846116bf565b92508086015190506101a0601f1986850301818701526119188483611702565b9350808701519150506101c061193081870183611731565b86015190506101e061194486820183611731565b860151905061195585830182611731565b5090949350505050565b90815260200190565b60405181810167ffffffffffffffff8111828210171561198457fe5b604052919050565b600067ffffffffffffffff8211156119a057fe5b5060209081020190565b6001600160a01b03811681146119bf57600080fd5b5056fe322e2053656e6465723a2025732c2041646d696e3a2025732c20506172656e743a202573a264697066735822122044e53f66670b26464cb542b48e8aadea674b5348bc376c49cd60d6d936c1c3bf64736f6c63430007030033",
  "linkReferences": {},
  "deployedLinkReferences": {}
}