{
  "_format": "hh-sol-artifact-1",
  "contractName": "Token",
  "sourceName": "contracts/Token.sol",
  "abi": [
    {
      "inputs": [
        {
          "internalType": "address payable",
          "name": "_owner",
          "type": "address"
        },
        {
          "internalType": "string",
          "name": "_uri",
          "type": "string"
        },
        {
          "internalType": "string",
          "name": "_name",
          "type": "string"
        },
        {
          "internalType": "string",
          "name": "_symbol",
          "type": "string"
        }
      ],
      "stateMutability": "nonpayable",
      "type": "constructor"
    },
    {
      "anonymous": false,
      "inputs": [
        {
          "indexed": true,
          "internalType": "address",
          "name": "owner",
          "type": "address"
        },
        {
          "indexed": true,
          "internalType": "address",
          "name": "approved",
          "type": "address"
        },
        {
          "indexed": true,
          "internalType": "uint256",
          "name": "tokenId",
          "type": "uint256"
        }
      ],
      "name": "Approval",
      "type": "event"
    },
    {
      "anonymous": false,
      "inputs": [
        {
          "indexed": true,
          "internalType": "address",
          "name": "owner",
          "type": "address"
        },
        {
          "indexed": true,
          "internalType": "address",
          "name": "operator",
          "type": "address"
        },
        {
          "indexed": false,
          "internalType": "bool",
          "name": "approved",
          "type": "bool"
        }
      ],
      "name": "ApprovalForAll",
      "type": "event"
    },
    {
      "anonymous": false,
      "inputs": [
        {
          "indexed": true,
          "internalType": "address",
          "name": "from",
          "type": "address"
        },
        {
          "indexed": true,
          "internalType": "address",
          "name": "to",
          "type": "address"
        },
        {
          "indexed": true,
          "internalType": "uint256",
          "name": "tokenId",
          "type": "uint256"
        }
      ],
      "name": "Transfer",
      "type": "event"
    },
    {
      "inputs": [
        {
          "internalType": "uint256",
          "name": "tokenId",
          "type": "uint256"
        }
      ],
      "name": "allowSpending",
      "outputs": [],
      "stateMutability": "nonpayable",
      "type": "function"
    },
    {
      "inputs": [
        {
          "internalType": "address",
          "name": "to",
          "type": "address"
        },
        {
          "internalType": "uint256",
          "name": "tokenId",
          "type": "uint256"
        }
      ],
      "name": "approve",
      "outputs": [],
      "stateMutability": "nonpayable",
      "type": "function"
    },
    {
      "inputs": [
        {
          "internalType": "address",
          "name": "owner",
          "type": "address"
        }
      ],
      "name": "balanceOf",
      "outputs": [
        {
          "internalType": "uint256",
          "name": "",
          "type": "uint256"
        }
      ],
      "stateMutability": "view",
      "type": "function"
    },
    {
      "inputs": [],
      "name": "baseURI",
      "outputs": [
        {
          "internalType": "string",
          "name": "",
          "type": "string"
        }
      ],
      "stateMutability": "view",
      "type": "function"
    },
    {
      "inputs": [
        {
          "internalType": "uint256",
          "name": "tokenId",
          "type": "uint256"
        },
        {
          "internalType": "address",
          "name": "from",
          "type": "address"
        },
        {
          "internalType": "address",
          "name": "to",
          "type": "address"
        }
      ],
      "name": "changeOwnership",
      "outputs": [
        {
          "internalType": "bool",
          "name": "",
          "type": "bool"
        }
      ],
      "stateMutability": "nonpayable",
      "type": "function"
    },
    {
      "inputs": [
        {
          "internalType": "uint256",
          "name": "tokenId",
          "type": "uint256"
        }
      ],
      "name": "getApproved",
      "outputs": [
        {
          "internalType": "address",
          "name": "",
          "type": "address"
        }
      ],
      "stateMutability": "view",
      "type": "function"
    },
    {
      "inputs": [],
      "name": "getIssuer",
      "outputs": [
        {
          "internalType": "address payable",
          "name": "",
          "type": "address"
        }
      ],
      "stateMutability": "view",
      "type": "function"
    },
    {
      "inputs": [
        {
          "internalType": "address",
          "name": "owner",
          "type": "address"
        },
        {
          "internalType": "address",
          "name": "operator",
          "type": "address"
        }
      ],
      "name": "isApprovedForAll",
      "outputs": [
        {
          "internalType": "bool",
          "name": "",
          "type": "bool"
        }
      ],
      "stateMutability": "view",
      "type": "function"
    },
    {
      "inputs": [
        {
          "internalType": "uint256",
          "name": "tokenId",
          "type": "uint256"
        }
      ],
      "name": "mint",
      "outputs": [
        {
          "internalType": "bool",
          "name": "",
          "type": "bool"
        }
      ],
      "stateMutability": "nonpayable",
      "type": "function"
    },
    {
      "inputs": [],
      "name": "name",
      "outputs": [
        {
          "internalType": "string",
          "name": "",
          "type": "string"
        }
      ],
      "stateMutability": "view",
      "type": "function"
    },
    {
      "inputs": [
        {
          "internalType": "uint256",
          "name": "tokenId",
          "type": "uint256"
        }
      ],
      "name": "ownerOf",
      "outputs": [
        {
          "internalType": "address",
          "name": "",
          "type": "address"
        }
      ],
      "stateMutability": "view",
      "type": "function"
    },
    {
      "inputs": [
        {
          "internalType": "address",
          "name": "from",
          "type": "address"
        },
        {
          "internalType": "address",
          "name": "to",
          "type": "address"
        },
        {
          "internalType": "uint256",
          "name": "tokenId",
          "type": "uint256"
        }
      ],
      "name": "safeTransferFrom",
      "outputs": [],
      "stateMutability": "nonpayable",
      "type": "function"
    },
    {
      "inputs": [
        {
          "internalType": "address",
          "name": "from",
          "type": "address"
        },
        {
          "internalType": "address",
          "name": "to",
          "type": "address"
        },
        {
          "internalType": "uint256",
          "name": "tokenId",
          "type": "uint256"
        },
        {
          "internalType": "bytes",
          "name": "_data",
          "type": "bytes"
        }
      ],
      "name": "safeTransferFrom",
      "outputs": [],
      "stateMutability": "nonpayable",
      "type": "function"
    },
    {
      "inputs": [
        {
          "internalType": "address",
          "name": "operator",
          "type": "address"
        },
        {
          "internalType": "bool",
          "name": "approved",
          "type": "bool"
        }
      ],
      "name": "setApprovalForAll",
      "outputs": [],
      "stateMutability": "nonpayable",
      "type": "function"
    },
    {
      "inputs": [
        {
          "internalType": "bytes4",
          "name": "interfaceId",
          "type": "bytes4"
        }
      ],
      "name": "supportsInterface",
      "outputs": [
        {
          "internalType": "bool",
          "name": "",
          "type": "bool"
        }
      ],
      "stateMutability": "view",
      "type": "function"
    },
    {
      "inputs": [],
      "name": "symbol",
      "outputs": [
        {
          "internalType": "string",
          "name": "",
          "type": "string"
        }
      ],
      "stateMutability": "view",
      "type": "function"
    },
    {
      "inputs": [
        {
          "internalType": "uint256",
          "name": "index",
          "type": "uint256"
        }
      ],
      "name": "tokenByIndex",
      "outputs": [
        {
          "internalType": "uint256",
          "name": "",
          "type": "uint256"
        }
      ],
      "stateMutability": "view",
      "type": "function"
    },
    {
      "inputs": [
        {
          "internalType": "address",
          "name": "owner",
          "type": "address"
        },
        {
          "internalType": "uint256",
          "name": "index",
          "type": "uint256"
        }
      ],
      "name": "tokenOfOwnerByIndex",
      "outputs": [
        {
          "internalType": "uint256",
          "name": "",
          "type": "uint256"
        }
      ],
      "stateMutability": "view",
      "type": "function"
    },
    {
      "inputs": [
        {
          "internalType": "uint256",
          "name": "tokenId",
          "type": "uint256"
        }
      ],
      "name": "tokenURI",
      "outputs": [
        {
          "internalType": "string",
          "name": "",
          "type": "string"
        }
      ],
      "stateMutability": "view",
      "type": "function"
    },
    {
      "inputs": [],
      "name": "totalSupply",
      "outputs": [
        {
          "internalType": "uint256",
          "name": "",
          "type": "uint256"
        }
      ],
      "stateMutability": "view",
      "type": "function"
    },
    {
      "inputs": [
        {
          "internalType": "address",
          "name": "from",
          "type": "address"
        },
        {
          "internalType": "address",
          "name": "to",
          "type": "address"
        },
        {
          "internalType": "uint256",
          "name": "tokenId",
          "type": "uint256"
        }
      ],
      "name": "transferFrom",
      "outputs": [],
      "stateMutability": "nonpayable",
      "type": "function"
    }
  ],
  "bytecode": "0x60806040523480156200001157600080fd5b50604051620020a9380380620020a983398101604081905262000034916200029b565b8181620000486301ffc9a760e01b62000101565b81516200005d9060069060208501906200015c565b508051620000739060079060208401906200015c565b50620000866380ac58cd60e01b62000101565b62000098635b5e139f60e01b62000101565b620000aa63780e9d6360e01b62000101565b50508251620000c190600d9060208601906200015c565b5050600a80546001600160a01b039094166001600160a01b03199485168117909155600b8054851690911790555050600c8054909116331790556200037f565b6001600160e01b03198082161415620001375760405162461bcd60e51b81526004016200012e9062000348565b60405180910390fd5b6001600160e01b0319166000908152602081905260409020805460ff19166001179055565b828054600181600116156101000203166002900490600052602060002090601f016020900481019282601f106200019f57805160ff1916838001178555620001cf565b82800160010185558215620001cf579182015b82811115620001cf578251825591602001919060010190620001b2565b50620001dd929150620001e1565b5090565b5b80821115620001dd5760008155600101620001e2565b600082601f83011262000209578081fd5b81516001600160401b03808211156200021e57fe5b6040516020601f8401601f19168201810183811183821017156200023e57fe5b806040525081945083825286818588010111156200025b57600080fd5b600092505b838310156200027f578583018101518284018201529182019162000260565b83831115620002915760008185840101525b5050505092915050565b60008060008060808587031215620002b1578384fd5b84516001600160a01b0381168114620002c8578485fd5b60208601519094506001600160401b0380821115620002e5578485fd5b620002f388838901620001f8565b9450604087015191508082111562000309578384fd5b6200031788838901620001f8565b935060608701519150808211156200032d578283fd5b506200033c87828801620001f8565b91505092959194509250565b6020808252601c908201527f4552433136353a20696e76616c696420696e7465726661636520696400000000604082015260600190565b611d1a806200038f6000396000f3fe608060405234801561001057600080fd5b50600436106101375760003560e01c80636352211e116100b8578063a22cb4651161007c578063a22cb46514610261578063a5b668dc14610274578063b88d4fde14610287578063c87b56dd1461029a578063d44c1a9f146102ad578063e985e9c5146102c057610137565b80636352211e146102185780636c0360eb1461022b57806370a082311461023357806395d89b4114610246578063a0712d681461024e57610137565b806323b872dd116100ff57806323b872dd146101c45780632f745c59146101d757806342842e0e146101ea5780634f6ccce7146101fd578063525564211461021057610137565b806301ffc9a71461013c57806306fdde0314610165578063081812fc1461017a578063095ea7b31461019a57806318160ddd146101af575b600080fd5b61014f61014a3660046115e3565b6102d3565b60405161015c9190611736565b60405180910390f35b61016d6102f6565b60405161015c9190611741565b61018d61018836600461161b565b61038c565b60405161015c91906116e5565b6101ad6101a83660046115ba565b6103d8565b005b6101b7610470565b60405161015c9190611c3e565b6101ad6101d2366004611485565b610481565b6101b76101e53660046115ba565b6104b9565b6101ad6101f8366004611485565b6104e4565b6101b761020b36600461161b565b6104ff565b61018d610515565b61018d61022636600461161b565b610524565b61016d61054c565b6101b7610241366004611439565b6105ad565b61016d6105f6565b61014f61025c36600461161b565b610657565b6101ad61026f366004611580565b610743565b61014f610282366004611633565b610811565b6101ad6102953660046114c0565b610878565b61016d6102a836600461161b565b6108b7565b6101ad6102bb36600461161b565b6109fd565b61014f6102ce366004611453565b610a34565b6001600160e01b0319811660009081526020819052604090205460ff165b919050565b60068054604080516020601f60026000196101006001881615020190951694909404938401819004810282018101909252828152606093909290918301828280156103825780601f1061035757610100808354040283529160200191610382565b820191906000526020600020905b81548152906001019060200180831161036557829003601f168201915b5050505050905090565b600061039782610a62565b6103bc5760405162461bcd60e51b81526004016103b390611a45565b60405180910390fd5b506000908152600460205260409020546001600160a01b031690565b60006103e382610524565b9050806001600160a01b0316836001600160a01b031614156104175760405162461bcd60e51b81526004016103b390611b75565b806001600160a01b0316610429610a6f565b6001600160a01b031614806104455750610445816102ce610a6f565b6104615760405162461bcd60e51b81526004016103b390611927565b61046b8383610a73565b505050565b600061047c6002610ae1565b905090565b61049261048c610a6f565b82610aec565b6104ae5760405162461bcd60e51b81526004016103b390611bb6565b61046b838383610b71565b6001600160a01b03821660009081526001602052604081206104db9083610c7f565b90505b92915050565b61046b83838360405180602001604052806000815250610878565b60008061050d600284610c8b565b509392505050565b600b546001600160a01b031690565b60006104de82604051806060016040528060298152602001611cbc6029913960029190610ca7565b60098054604080516020601f60026000196101006001881615020190951694909404938401819004810282018101909252828152606093909290918301828280156103825780601f1061035757610100808354040283529160200191610382565b60006001600160a01b0382166105d55760405162461bcd60e51b81526004016103b390611984565b6001600160a01b03821660009081526001602052604090206104de90610ae1565b60078054604080516020601f60026000196101006001881615020190951694909404938401819004810282018101909252828152606093909290918301828280156103825780601f1061035757610100808354040283529160200191610382565b600c546000906001600160a01b031633146106845760405162461bcd60e51b81526004016103b39061181f565b600a5461069a906001600160a01b031683610cb4565b6106a3826109fd565b600d805460408051602060026001851615610100026000190190941693909304601f810184900484028201840190925281815261073b938693919290918301828280156107315780601f1061070657610100808354040283529160200191610731565b820191906000526020600020905b81548152906001019060200180831161071457829003601f168201915b5050505050610d78565b506001919050565b61074b610a6f565b6001600160a01b0316826001600160a01b0316141561077c5760405162461bcd60e51b81526004016103b3906118a4565b8060056000610789610a6f565b6001600160a01b03908116825260208083019390935260409182016000908120918716808252919093529120805460ff1916921515929092179091556107cd610a6f565b6001600160a01b03167f17307eab39ab6107e8899845ad3d59bd9653f200f220920489ca2b5937696c31836040516108059190611736565b60405180910390a35050565b600c546000906001600160a01b0316331461083e5760405162461bcd60e51b81526004016103b39061181f565b6108498383866104e4565b610852846109fd565b50600a80546001600160a01b0319166001600160a01b03831617905560015b9392505050565b610889610883610a6f565b83610aec565b6108a55760405162461bcd60e51b81526004016103b390611bb6565b6108b184848484610dbc565b50505050565b60606108c282610a62565b6108de5760405162461bcd60e51b81526004016103b390611b26565b60008281526008602090815260409182902080548351601f60026000196101006001861615020190931692909204918201849004840281018401909452808452606093928301828280156109735780601f1061094857610100808354040283529160200191610973565b820191906000526020600020905b81548152906001019060200180831161095657829003601f168201915b50505050509050606061098461054c565b9050805160001415610998575090506102f1565b8151156109ca5780826040516020016109b29291906116b6565b604051602081830303815290604052925050506102f1565b806109d485610def565b6040516020016109e59291906116b6565b60405160208183030381529060405292505050919050565b600c546001600160a01b03163314610a275760405162461bcd60e51b81526004016103b39061181f565b610a313382610a73565b50565b6001600160a01b03918216600090815260056020908152604080832093909416825291909152205460ff1690565b60006104de600283610eca565b3390565b600081815260046020526040902080546001600160a01b0319166001600160a01b0384169081179091558190610aa882610524565b6001600160a01b03167f8c5be1e5ebec7d5bd14f71427d1e84f3dd0314c0f7b2291e5b200ac8c7c3b92560405160405180910390a45050565b60006104de82610ed6565b6000610af782610a62565b610b135760405162461bcd60e51b81526004016103b3906118db565b6000610b1e83610524565b9050806001600160a01b0316846001600160a01b03161480610b595750836001600160a01b0316610b4e8461038c565b6001600160a01b0316145b80610b695750610b698185610a34565b949350505050565b826001600160a01b0316610b8482610524565b6001600160a01b031614610baa5760405162461bcd60e51b81526004016103b390611add565b6001600160a01b038216610bd05760405162461bcd60e51b81526004016103b390611860565b610bdb83838361046b565b610be6600082610a73565b6001600160a01b0383166000908152600160205260409020610c089082610eda565b506001600160a01b0382166000908152600160205260409020610c2b9082610ee6565b50610c3860028284610ef2565b5080826001600160a01b0316846001600160a01b03167fddf252ad1be2c89b69c2b068fc378daa952ba7f163c4a11628f55a4df523b3ef60405160405180910390a4505050565b60006104db8383610f08565b6000808080610c9a8686610f4d565b9097909650945050505050565b6000610b69848484610fa9565b6001600160a01b038216610cda5760405162461bcd60e51b81526004016103b390611a10565b610ce381610a62565b15610d005760405162461bcd60e51b81526004016103b3906117e8565b610d0c6000838361046b565b6001600160a01b0382166000908152600160205260409020610d2e9082610ee6565b50610d3b60028284610ef2565b5060405181906001600160a01b038416906000907fddf252ad1be2c89b69c2b068fc378daa952ba7f163c4a11628f55a4df523b3ef908290a45050565b610d8182610a62565b610d9d5760405162461bcd60e51b81526004016103b390611a91565b6000828152600860209081526040909120825161046b9284019061138f565b610dc7848484610b71565b610dd384848484611008565b6108b15760405162461bcd60e51b81526004016103b390611796565b606081610e1457506040805180820190915260018152600360fc1b60208201526102f1565b8160005b8115610e2c57600101600a82049150610e18565b60608167ffffffffffffffff81118015610e4557600080fd5b506040519080825280601f01601f191660200182016040528015610e70576020820181803683370190505b50859350905060001982015b8315610ec157600a840660300160f81b82828060019003935081518110610e9f57fe5b60200101906001600160f81b031916908160001a905350600a84049350610e7c565b50949350505050565b60006104db83836110e7565b5490565b60006104db83836110ff565b60006104db83836111c5565b6000610b6984846001600160a01b03851661120f565b81546000908210610f2b5760405162461bcd60e51b81526004016103b390611754565b826000018281548110610f3a57fe5b9060005260206000200154905092915050565b815460009081908310610f725760405162461bcd60e51b81526004016103b3906119ce565b6000846000018481548110610f8357fe5b906000526020600020906002020190508060000154816001015492509250509250929050565b60008281526001840160205260408120548281610fd95760405162461bcd60e51b81526004016103b39190611741565b50846000016001820381548110610fec57fe5b9060005260206000209060020201600101549150509392505050565b600061101c846001600160a01b03166112a6565b61102857506001610b69565b60606110b0630a85bd0160e11b61103d610a6f565b88878760405160240161105394939291906116f9565b604051602081830303815290604052906001600160e01b0319166020820180516001600160e01b038381831617835250505050604051806060016040528060328152602001611c8a603291396001600160a01b03881691906112ac565b90506000818060200190518101906110c891906115ff565b6001600160e01b031916630a85bd0160e11b1492505050949350505050565b60009081526001919091016020526040902054151590565b600081815260018301602052604081205480156111bb578354600019808301919081019060009087908390811061113257fe5b906000526020600020015490508087600001848154811061114f57fe5b60009182526020808320909101929092558281526001898101909252604090209084019055865487908061117f57fe5b600190038181906000526020600020016000905590558660010160008781526020019081526020016000206000905560019450505050506104de565b60009150506104de565b60006111d183836110e7565b611207575081546001818101845560008481526020808220909301849055845484825282860190935260409020919091556104de565b5060006104de565b600082815260018401602052604081205480611274575050604080518082018252838152602080820184815286546001818101895560008981528481209551600290930290950191825591519082015586548684528188019092529290912055610871565b8285600001600183038154811061128757fe5b9060005260206000209060020201600101819055506000915050610871565b3b151590565b6060610b698484600085856112c0856112a6565b6112dc5760405162461bcd60e51b81526004016103b390611c07565b60006060866001600160a01b031685876040516112f9919061169a565b60006040518083038185875af1925050503d8060008114611336576040519150601f19603f3d011682016040523d82523d6000602084013e61133b565b606091505b509150915061134b828286611356565b979650505050505050565b60608315611365575081610871565b8251156113755782518084602001fd5b8160405162461bcd60e51b81526004016103b39190611741565b828054600181600116156101000203166002900490600052602060002090601f016020900481019282601f106113d057805160ff19168380011785556113fd565b828001600101855582156113fd579182015b828111156113fd5782518255916020019190600101906113e2565b5061140992915061140d565b5090565b5b80821115611409576000815560010161140e565b80356001600160a01b03811681146102f157600080fd5b60006020828403121561144a578081fd5b6104db82611422565b60008060408385031215611465578081fd5b61146e83611422565b915061147c60208401611422565b90509250929050565b600080600060608486031215611499578081fd5b6114a284611422565b92506114b060208501611422565b9150604084013590509250925092565b600080600080608085870312156114d5578081fd5b6114de85611422565b935060206114ed818701611422565b935060408601359250606086013567ffffffffffffffff80821115611510578384fd5b818801915088601f830112611523578384fd5b81358181111561152f57fe5b604051601f8201601f191681018501838111828210171561154c57fe5b60405281815283820185018b1015611562578586fd5b81858501868301379081019093019390935250939692955090935050565b60008060408385031215611592578182fd5b61159b83611422565b9150602083013580151581146115af578182fd5b809150509250929050565b600080604083850312156115cc578182fd5b6115d583611422565b946020939093013593505050565b6000602082840312156115f4578081fd5b813561087181611c73565b600060208284031215611610578081fd5b815161087181611c73565b60006020828403121561162c578081fd5b5035919050565b600080600060608486031215611647578283fd5b8335925061165760208501611422565b915061166560408501611422565b90509250925092565b60008151808452611686816020860160208601611c47565b601f01601f19169290920160200192915050565b600082516116ac818460208701611c47565b9190910192915050565b600083516116c8818460208801611c47565b8351908301906116dc818360208801611c47565b01949350505050565b6001600160a01b0391909116815260200190565b6001600160a01b038581168252841660208201526040810183905260806060820181905260009061172c9083018461166e565b9695505050505050565b901515815260200190565b6000602082526104db602083018461166e565b60208082526022908201527f456e756d657261626c655365743a20696e646578206f7574206f6620626f756e604082015261647360f01b606082015260800190565b60208082526032908201527f4552433732313a207472616e7366657220746f206e6f6e20455243373231526560408201527131b2b4bb32b91034b6b83632b6b2b73a32b960711b606082015260800190565b6020808252601c908201527f4552433732313a20746f6b656e20616c7265616479206d696e74656400000000604082015260600190565b60208082526021908201527f4f6e6c792061646d696e2063616e2063616c6c207468697320636f6e747261636040820152601d60fa1b606082015260800190565b60208082526024908201527f4552433732313a207472616e7366657220746f20746865207a65726f206164646040820152637265737360e01b606082015260800190565b60208082526019908201527f4552433732313a20617070726f766520746f2063616c6c657200000000000000604082015260600190565b6020808252602c908201527f4552433732313a206f70657261746f7220717565727920666f72206e6f6e657860408201526b34b9ba32b73a103a37b5b2b760a11b606082015260800190565b60208082526038908201527f4552433732313a20617070726f76652063616c6c6572206973206e6f74206f7760408201527f6e6572206e6f7220617070726f76656420666f7220616c6c0000000000000000606082015260800190565b6020808252602a908201527f4552433732313a2062616c616e636520717565727920666f7220746865207a65604082015269726f206164647265737360b01b606082015260800190565b60208082526022908201527f456e756d657261626c654d61703a20696e646578206f7574206f6620626f756e604082015261647360f01b606082015260800190565b6020808252818101527f4552433732313a206d696e7420746f20746865207a65726f2061646472657373604082015260600190565b6020808252602c908201527f4552433732313a20617070726f76656420717565727920666f72206e6f6e657860408201526b34b9ba32b73a103a37b5b2b760a11b606082015260800190565b6020808252602c908201527f4552433732314d657461646174613a2055524920736574206f66206e6f6e657860408201526b34b9ba32b73a103a37b5b2b760a11b606082015260800190565b60208082526029908201527f4552433732313a207472616e73666572206f6620746f6b656e2074686174206960408201526839903737ba1037bbb760b91b606082015260800190565b6020808252602f908201527f4552433732314d657461646174613a2055524920717565727920666f72206e6f60408201526e3732bc34b9ba32b73a103a37b5b2b760891b606082015260800190565b60208082526021908201527f4552433732313a20617070726f76616c20746f2063757272656e74206f776e656040820152603960f91b606082015260800190565b60208082526031908201527f4552433732313a207472616e736665722063616c6c6572206973206e6f74206f6040820152701ddb995c881b9bdc88185c1c1c9bdd9959607a1b606082015260800190565b6020808252601d908201527f416464726573733a2063616c6c20746f206e6f6e2d636f6e7472616374000000604082015260600190565b90815260200190565b60005b83811015611c62578181015183820152602001611c4a565b838111156108b15750506000910152565b6001600160e01b031981168114610a3157600080fdfe4552433732313a207472616e7366657220746f206e6f6e20455243373231526563656976657220696d706c656d656e7465724552433732313a206f776e657220717565727920666f72206e6f6e6578697374656e7420746f6b656ea264697066735822122093611c37ac37fef9021ac57d69103e07ac333bb67e19478df978db084852539e64736f6c63430007030033",
  "linkReferences": {},
  "deployedLinkReferences": {}
}