{
  "_format": "hh-sol-artifact-1",
  "contractName": "Yasuke",
  "sourceName": "contracts/Yasuke.sol",
  "abi": [
    {
      "inputs": [
        {
          "internalType": "address",
          "name": "storeAddress",
          "type": "address"
        }
      ],
      "stateMutability": "nonpayable",
      "type": "constructor"
    },
    {
      "anonymous": false,
      "inputs": [
        {
          "indexed": false,
          "internalType": "address",
          "name": "",
          "type": "address"
        },
        {
          "indexed": false,
          "internalType": "uint256",
          "name": "",
          "type": "uint256"
        }
      ],
      "name": "LogBid",
      "type": "event"
    },
    {
      "anonymous": false,
      "inputs": [],
      "name": "LogCanceled",
      "type": "event"
    },
    {
      "anonymous": false,
      "inputs": [
        {
          "indexed": false,
          "internalType": "address",
          "name": "",
          "type": "address"
        },
        {
          "indexed": false,
          "internalType": "address",
          "name": "",
          "type": "address"
        },
        {
          "indexed": false,
          "internalType": "uint256",
          "name": "",
          "type": "uint256"
        }
      ],
      "name": "LogWithdrawal",
      "type": "event"
    },
    {
      "inputs": [
        {
          "internalType": "uint256",
          "name": "tokenId",
          "type": "uint256"
        },
        {
          "internalType": "uint256",
          "name": "auctionId",
          "type": "uint256"
        }
      ],
      "name": "cancelAuction",
      "outputs": [],
      "stateMutability": "nonpayable",
      "type": "function"
    },
    {
      "inputs": [
        {
          "internalType": "uint256",
          "name": "tokenId",
          "type": "uint256"
        },
        {
          "internalType": "uint256",
          "name": "auctionId",
          "type": "uint256"
        }
      ],
      "name": "endBid",
      "outputs": [],
      "stateMutability": "nonpayable",
      "type": "function"
    },
    {
      "inputs": [
        {
          "internalType": "uint256",
          "name": "tokenId",
          "type": "uint256"
        },
        {
          "internalType": "uint256",
          "name": "auctionId",
          "type": "uint256"
        }
      ],
      "name": "getAuctionInfo",
      "outputs": [
        {
          "components": [
            {
              "internalType": "uint256",
              "name": "auctionId",
              "type": "uint256"
            },
            {
              "internalType": "uint256",
              "name": "tokenId",
              "type": "uint256"
            },
            {
              "internalType": "address",
              "name": "owner",
              "type": "address"
            },
            {
              "internalType": "uint256",
              "name": "startBlock",
              "type": "uint256"
            },
            {
              "internalType": "uint256",
              "name": "endBlock",
              "type": "uint256"
            },
            {
              "internalType": "uint256",
              "name": "sellNowPrice",
              "type": "uint256"
            },
            {
              "internalType": "address",
              "name": "highestBidder",
              "type": "address"
            },
            {
              "internalType": "uint256",
              "name": "highestBid",
              "type": "uint256"
            },
            {
              "internalType": "bool",
              "name": "cancelled",
              "type": "bool"
            },
            {
              "internalType": "uint256",
              "name": "minimumBid",
              "type": "uint256"
            }
          ],
          "internalType": "struct Models.AuctionInfo",
          "name": "",
          "type": "tuple"
        }
      ],
      "stateMutability": "view",
      "type": "function"
    },
    {
      "inputs": [
        {
          "internalType": "uint256",
          "name": "tokenId",
          "type": "uint256"
        }
      ],
      "name": "getTokenInfo",
      "outputs": [
        {
          "components": [
            {
              "internalType": "uint256",
              "name": "tokenId",
              "type": "uint256"
            },
            {
              "internalType": "address",
              "name": "owner",
              "type": "address"
            },
            {
              "internalType": "address",
              "name": "contractAddress",
              "type": "address"
            }
          ],
          "internalType": "struct Models.Asset",
          "name": "",
          "type": "tuple"
        }
      ],
      "stateMutability": "view",
      "type": "function"
    },
    {
      "inputs": [
        {
          "internalType": "uint256",
          "name": "tokenId",
          "type": "uint256"
        },
        {
          "internalType": "address",
          "name": "owner",
          "type": "address"
        },
        {
          "internalType": "string",
          "name": "_uri",
          "type": "string"
        },
        {
          "internalType": "string",
          "name": "_name",
          "type": "string"
        },
        {
          "internalType": "string",
          "name": "_symbol",
          "type": "string"
        }
      ],
      "name": "issueToken",
      "outputs": [],
      "stateMutability": "nonpayable",
      "type": "function"
    },
    {
      "inputs": [
        {
          "internalType": "uint256",
          "name": "tokenId",
          "type": "uint256"
        },
        {
          "internalType": "uint256",
          "name": "auctionId",
          "type": "uint256"
        }
      ],
      "name": "placeBid",
      "outputs": [],
      "stateMutability": "payable",
      "type": "function"
    },
    {
      "inputs": [
        {
          "internalType": "uint256",
          "name": "tokenId",
          "type": "uint256"
        },
        {
          "internalType": "uint256",
          "name": "auctionId",
          "type": "uint256"
        }
      ],
      "name": "shouldBeStarted",
      "outputs": [],
      "stateMutability": "view",
      "type": "function"
    },
    {
      "inputs": [
        {
          "internalType": "uint256",
          "name": "tokenId",
          "type": "uint256"
        },
        {
          "internalType": "uint256",
          "name": "auctionId",
          "type": "uint256"
        },
        {
          "internalType": "uint256",
          "name": "startBlock",
          "type": "uint256"
        },
        {
          "internalType": "uint256",
          "name": "endBlock",
          "type": "uint256"
        },
        {
          "internalType": "uint256",
          "name": "sellNowPrice",
          "type": "uint256"
        },
        {
          "internalType": "uint256",
          "name": "minimumBid",
          "type": "uint256"
        }
      ],
      "name": "startAuction",
      "outputs": [],
      "stateMutability": "nonpayable",
      "type": "function"
    },
    {
      "inputs": [
        {
          "internalType": "address",
          "name": "newYasuke",
          "type": "address"
        }
      ],
      "name": "upgrade",
      "outputs": [],
      "stateMutability": "nonpayable",
      "type": "function"
    },
    {
      "inputs": [
        {
          "internalType": "uint256",
          "name": "tokenId",
          "type": "uint256"
        },
        {
          "internalType": "uint256",
          "name": "auctionId",
          "type": "uint256"
        }
      ],
      "name": "withdraw",
      "outputs": [],
      "stateMutability": "nonpayable",
      "type": "function"
    }
  ],
  "bytecode": "0x60806040523480156200001157600080fd5b5060405162005d5e38038062005d5e8339810160408190526200003491620000c2565b600080546001600160a01b03199081163317909155600180546001600160a01b03848116919093161790819055604051633825b60160e11b815291169063704b6c029062000087903090600401620000f2565b600060405180830381600087803b158015620000a257600080fd5b505af1158015620000b7573d6000803e3d6000fd5b505050505062000106565b600060208284031215620000d4578081fd5b81516001600160a01b0381168114620000eb578182fd5b9392505050565b6001600160a01b0391909116815260200190565b615c4880620001166000396000f3fe608060405260043610620000c25760003560e01c806357c90de511620000735780638d8b650111620000555780638d8b650114620001e557806392ba9075146200020a578063bbecae15146200022f57620000c2565b806357c90de5146200019a5780638c7a63ae14620001b157620000c2565b80631edd33d411620000a95780631edd33d41462000113578063441a3e7014620001385780634798c656146200015d57620000c2565b80630900f01014620000c757806316d015aa14620000ee575b600080fd5b348015620000d457600080fd5b50620000ec620000e636600462002905565b62000254565b005b348015620000fb57600080fd5b50620000ec6200010d36600462002ae4565b62000308565b3480156200012057600080fd5b50620000ec6200013236600462002ae4565b6200071b565b3480156200014557600080fd5b50620000ec6200015736600462002ae4565b620007bb565b3480156200016a57600080fd5b50620001826200017c36600462002ae4565b62001522565b60405162000191919062003218565b60405180910390f35b620000ec620001ab36600462002ae4565b620015ed565b348015620001be57600080fd5b50620001d6620001d036600462002a05565b62001e2e565b604051620001919190620031db565b348015620001f257600080fd5b50620000ec6200020436600462002a37565b62002009565b3480156200021757600080fd5b50620000ec6200022936600462002ae4565b62002274565b3480156200023c57600080fd5b50620000ec6200024e36600462002b06565b6200233d565b60005473ffffffffffffffffffffffffffffffffffffffff1633146200027957600080fd5b6001546040517f704b6c0200000000000000000000000000000000000000000000000000000000815273ffffffffffffffffffffffffffffffffffffffff9091169063704b6c0290620002d190849060040162002bd5565b600060405180830381600087803b158015620002ec57600080fd5b505af115801562000301573d6000803e3d6000fd5b5050505050565b6001546040517f5646942500000000000000000000000000000000000000000000000000000000815273ffffffffffffffffffffffffffffffffffffffff9091169063564694259062000362908590859060040162003310565b60206040518083038186803b1580156200037b57600080fd5b505afa15801562000390573d6000803e3d6000fd5b505050506040513d601f19601f82011682018060405250810190620003b6919062002a1e565b431015620003e15760405162461bcd60e51b8152600401620003d890620031a4565b60405180910390fd5b6001546040517f90f7e24c00000000000000000000000000000000000000000000000000000000815273ffffffffffffffffffffffffffffffffffffffff909116906390f7e24c906200043b908590859060040162003310565b60206040518083038186803b1580156200045457600080fd5b505afa15801562000469573d6000803e3d6000fd5b505050506040513d601f19601f820116820180604052508101906200048f919062002a1e565b431115620004b15760405162461bcd60e51b8152600401620003d89062002fb5565b6001546040517f60e6f55200000000000000000000000000000000000000000000000000000000815273ffffffffffffffffffffffffffffffffffffffff909116906360e6f552906200050b908590859060040162003310565b60206040518083038186803b1580156200052457600080fd5b505afa15801562000539573d6000803e3d6000fd5b505050506040513d601f19601f820116820180604052508101906200055f919062002943565b156200057f5760405162461bcd60e51b8152600401620003d89062002f47565b6001546040517ff7336fb100000000000000000000000000000000000000000000000000000000815273ffffffffffffffffffffffffffffffffffffffff9091169063f7336fb190620005d9908590859060040162003310565b60206040518083038186803b158015620005f257600080fd5b505afa15801562000607573d6000803e3d6000fd5b505050506040513d601f19601f820116820180604052508101906200062d919062002943565b6200064c5760405162461bcd60e51b8152600401620003d89062002ed9565b6001546040517fc3c5efaf00000000000000000000000000000000000000000000000000000000815273ffffffffffffffffffffffffffffffffffffffff9091169063c3c5efaf90620006a4908590600401620032a7565b60206040518083038186803b158015620006bd57600080fd5b505afa158015620006d2573d6000803e3d6000fd5b505050506040513d601f19601f82011682018060405250810190620006f8919062002943565b620007175760405162461bcd60e51b8152600401620003d89062002d21565b5050565b62000727828262000308565b6001546040517fbf9fde0300000000000000000000000000000000000000000000000000000000815273ffffffffffffffffffffffffffffffffffffffff9091169063bf9fde0390620007839085908590439060040162003393565b600060405180830381600087803b1580156200079e57600080fd5b505af1158015620007b3573d6000803e3d6000fd5b505050505050565b6001546040517fe4b50cb800000000000000000000000000000000000000000000000000000000815260009173ffffffffffffffffffffffffffffffffffffffff169063e4b50cb89062000814908690600401620032a7565b60206040518083038186803b1580156200082d57600080fd5b505afa15801562000842573d6000803e3d6000fd5b505050506040513d601f19601f8201168201806040525081019062000868919062002924565b6001546040517ff7336fb100000000000000000000000000000000000000000000000000000000815291925073ffffffffffffffffffffffffffffffffffffffff169063f7336fb190620008c3908690869060040162003310565b60206040518083038186803b158015620008dc57600080fd5b505afa158015620008f1573d6000803e3d6000fd5b505050506040513d601f19601f8201168201806040525081019062000917919062002943565b620009365760405162461bcd60e51b8152600401620003d89062002ed9565b6001546040517f90f7e24c00000000000000000000000000000000000000000000000000000000815273ffffffffffffffffffffffffffffffffffffffff909116906390f7e24c9062000990908690869060040162003310565b60206040518083038186803b158015620009a957600080fd5b505afa158015620009be573d6000803e3d6000fd5b505050506040513d601f19601f82011682018060405250810190620009e4919062002a1e565b43118062000a9b57506001546040517f60e6f55200000000000000000000000000000000000000000000000000000000815273ffffffffffffffffffffffffffffffffffffffff909116906360e6f5529062000a47908690869060040162003310565b60206040518083038186803b15801562000a6057600080fd5b505afa15801562000a75573d6000803e3d6000fd5b505050506040513d601f19601f8201168201806040525081019062000a9b919062002943565b62000aba5760405162461bcd60e51b8152600401620003d89062002d58565b6001546040517f60e6f55200000000000000000000000000000000000000000000000000000000815260009173ffffffffffffffffffffffffffffffffffffffff16906360e6f5529062000b15908790879060040162003310565b60206040518083038186803b15801562000b2e57600080fd5b505afa15801562000b43573d6000803e3d6000fd5b505050506040513d601f19601f8201168201806040525081019062000b69919062002943565b905060008273ffffffffffffffffffffffffffffffffffffffff16636352211e866040518263ffffffff1660e01b815260040162000ba89190620032a7565b60206040518083038186803b15801562000bc157600080fd5b505afa15801562000bd6573d6000803e3d6000fd5b505050506040513d601f19601f8201168201806040525081019062000bfc919062002924565b6001546040517f4b4a39b900000000000000000000000000000000000000000000000000000000815291925060009173ffffffffffffffffffffffffffffffffffffffff90911690634b4a39b99062000c5c908990899060040162003310565b60206040518083038186803b15801562000c7557600080fd5b505afa15801562000c8a573d6000803e3d6000fd5b505050506040513d601f19601f8201168201806040525081019062000cb0919062002924565b9050821562000cf2573373ffffffffffffffffffffffffffffffffffffffff8316141562000cf25760405162461bcd60e51b8152600401620003d89062002dfd565b6001546040517fe87e291a00000000000000000000000000000000000000000000000000000000815260009173ffffffffffffffffffffffffffffffffffffffff169063e87e291a9062000d4f908a908a9033906004016200331e565b60206040518083038186803b15801562000d6857600080fd5b505afa15801562000d7d573d6000803e3d6000fd5b505050506040513d601f19601f8201168201806040525081019062000da3919062002a1e565b90503373ffffffffffffffffffffffffffffffffffffffff841681141562000f7e5773ffffffffffffffffffffffffffffffffffffffff831662000dfb5760405162461bcd60e51b8152600401620003d8906200305a565b6001546040517fe1e7cef600000000000000000000000000000000000000000000000000000000815273ffffffffffffffffffffffffffffffffffffffff9091169063e1e7cef69062000e55908b908b9060040162003310565b60206040518083038186803b15801562000e6e57600080fd5b505afa15801562000e83573d6000803e3d6000fd5b505050506040513d601f19601f8201168201806040525081019062000ea9919062002a1e565b6001546040517fe87e291a000000000000000000000000000000000000000000000000000000008152919350839173ffffffffffffffffffffffffffffffffffffffff9091169063e87e291a9062000f0a908c908c9089906004016200331e565b60206040518083038186803b15801562000f2357600080fd5b505afa15801562000f38573d6000803e3d6000fd5b505050506040513d601f19601f8201168201806040525081019062000f5e919062002a1e565b1462000f7e5760405162461bcd60e51b8152600401620003d89062002e34565b60008473ffffffffffffffffffffffffffffffffffffffff168273ffffffffffffffffffffffffffffffffffffffff161415801562000fe957508373ffffffffffffffffffffffffffffffffffffffff168273ffffffffffffffffffffffffffffffffffffffff1614155b156200108c576001546040517f32bdec3000000000000000000000000000000000000000000000000000000000815273ffffffffffffffffffffffffffffffffffffffff909116906332bdec30906200104e908c908c9087906000906004016200334a565b600060405180830381600087803b1580156200106957600080fd5b505af11580156200107e573d6000803e3d6000fd5b505050506001905062001458565b8473ffffffffffffffffffffffffffffffffffffffff168273ffffffffffffffffffffffffffffffffffffffff16141562001120576001546040517f32bdec3000000000000000000000000000000000000000000000000000000000815273ffffffffffffffffffffffffffffffffffffffff909116906332bdec30906200104e908c908c9089906000906004016200334a565b8373ffffffffffffffffffffffffffffffffffffffff168273ffffffffffffffffffffffffffffffffffffffff16141562001458578515620011bb576001546040517f32bdec3000000000000000000000000000000000000000000000000000000000815273ffffffffffffffffffffffffffffffffffffffff909116906332bdec30906200104e908c908c9089906000906004016200334a565b6040517f6352211e00000000000000000000000000000000000000000000000000000000815260009073ffffffffffffffffffffffffffffffffffffffff891690636352211e9062001212908d90600401620032a7565b60206040518083038186803b1580156200122b57600080fd5b505afa15801562001240573d6000803e3d6000fd5b505050506040513d601f19601f8201168201806040525081019062001266919062002924565b6040517fa5b668dc00000000000000000000000000000000000000000000000000000000815290915073ffffffffffffffffffffffffffffffffffffffff89169063a5b668dc90620012c1908d9085908a90600401620032d4565b602060405180830381600087803b158015620012dc57600080fd5b505af1158015620012f1573d6000803e3d6000fd5b505050506040513d601f19601f8201168201806040525081019062001317919062002943565b620013365760405162461bcd60e51b8152600401620003d89062002dc6565b6001546040517f7e3ce5f60000000000000000000000000000000000000000000000000000000081526000935073ffffffffffffffffffffffffffffffffffffffff90911690637e3ce5f69062001394908d90869060040162003300565b600060405180830381600087803b158015620013af57600080fd5b505af1158015620013c4573d6000803e3d6000fd5b50506001546040517f7fd3924700000000000000000000000000000000000000000000000000000000815273ffffffffffffffffffffffffffffffffffffffff9091169250637fd39247915062001422908d908990600401620032b0565b600060405180830381600087803b1580156200143d57600080fd5b505af115801562001452573d6000803e3d6000fd5b50505050505b8015620014da5760008311620014825760405162461bcd60e51b8152600401620003d89062002f7e565b60405160009073ffffffffffffffffffffffffffffffffffffffff84169085156108fc0290869084818181858888f19350505050905080620014d85760405162461bcd60e51b8152600401620003d89062003136565b505b7f0ec497a8ae5b1ba29c60470ef651def995fac3deebbdcc56c47a4e5f51a4c2bd3383856040516200150f9392919062002bf6565b60405180910390a1505050505050505050565b6200152c620027ae565b62001536620027ae565b6001546040517ff941ac8000000000000000000000000000000000000000000000000000000000815273ffffffffffffffffffffffffffffffffffffffff9091169063f941ac809062001590908790879060040162003310565b6101406040518083038186803b158015620015aa57600080fd5b505afa158015620015bf573d6000803e3d6000fd5b505050506040513d601f19601f82011682018060405250810190620015e5919062002960565b949350505050565b6001546040517fe4b50cb800000000000000000000000000000000000000000000000000000000815260009173ffffffffffffffffffffffffffffffffffffffff169063e4b50cb89062001646908690600401620032a7565b60206040518083038186803b1580156200165f57600080fd5b505afa15801562001674573d6000803e3d6000fd5b505050506040513d601f19601f820116820180604052508101906200169a919062002924565b9050620016a8838362000308565b60003411620016cb5760405162461bcd60e51b8152600401620003d89062002d8f565b6040517f6352211e00000000000000000000000000000000000000000000000000000000815273ffffffffffffffffffffffffffffffffffffffff821690636352211e906200171f908690600401620032a7565b60206040518083038186803b1580156200173857600080fd5b505afa1580156200174d573d6000803e3d6000fd5b505050506040513d601f19601f8201168201806040525081019062001773919062002924565b73ffffffffffffffffffffffffffffffffffffffff163373ffffffffffffffffffffffffffffffffffffffff161415620017c15760405162461bcd60e51b8152600401620003d89062002cb3565b6001546040517fe87e291a00000000000000000000000000000000000000000000000000000000815260009173ffffffffffffffffffffffffffffffffffffffff169063e87e291a906200181e908790879033906004016200331e565b60206040518083038186803b1580156200183757600080fd5b505afa1580156200184c573d6000803e3d6000fd5b505050506040513d601f19601f8201168201806040525081019062001872919062002a1e565b6001546040517f1b3a5e3a00000000000000000000000000000000000000000000000000000000815291925060009173ffffffffffffffffffffffffffffffffffffffff90911690631b3a5e3a90620018d2908890889060040162003310565b60206040518083038186803b158015620018eb57600080fd5b505afa15801562001900573d6000803e3d6000fd5b505050506040513d601f19601f8201168201806040525081019062001926919062002a1e565b9050600062001936348462002754565b90508181101580156200194857508115155b1562001a4a576001546040517fbf9fde0300000000000000000000000000000000000000000000000000000000815273ffffffffffffffffffffffffffffffffffffffff9091169063bf9fde0390620019aa9089908990439060040162003393565b600060405180830381600087803b158015620019c557600080fd5b505af1158015620019da573d6000803e3d6000fd5b505050506000620019f583836200278390919063ffffffff16565b9050801562001a4057604051600090339083156108fc0290849084818181858888f1935050505090508062001a3e5760405162461bcd60e51b8152600401620003d89062002fec565b505b8291505062001b19565b6001546040517fe1e7cef600000000000000000000000000000000000000000000000000000000815273ffffffffffffffffffffffffffffffffffffffff9091169063e1e7cef69062001aa4908990899060040162003310565b60206040518083038186803b15801562001abd57600080fd5b505afa15801562001ad2573d6000803e3d6000fd5b505050506040513d601f19601f8201168201806040525081019062001af8919062002a1e565b811162001b195760405162461bcd60e51b8152600401620003d89062002f10565b6001546040517f32bdec3000000000000000000000000000000000000000000000000000000000815273ffffffffffffffffffffffffffffffffffffffff909116906332bdec309062001b779089908990339087906004016200334a565b600060405180830381600087803b15801562001b9257600080fd5b505af115801562001ba7573d6000803e3d6000fd5b50506001546040517f26567db600000000000000000000000000000000000000000000000000000000815273ffffffffffffffffffffffffffffffffffffffff90911692506326567db6915062001c07908990899033906004016200331e565b600060405180830381600087803b15801562001c2257600080fd5b505af115801562001c37573d6000803e3d6000fd5b50506001546040517fd2aa418700000000000000000000000000000000000000000000000000000000815273ffffffffffffffffffffffffffffffffffffffff909116925063d2aa4187915062001c979089908990869060040162003393565b600060405180830381600087803b15801562001cb257600080fd5b505af115801562001cc7573d6000803e3d6000fd5b50506001546040517fb54303b000000000000000000000000000000000000000000000000000000000815273ffffffffffffffffffffffffffffffffffffffff909116925063b54303b0915062001d27908990899033906004016200331e565b600060405180830381600087803b15801562001d4257600080fd5b505af115801562001d57573d6000803e3d6000fd5b50506001546040517f3b667d5e00000000000000000000000000000000000000000000000000000000815273ffffffffffffffffffffffffffffffffffffffff9091169250633b667d5e915062001db79089908990869060040162003393565b600060405180830381600087803b15801562001dd257600080fd5b505af115801562001de7573d6000803e3d6000fd5b505050507f5331b3a4532c2507900f549683f076c051f92222c177b52f82f140d8667d3ebf338260405162001e1e92919062002c27565b60405180910390a1505050505050565b62001e386200282f565b6001546040517fe4b50cb800000000000000000000000000000000000000000000000000000000815260009173ffffffffffffffffffffffffffffffffffffffff169063e4b50cb89062001e91908690600401620032a7565b60206040518083038186803b15801562001eaa57600080fd5b505afa15801562001ebf573d6000803e3d6000fd5b505050506040513d601f19601f8201168201806040525081019062001ee5919062002924565b905073ffffffffffffffffffffffffffffffffffffffff811662001f1d5760405162461bcd60e51b8152600401620003d890620030c8565b62001f276200282f565b60405180606001604052808581526020018373ffffffffffffffffffffffffffffffffffffffff16636352211e876040518263ffffffff1660e01b815260040162001f739190620032a7565b60206040518083038186803b15801562001f8c57600080fd5b505afa15801562001fa1573d6000803e3d6000fd5b505050506040513d601f19601f8201168201806040525081019062001fc7919062002924565b73ffffffffffffffffffffffffffffffffffffffff1681526020018373ffffffffffffffffffffffffffffffffffffffff16815250905080925050505b919050565b60005473ffffffffffffffffffffffffffffffffffffffff163314620020435760405162461bcd60e51b8152600401620003d89062003091565b60008484848460405162002057906200284f565b62002066949392919062002c4d565b604051809103906000f08015801562002083573d6000803e3d6000fd5b506040517fa0712d6800000000000000000000000000000000000000000000000000000000815290915073ffffffffffffffffffffffffffffffffffffffff82169063a0712d6890620020db908990600401620032a7565b602060405180830381600087803b158015620020f657600080fd5b505af11580156200210b573d6000803e3d6000fd5b505050506040513d601f19601f8201168201806040525081019062002131919062002943565b620021505760405162461bcd60e51b8152600401620003d8906200316d565b6001546040517f57016b0a00000000000000000000000000000000000000000000000000000000815273ffffffffffffffffffffffffffffffffffffffff909116906357016b0a90620021aa9089908590600401620032b0565b600060405180830381600087803b158015620021c557600080fd5b505af1158015620021da573d6000803e3d6000fd5b50506001546040517f7fd3924700000000000000000000000000000000000000000000000000000000815273ffffffffffffffffffffffffffffffffffffffff9091169250637fd392479150620022389089908990600401620032b0565b600060405180830381600087803b1580156200225357600080fd5b505af115801562002268573d6000803e3d6000fd5b50505050505050505050565b62002280828262000308565b600180546040517f0d08358b00000000000000000000000000000000000000000000000000000000815273ffffffffffffffffffffffffffffffffffffffff90911691630d08358b91620022dc9186918691906004016200337b565b600060405180830381600087803b158015620022f757600080fd5b505af11580156200230c573d6000803e3d6000fd5b50506040517f462b6ca7f632601af1295aeb320851f50e8e630a309173f23535845ea4bfb3b9925060009150a15050565b6001546040517fe4b50cb800000000000000000000000000000000000000000000000000000000815260009173ffffffffffffffffffffffffffffffffffffffff169063e4b50cb89062002396908a90600401620032a7565b60206040518083038186803b158015620023af57600080fd5b505afa158015620023c4573d6000803e3d6000fd5b505050506040513d601f19601f82011682018060405250810190620023ea919062002924565b6040517f6352211e000000000000000000000000000000000000000000000000000000008152909150339073ffffffffffffffffffffffffffffffffffffffff831690636352211e9062002443908b90600401620032a7565b60206040518083038186803b1580156200245c57600080fd5b505afa15801562002471573d6000803e3d6000fd5b505050506040513d601f19601f8201168201806040525081019062002497919062002924565b73ffffffffffffffffffffffffffffffffffffffff1614620024cd5760405162461bcd60e51b8152600401620003d890620030ff565b6001546040517fc3c5efaf00000000000000000000000000000000000000000000000000000000815273ffffffffffffffffffffffffffffffffffffffff9091169063c3c5efaf9062002525908a90600401620032a7565b60206040518083038186803b1580156200253e57600080fd5b505afa15801562002553573d6000803e3d6000fd5b505050506040513d601f19601f8201168201806040525081019062002579919062002943565b15620025995760405162461bcd60e51b8152600401620003d89062003023565b6001546040517ff7336fb100000000000000000000000000000000000000000000000000000000815273ffffffffffffffffffffffffffffffffffffffff9091169063f7336fb190620025f3908a908a9060040162003310565b60206040518083038186803b1580156200260c57600080fd5b505afa15801562002621573d6000803e3d6000fd5b505050506040513d601f19601f8201168201806040525081019062002647919062002943565b15620026675760405162461bcd60e51b8152600401620003d89062002cea565b62002671620027ae565b506040805161014081018252878152602081018990523381830152606081018790526080810186905260a08101859052600060c0820181905260e08201819052610100820152610120810184905260015491517fb646de70000000000000000000000000000000000000000000000000000000008152909173ffffffffffffffffffffffffffffffffffffffff169063b646de70906200271690849060040162003218565b600060405180830381600087803b1580156200273157600080fd5b505af115801562002746573d6000803e3d6000fd5b505050505050505050505050565b6000828201838110156200277c5760405162461bcd60e51b8152600401620003d89062002e6b565b9392505050565b600082821115620027a85760405162461bcd60e51b8152600401620003d89062002ea2565b50900390565b6040518061014001604052806000815260200160008152602001600073ffffffffffffffffffffffffffffffffffffffff168152602001600081526020016000815260200160008152602001600073ffffffffffffffffffffffffffffffffffffffff16815260200160008152602001600015158152602001600081525090565b604080516060810182526000808252602082018190529181019190915290565b61281e80620033f583390190565b80516200200481620033ce565b805180151581146200200457600080fd5b600082601f8301126200288c578081fd5b813567ffffffffffffffff811115620028a157fe5b620028d460207fffffffffffffffffffffffffffffffffffffffffffffffffffffffffffffffe0601f84011601620033a9565b9150808252836020828501011115620028ec57600080fd5b8060208401602084013760009082016020015292915050565b60006020828403121562002917578081fd5b81356200277c81620033ce565b60006020828403121562002936578081fd5b81516200277c81620033ce565b60006020828403121562002955578081fd5b6200277c826200286a565b600061014080838503121562002974578182fd5b6200297f81620033a9565b905082518152602083015160208201526200299d604084016200285d565b6040820152606083015160608201526080830151608082015260a083015160a0820152620029ce60c084016200285d565b60c082015260e083015160e0820152610100620029ed8185016200286a565b90820152610120928301519281019290925250919050565b60006020828403121562002a17578081fd5b5035919050565b60006020828403121562002a30578081fd5b5051919050565b600080600080600060a0868803121562002a4f578081fd5b85359450602086013562002a6381620033ce565b9350604086013567ffffffffffffffff8082111562002a80578283fd5b62002a8e89838a016200287b565b9450606088013591508082111562002aa4578283fd5b62002ab289838a016200287b565b9350608088013591508082111562002ac8578283fd5b5062002ad7888289016200287b565b9150509295509295909350565b6000806040838503121562002af7578182fd5b50508035926020909101359150565b60008060008060008060c0878903121562002b1f578081fd5b505084359660208601359650604086013595606081013595506080810135945060a0013592509050565b73ffffffffffffffffffffffffffffffffffffffff169052565b15159052565b60008151808452815b8181101562002b905760208185018101518683018201520162002b72565b8181111562002ba25782602083870101525b50601f017fffffffffffffffffffffffffffffffffffffffffffffffffffffffffffffffe0169290920160200192915050565b73ffffffffffffffffffffffffffffffffffffffff91909116815260200190565b73ffffffffffffffffffffffffffffffffffffffff9384168152919092166020820152604081019190915260600190565b73ffffffffffffffffffffffffffffffffffffffff929092168252602082015260400190565b600073ffffffffffffffffffffffffffffffffffffffff861682526080602083015262002c7e608083018662002b69565b828103604084015262002c92818662002b69565b9050828103606084015262002ca8818562002b69565b979650505050505050565b60208082526003908201527f4f43420000000000000000000000000000000000000000000000000000000000604082015260600190565b60208082526003908201527f4141530000000000000000000000000000000000000000000000000000000000604082015260600190565b60208082526004908201527f414e495000000000000000000000000000000000000000000000000000000000604082015260600190565b60208082526003908201527f414e450000000000000000000000000000000000000000000000000000000000604082015260600190565b60208082526004908201527f434e423000000000000000000000000000000000000000000000000000000000604082015260600190565b60208082526004908201527f434e434f00000000000000000000000000000000000000000000000000000000604082015260600190565b60208082526003908201527f4157430000000000000000000000000000000000000000000000000000000000604082015260600190565b60208082526005908201527f4842464157000000000000000000000000000000000000000000000000000000604082015260600190565b6020808252601b908201527f536166654d6174683a206164646974696f6e206f766572666c6f770000000000604082015260600190565b6020808252601e908201527f536166654d6174683a207375627472616374696f6e206f766572666c6f770000604082015260600190565b60208082526003908201527f414e530000000000000000000000000000000000000000000000000000000000604082015260600190565b60208082526003908201527f42544c0000000000000000000000000000000000000000000000000000000000604082015260600190565b60208082526002908201527f4143000000000000000000000000000000000000000000000000000000000000604082015260600190565b60208082526002908201527f5a57000000000000000000000000000000000000000000000000000000000000604082015260600190565b60208082526002908201527f4145000000000000000000000000000000000000000000000000000000000000604082015260600190565b60208082526004908201527f42464d4200000000000000000000000000000000000000000000000000000000604082015260600190565b60208082526003908201527f4149500000000000000000000000000000000000000000000000000000000000604082015260600190565b60208082526004908201527f48424e5a00000000000000000000000000000000000000000000000000000000604082015260600190565b60208082526003908201527f4e414d0000000000000000000000000000000000000000000000000000000000604082015260600190565b60208082526004908201527f54494e4600000000000000000000000000000000000000000000000000000000604082015260600190565b60208082526002908201527f574f000000000000000000000000000000000000000000000000000000000000604082015260600190565b60208082526002908201527f5746000000000000000000000000000000000000000000000000000000000000604082015260600190565b60208082526002908201527f4d46000000000000000000000000000000000000000000000000000000000000604082015260600190565b60208082526003908201527f414e430000000000000000000000000000000000000000000000000000000000604082015260600190565b8151815260208083015173ffffffffffffffffffffffffffffffffffffffff90811691830191909152604092830151169181019190915260600190565b6000610140820190508251825260208301516020830152604083015162003243604084018262002b49565b50606083015160608301526080830151608083015260a083015160a083015260c08301516200327660c084018262002b49565b5060e083015160e083015261010080840151620032968285018262002b63565b505061012092830151919092015290565b90815260200190565b91825273ffffffffffffffffffffffffffffffffffffffff16602082015260400190565b92835273ffffffffffffffffffffffffffffffffffffffff918216602084015216604082015260600190565b9182521515602082015260400190565b918252602082015260400190565b928352602083019190915273ffffffffffffffffffffffffffffffffffffffff16604082015260600190565b938452602084019290925273ffffffffffffffffffffffffffffffffffffffff166040830152606082015260800190565b92835260208301919091521515604082015260600190565b9283526020830191909152604082015260600190565b60405181810167ffffffffffffffff81118282101715620033c657fe5b604052919050565b73ffffffffffffffffffffffffffffffffffffffff81168114620033f157600080fd5b5056fe60806040523480156200001157600080fd5b506040516200281e3803806200281e83398101604081905262000034916200028e565b8181620000486301ffc9a760e01b620000f4565b81516200005d9060069060208501906200014f565b508051620000739060079060208401906200014f565b50620000866380ac58cd60e01b620000f4565b62000098635b5e139f60e01b620000f4565b620000aa63780e9d6360e01b620000f4565b50508251620000c190600c9060208601906200014f565b5050600a80546001600160a01b039094166001600160a01b03199485161790555050600b80549091163317905562000372565b6001600160e01b031980821614156200012a5760405162461bcd60e51b815260040162000121906200033b565b60405180910390fd5b6001600160e01b0319166000908152602081905260409020805460ff19166001179055565b828054600181600116156101000203166002900490600052602060002090601f016020900481019282601f106200019257805160ff1916838001178555620001c2565b82800160010185558215620001c2579182015b82811115620001c2578251825591602001919060010190620001a5565b50620001d0929150620001d4565b5090565b5b80821115620001d05760008155600101620001d5565b600082601f830112620001fc578081fd5b81516001600160401b03808211156200021157fe5b6040516020601f8401601f19168201810183811183821017156200023157fe5b806040525081945083825286818588010111156200024e57600080fd5b600092505b8383101562000272578583018101518284018201529182019162000253565b83831115620002845760008185840101525b5050505092915050565b60008060008060808587031215620002a4578384fd5b84516001600160a01b0381168114620002bb578485fd5b60208601519094506001600160401b0380821115620002d8578485fd5b620002e688838901620001eb565b94506040870151915080821115620002fc578384fd5b6200030a88838901620001eb565b9350606087015191508082111562000320578283fd5b506200032f87828801620001eb565b91505092959194509250565b6020808252601c908201527f4552433136353a20696e76616c696420696e7465726661636520696400000000604082015260600190565b61249c80620003826000396000f3fe608060405234801561001057600080fd5b506004361061016c5760003560e01c80636c0360eb116100cd578063a5b668dc11610081578063c87b56dd11610066578063c87b56dd146102c7578063d44c1a9f146102da578063e985e9c5146102ed5761016c565b8063a5b668dc146102a1578063b88d4fde146102b45761016c565b806395d89b41116100b257806395d89b4114610273578063a0712d681461027b578063a22cb4651461028e5761016c565b80636c0360eb1461025857806370a08231146102605761016c565b806323b872dd1161012457806342842e0e1161010957806342842e0e1461021f5780634f6ccce7146102325780636352211e146102455761016c565b806323b872dd146101f95780632f745c591461020c5761016c565b8063081812fc11610155578063081812fc146101af578063095ea7b3146101cf57806318160ddd146101e45761016c565b806301ffc9a71461017157806306fdde031461019a575b600080fd5b61018461017f366004611c10565b610300565b6040516101919190611d9a565b60405180910390f35b6101a261033b565b6040516101919190611da5565b6101c26101bd366004611c48565b6103ef565b6040516101919190611d30565b6101e26101dd366004611be7565b610462565b005b6101ec610562565b60405161019191906123a8565b6101e2610207366004611a94565b610573565b6101ec61021a366004611be7565b6105c5565b6101e261022d366004611a94565b6105fd565b6101ec610240366004611c48565b610618565b6101c2610253366004611c48565b61062e565b6101a2610656565b6101ec61026e366004611a48565b6106d5565b6101a2610752565b610184610289366004611c48565b6107d1565b6101e261029c366004611bad565b61090f565b6101846102af366004611c60565b610a49565b6101e26102c2366004611acf565b610abc565b6101a26102d5366004611c48565b610b15565b6101e26102e8366004611c48565b610c93565b6101846102fb366004611a62565b610cf1565b7fffffffff00000000000000000000000000000000000000000000000000000000811660009081526020819052604090205460ff165b919050565b60068054604080516020601f60027fffffffffffffffffffffffffffffffffffffffffffffffffffffffffffffffff6101006001881615020190951694909404938401819004810282018101909252828152606093909290918301828280156103e55780601f106103ba576101008083540402835291602001916103e5565b820191906000526020600020905b8154815290600101906020018083116103c857829003601f168201915b5050505050905090565b60006103fa82610d2c565b610439576040517f08c379a000000000000000000000000000000000000000000000000000000000815260040161043090612143565b60405180910390fd5b5060009081526004602052604090205473ffffffffffffffffffffffffffffffffffffffff1690565b600061046d8261062e565b90508073ffffffffffffffffffffffffffffffffffffffff168373ffffffffffffffffffffffffffffffffffffffff1614156104d5576040517f08c379a0000000000000000000000000000000000000000000000000000000008152600401610430906122b7565b8073ffffffffffffffffffffffffffffffffffffffff166104f4610d39565b73ffffffffffffffffffffffffffffffffffffffff16148061051d575061051d816102fb610d39565b610553576040517f08c379a000000000000000000000000000000000000000000000000000000000815260040161043090611ff7565b61055d8383610d3d565b505050565b600061056e6002610ddd565b905090565b61058461057e610d39565b82610de8565b6105ba576040517f08c379a000000000000000000000000000000000000000000000000000000000815260040161043090612314565b61055d838383610ebb565b73ffffffffffffffffffffffffffffffffffffffff821660009081526001602052604081206105f49083611058565b90505b92915050565b61055d83838360405180602001604052806000815250610abc565b600080610626600284611064565b509392505050565b60006105f78260405180606001604052806029815260200161243e6029913960029190611080565b60098054604080516020601f60027fffffffffffffffffffffffffffffffffffffffffffffffffffffffffffffffff6101006001881615020190951694909404938401819004810282018101909252828152606093909290918301828280156103e55780601f106103ba576101008083540402835291602001916103e5565b600073ffffffffffffffffffffffffffffffffffffffff8216610724576040517f08c379a000000000000000000000000000000000000000000000000000000000815260040161043090612054565b73ffffffffffffffffffffffffffffffffffffffff821660009081526001602052604090206105f790610ddd565b60078054604080516020601f60027fffffffffffffffffffffffffffffffffffffffffffffffffffffffffffffffff6101006001881615020190951694909404938401819004810282018101909252828152606093909290918301828280156103e55780601f106103ba576101008083540402835291602001916103e5565b600b5460009073ffffffffffffffffffffffffffffffffffffffff163314610825576040517f08c379a000000000000000000000000000000000000000000000000000000000815260040161043090611ea9565b600a546108489073ffffffffffffffffffffffffffffffffffffffff168361108d565b61085182610c93565b600c805460408051602060026001851615610100027fffffffffffffffffffffffffffffffffffffffffffffffffffffffffffffffff0190941693909304601f8101849004840282018401909252818152610907938693919290918301828280156108fd5780601f106108d2576101008083540402835291602001916108fd565b820191906000526020600020905b8154815290600101906020018083116108e057829003601f168201915b50505050506111ac565b506001919050565b610917610d39565b73ffffffffffffffffffffffffffffffffffffffff168273ffffffffffffffffffffffffffffffffffffffff16141561097c576040517f08c379a000000000000000000000000000000000000000000000000000000000815260040161043090611f63565b8060056000610989610d39565b73ffffffffffffffffffffffffffffffffffffffff90811682526020808301939093526040918201600090812091871680825291909352912080547fffffffffffffffffffffffffffffffffffffffffffffffffffffffffffffff0016921515929092179091556109f8610d39565b73ffffffffffffffffffffffffffffffffffffffff167f17307eab39ab6107e8899845ad3d59bd9653f200f220920489ca2b5937696c3183604051610a3d9190611d9a565b60405180910390a35050565b600b5460009073ffffffffffffffffffffffffffffffffffffffff163314610a9d576040517f08c379a000000000000000000000000000000000000000000000000000000000815260040161043090611ea9565b610aa88383866105fd565b610ab184610c93565b5060015b9392505050565b610acd610ac7610d39565b83610de8565b610b03576040517f08c379a000000000000000000000000000000000000000000000000000000000815260040161043090612314565b610b0f8484848461120a565b50505050565b6060610b2082610d2c565b610b56576040517f08c379a00000000000000000000000000000000000000000000000000000000081526004016104309061225a565b60008281526008602090815260409182902080548351601f60027fffffffffffffffffffffffffffffffffffffffffffffffffffffffffffffffff610100600186161502019093169290920491820184900484028101840190945280845260609392830182828015610c095780601f10610bde57610100808354040283529160200191610c09565b820191906000526020600020905b815481529060010190602001808311610bec57829003601f168201915b505050505090506060610c1a610656565b9050805160001415610c2e57509050610336565b815115610c60578082604051602001610c48929190611d01565b60405160208183030381529060405292505050610336565b80610c6a85611257565b604051602001610c7b929190611d01565b60405160208183030381529060405292505050919050565b600b5473ffffffffffffffffffffffffffffffffffffffff163314610ce4576040517f08c379a000000000000000000000000000000000000000000000000000000000815260040161043090611ea9565b610cee3382610d3d565b50565b73ffffffffffffffffffffffffffffffffffffffff918216600090815260056020908152604080832093909416825291909152205460ff1690565b60006105f7600283611384565b3390565b600081815260046020526040902080547fffffffffffffffffffffffff00000000000000000000000000000000000000001673ffffffffffffffffffffffffffffffffffffffff84169081179091558190610d978261062e565b73ffffffffffffffffffffffffffffffffffffffff167f8c5be1e5ebec7d5bd14f71427d1e84f3dd0314c0f7b2291e5b200ac8c7c3b92560405160405180910390a45050565b60006105f782611390565b6000610df382610d2c565b610e29576040517f08c379a000000000000000000000000000000000000000000000000000000000815260040161043090611f9a565b6000610e348361062e565b90508073ffffffffffffffffffffffffffffffffffffffff168473ffffffffffffffffffffffffffffffffffffffff161480610ea357508373ffffffffffffffffffffffffffffffffffffffff16610e8b846103ef565b73ffffffffffffffffffffffffffffffffffffffff16145b80610eb35750610eb38185610cf1565b949350505050565b8273ffffffffffffffffffffffffffffffffffffffff16610edb8261062e565b73ffffffffffffffffffffffffffffffffffffffff1614610f28576040517f08c379a0000000000000000000000000000000000000000000000000000000008152600401610430906121fd565b73ffffffffffffffffffffffffffffffffffffffff8216610f75576040517f08c379a000000000000000000000000000000000000000000000000000000000815260040161043090611f06565b610f8083838361055d565b610f8b600082610d3d565b73ffffffffffffffffffffffffffffffffffffffff83166000908152600160205260409020610fba9082611394565b5073ffffffffffffffffffffffffffffffffffffffff82166000908152600160205260409020610fea90826113a0565b50610ff7600282846113ac565b50808273ffffffffffffffffffffffffffffffffffffffff168473ffffffffffffffffffffffffffffffffffffffff167fddf252ad1be2c89b69c2b068fc378daa952ba7f163c4a11628f55a4df523b3ef60405160405180910390a4505050565b60006105f483836113cf565b6000808080611073868661142e565b9097909650945050505050565b6000610eb38484846114a4565b73ffffffffffffffffffffffffffffffffffffffff82166110da576040517f08c379a00000000000000000000000000000000000000000000000000000000081526004016104309061210e565b6110e381610d2c565b1561111a576040517f08c379a000000000000000000000000000000000000000000000000000000000815260040161043090611e72565b6111266000838361055d565b73ffffffffffffffffffffffffffffffffffffffff8216600090815260016020526040902061115590826113a0565b50611162600282846113ac565b50604051819073ffffffffffffffffffffffffffffffffffffffff8416906000907fddf252ad1be2c89b69c2b068fc378daa952ba7f163c4a11628f55a4df523b3ef908290a45050565b6111b582610d2c565b6111eb576040517f08c379a0000000000000000000000000000000000000000000000000000000008152600401610430906121a0565b6000828152600860209081526040909120825161055d92840190611991565b611215848484610ebb565b6112218484848461151d565b610b0f576040517f08c379a000000000000000000000000000000000000000000000000000000000815260040161043090611e15565b606081611298575060408051808201909152600181527f30000000000000000000000000000000000000000000000000000000000000006020820152610336565b8160005b81156112b057600101600a8204915061129c565b60608167ffffffffffffffff811180156112c957600080fd5b506040519080825280601f01601f1916602001820160405280156112f4576020820181803683370190505b5085935090507fffffffffffffffffffffffffffffffffffffffffffffffffffffffffffffffff82015b831561137b57600a840660300160f81b8282806001900393508151811061134157fe5b60200101907effffffffffffffffffffffffffffffffffffffffffffffffffffffffffffff1916908160001a905350600a8404935061131e565b50949350505050565b60006105f4838361168a565b5490565b60006105f483836116a2565b60006105f48383611786565b6000610eb3848473ffffffffffffffffffffffffffffffffffffffff85166117d0565b8154600090821061140c576040517f08c379a000000000000000000000000000000000000000000000000000000000815260040161043090611db8565b82600001828154811061141b57fe5b9060005260206000200154905092915050565b81546000908190831061146d576040517f08c379a0000000000000000000000000000000000000000000000000000000008152600401610430906120b1565b600084600001848154811061147e57fe5b906000526020600020906002020190508060000154816001015492509250509250929050565b600082815260018401602052604081205482816114ee576040517f08c379a00000000000000000000000000000000000000000000000000000000081526004016104309190611da5565b5084600001600182038154811061150157fe5b9060005260206000209060020201600101549150509392505050565b600061153e8473ffffffffffffffffffffffffffffffffffffffff16611867565b61154a57506001610eb3565b60606116227f150b7a0200000000000000000000000000000000000000000000000000000000611578610d39565b88878760405160240161158e9493929190611d51565b604051602081830303815290604052907bffffffffffffffffffffffffffffffffffffffffffffffffffffffff19166020820180517bffffffffffffffffffffffffffffffffffffffffffffffffffffffff838183161783525050505060405180606001604052806032815260200161240c6032913973ffffffffffffffffffffffffffffffffffffffff8816919061186d565b905060008180602001905181019061163a9190611c2c565b7fffffffff00000000000000000000000000000000000000000000000000000000167f150b7a02000000000000000000000000000000000000000000000000000000001492505050949350505050565b60009081526001919091016020526040902054151590565b6000818152600183016020526040812054801561177c5783547fffffffffffffffffffffffffffffffffffffffffffffffffffffffffffffffff80830191908101906000908790839081106116f357fe5b906000526020600020015490508087600001848154811061171057fe5b60009182526020808320909101929092558281526001898101909252604090209084019055865487908061174057fe5b600190038181906000526020600020016000905590558660010160008781526020019081526020016000206000905560019450505050506105f7565b60009150506105f7565b6000611792838361168a565b6117c8575081546001818101845560008481526020808220909301849055845484825282860190935260409020919091556105f7565b5060006105f7565b600082815260018401602052604081205480611835575050604080518082018252838152602080820184815286546001818101895560008981528481209551600290930290950191825591519082015586548684528188019092529290912055610ab5565b8285600001600183038154811061184857fe5b9060005260206000209060020201600101819055506000915050610ab5565b3b151590565b6060610eb384846000858561188185611867565b6118b7576040517f08c379a000000000000000000000000000000000000000000000000000000000815260040161043090612371565b600060608673ffffffffffffffffffffffffffffffffffffffff1685876040516118e19190611ce5565b60006040518083038185875af1925050503d806000811461191e576040519150601f19603f3d011682016040523d82523d6000602084013e611923565b606091505b509150915061193382828661193e565b979650505050505050565b6060831561194d575081610ab5565b82511561195d5782518084602001fd5b816040517f08c379a00000000000000000000000000000000000000000000000000000000081526004016104309190611da5565b828054600181600116156101000203166002900490600052602060002090601f016020900481019282601f106119d257805160ff19168380011785556119ff565b828001600101855582156119ff579182015b828111156119ff5782518255916020019190600101906119e4565b50611a0b929150611a0f565b5090565b5b80821115611a0b5760008155600101611a10565b803573ffffffffffffffffffffffffffffffffffffffff8116811461033657600080fd5b600060208284031215611a59578081fd5b6105f482611a24565b60008060408385031215611a74578081fd5b611a7d83611a24565b9150611a8b60208401611a24565b90509250929050565b600080600060608486031215611aa8578081fd5b611ab184611a24565b9250611abf60208501611a24565b9150604084013590509250925092565b60008060008060808587031215611ae4578081fd5b611aed85611a24565b93506020611afc818701611a24565b935060408601359250606086013567ffffffffffffffff80821115611b1f578384fd5b818801915088601f830112611b32578384fd5b813581811115611b3e57fe5b604051847fffffffffffffffffffffffffffffffffffffffffffffffffffffffffffffffe0601f8401168201018181108482111715611b7957fe5b60405281815283820185018b1015611b8f578586fd5b81858501868301379081019093019390935250939692955090935050565b60008060408385031215611bbf578182fd5b611bc883611a24565b915060208301358015158114611bdc578182fd5b809150509250929050565b60008060408385031215611bf9578182fd5b611c0283611a24565b946020939093013593505050565b600060208284031215611c21578081fd5b8135610ab5816123dd565b600060208284031215611c3d578081fd5b8151610ab5816123dd565b600060208284031215611c59578081fd5b5035919050565b600080600060608486031215611c74578283fd5b83359250611c8460208501611a24565b9150611c9260408501611a24565b90509250925092565b60008151808452611cb38160208601602086016123b1565b601f017fffffffffffffffffffffffffffffffffffffffffffffffffffffffffffffffe0169290920160200192915050565b60008251611cf78184602087016123b1565b9190910192915050565b60008351611d138184602088016123b1565b835190830190611d278183602088016123b1565b01949350505050565b73ffffffffffffffffffffffffffffffffffffffff91909116815260200190565b600073ffffffffffffffffffffffffffffffffffffffff808716835280861660208401525083604083015260806060830152611d906080830184611c9b565b9695505050505050565b901515815260200190565b6000602082526105f46020830184611c9b565b60208082526022908201527f456e756d657261626c655365743a20696e646578206f7574206f6620626f756e60408201527f6473000000000000000000000000000000000000000000000000000000000000606082015260800190565b60208082526032908201527f4552433732313a207472616e7366657220746f206e6f6e20455243373231526560408201527f63656976657220696d706c656d656e7465720000000000000000000000000000606082015260800190565b6020808252601c908201527f4552433732313a20746f6b656e20616c7265616479206d696e74656400000000604082015260600190565b60208082526021908201527f4f6e6c792061646d696e2063616e2063616c6c207468697320636f6e7472616360408201527f7400000000000000000000000000000000000000000000000000000000000000606082015260800190565b60208082526024908201527f4552433732313a207472616e7366657220746f20746865207a65726f2061646460408201527f7265737300000000000000000000000000000000000000000000000000000000606082015260800190565b60208082526019908201527f4552433732313a20617070726f766520746f2063616c6c657200000000000000604082015260600190565b6020808252602c908201527f4552433732313a206f70657261746f7220717565727920666f72206e6f6e657860408201527f697374656e7420746f6b656e0000000000000000000000000000000000000000606082015260800190565b60208082526038908201527f4552433732313a20617070726f76652063616c6c6572206973206e6f74206f7760408201527f6e6572206e6f7220617070726f76656420666f7220616c6c0000000000000000606082015260800190565b6020808252602a908201527f4552433732313a2062616c616e636520717565727920666f7220746865207a6560408201527f726f206164647265737300000000000000000000000000000000000000000000606082015260800190565b60208082526022908201527f456e756d657261626c654d61703a20696e646578206f7574206f6620626f756e60408201527f6473000000000000000000000000000000000000000000000000000000000000606082015260800190565b6020808252818101527f4552433732313a206d696e7420746f20746865207a65726f2061646472657373604082015260600190565b6020808252602c908201527f4552433732313a20617070726f76656420717565727920666f72206e6f6e657860408201527f697374656e7420746f6b656e0000000000000000000000000000000000000000606082015260800190565b6020808252602c908201527f4552433732314d657461646174613a2055524920736574206f66206e6f6e657860408201527f697374656e7420746f6b656e0000000000000000000000000000000000000000606082015260800190565b60208082526029908201527f4552433732313a207472616e73666572206f6620746f6b656e2074686174206960408201527f73206e6f74206f776e0000000000000000000000000000000000000000000000606082015260800190565b6020808252602f908201527f4552433732314d657461646174613a2055524920717565727920666f72206e6f60408201527f6e6578697374656e7420746f6b656e0000000000000000000000000000000000606082015260800190565b60208082526021908201527f4552433732313a20617070726f76616c20746f2063757272656e74206f776e6560408201527f7200000000000000000000000000000000000000000000000000000000000000606082015260800190565b60208082526031908201527f4552433732313a207472616e736665722063616c6c6572206973206e6f74206f60408201527f776e6572206e6f7220617070726f766564000000000000000000000000000000606082015260800190565b6020808252601d908201527f416464726573733a2063616c6c20746f206e6f6e2d636f6e7472616374000000604082015260600190565b90815260200190565b60005b838110156123cc5781810151838201526020016123b4565b83811115610b0f5750506000910152565b7fffffffff0000000000000000000000000000000000000000000000000000000081168114610cee57600080fdfe4552433732313a207472616e7366657220746f206e6f6e20455243373231526563656976657220696d706c656d656e7465724552433732313a206f776e657220717565727920666f72206e6f6e6578697374656e7420746f6b656ea264697066735822122008763bd0228f258900e2eb78db31f6980fafe547a7b2eed27e3dbe195d31b6b564736f6c63430007030033a26469706673582212200fd9df055acb7332cca9dbe17ac72f79cdf47fe75b737567d2fc82c81b8ea24c64736f6c63430007030033",
  "linkReferences": {},
  "deployedLinkReferences": {}
}