{
  "_format": "hh-sol-artifact-1",
  "contractName": "Yasuke",
  "sourceName": "contracts/YASUKE.sol",
  "abi": [
    {
      "inputs": [
        {
          "internalType": "address",
          "name": "storeAddress",
          "type": "address"
        }
      ],
      "stateMutability": "nonpayable",
      "type": "constructor"
    },
    {
      "anonymous": false,
      "inputs": [
        {
          "indexed": false,
          "internalType": "address",
          "name": "",
          "type": "address"
        },
        {
          "indexed": false,
          "internalType": "uint256",
          "name": "",
          "type": "uint256"
        }
      ],
      "name": "LogBid",
      "type": "event"
    },
    {
      "anonymous": false,
      "inputs": [],
      "name": "LogCanceled",
      "type": "event"
    },
    {
      "anonymous": false,
      "inputs": [
        {
          "indexed": false,
          "internalType": "address",
          "name": "",
          "type": "address"
        },
        {
          "indexed": false,
          "internalType": "uint256",
          "name": "",
          "type": "uint256"
        },
        {
          "indexed": false,
          "internalType": "uint256",
          "name": "",
          "type": "uint256"
        }
      ],
      "name": "LogWithdrawal",
      "type": "event"
    },
    {
      "inputs": [
        {
          "internalType": "uint256",
          "name": "tokenId",
          "type": "uint256"
        },
        {
          "internalType": "uint256",
          "name": "auctionId",
          "type": "uint256"
        }
      ],
      "name": "cancelAuction",
      "outputs": [],
      "stateMutability": "nonpayable",
      "type": "function"
    },
    {
      "inputs": [
        {
          "internalType": "uint256",
          "name": "tokenId",
          "type": "uint256"
        },
        {
          "internalType": "uint256",
          "name": "auctionId",
          "type": "uint256"
        }
      ],
      "name": "endBid",
      "outputs": [],
      "stateMutability": "nonpayable",
      "type": "function"
    },
    {
      "inputs": [
        {
          "internalType": "uint256",
          "name": "tokenId",
          "type": "uint256"
        },
        {
          "internalType": "uint256",
          "name": "auctionId",
          "type": "uint256"
        }
      ],
      "name": "getAuctionInfo",
      "outputs": [
        {
          "components": [
            {
              "internalType": "uint256",
              "name": "auctionId",
              "type": "uint256"
            },
            {
              "internalType": "uint256",
              "name": "tokenId",
              "type": "uint256"
            },
            {
              "internalType": "address",
              "name": "owner",
              "type": "address"
            },
            {
              "internalType": "uint256",
              "name": "startBlock",
              "type": "uint256"
            },
            {
              "internalType": "uint256",
              "name": "endBlock",
              "type": "uint256"
            },
            {
              "internalType": "uint256",
              "name": "currentBlock",
              "type": "uint256"
            },
            {
              "internalType": "uint256",
              "name": "sellNowPrice",
              "type": "uint256"
            },
            {
              "internalType": "address",
              "name": "highestBidder",
              "type": "address"
            },
            {
              "internalType": "uint256",
              "name": "highestBid",
              "type": "uint256"
            },
            {
              "internalType": "bool",
              "name": "cancelled",
              "type": "bool"
            },
            {
              "internalType": "uint256",
              "name": "minimumBid",
              "type": "uint256"
            },
            {
              "internalType": "address[]",
              "name": "bidders",
              "type": "address[]"
            },
            {
              "internalType": "uint256[]",
              "name": "bids",
              "type": "uint256[]"
            },
            {
              "internalType": "bool",
              "name": "started",
              "type": "bool"
            },
            {
              "internalType": "bool",
              "name": "finished",
              "type": "bool"
            },
            {
              "internalType": "bool",
              "name": "sellNowTriggered",
              "type": "bool"
            }
          ],
          "internalType": "struct Models.AuctionInfo",
          "name": "",
          "type": "tuple"
        }
      ],
      "stateMutability": "view",
      "type": "function"
    },
    {
      "inputs": [
        {
          "internalType": "uint256",
          "name": "tokenId",
          "type": "uint256"
        }
      ],
      "name": "getTokenInfo",
      "outputs": [
        {
          "components": [
            {
              "internalType": "uint256",
              "name": "tokenId",
              "type": "uint256"
            },
            {
              "internalType": "address",
              "name": "owner",
              "type": "address"
            },
            {
              "internalType": "address",
              "name": "issuer",
              "type": "address"
            },
            {
              "internalType": "address",
              "name": "contractAddress",
              "type": "address"
            },
            {
              "internalType": "string",
              "name": "symbol",
              "type": "string"
            },
            {
              "internalType": "string",
              "name": "name",
              "type": "string"
            }
          ],
          "internalType": "struct Models.Asset",
          "name": "",
          "type": "tuple"
        }
      ],
      "stateMutability": "view",
      "type": "function"
    },
    {
      "inputs": [
        {
          "internalType": "uint256",
          "name": "tokenId",
          "type": "uint256"
        },
        {
          "internalType": "address payable",
          "name": "owner",
          "type": "address"
        },
        {
          "internalType": "string",
          "name": "_uri",
          "type": "string"
        },
        {
          "internalType": "string",
          "name": "_name",
          "type": "string"
        },
        {
          "internalType": "string",
          "name": "_symbol",
          "type": "string"
        }
      ],
      "name": "issueToken",
      "outputs": [],
      "stateMutability": "nonpayable",
      "type": "function"
    },
    {
      "inputs": [
        {
          "internalType": "uint256",
          "name": "tokenId",
          "type": "uint256"
        },
        {
          "internalType": "uint256",
          "name": "auctionId",
          "type": "uint256"
        }
      ],
      "name": "placeBid",
      "outputs": [],
      "stateMutability": "payable",
      "type": "function"
    },
    {
      "inputs": [
        {
          "internalType": "uint256",
          "name": "tokenId",
          "type": "uint256"
        },
        {
          "internalType": "uint256",
          "name": "auctionId",
          "type": "uint256"
        }
      ],
      "name": "shouldBeStarted",
      "outputs": [],
      "stateMutability": "view",
      "type": "function"
    },
    {
      "inputs": [
        {
          "internalType": "uint256",
          "name": "tokenId",
          "type": "uint256"
        },
        {
          "internalType": "uint256",
          "name": "auctionId",
          "type": "uint256"
        },
        {
          "internalType": "uint256",
          "name": "startBlock",
          "type": "uint256"
        },
        {
          "internalType": "uint256",
          "name": "endBlock",
          "type": "uint256"
        },
        {
          "internalType": "uint256",
          "name": "currentBlock",
          "type": "uint256"
        },
        {
          "internalType": "uint256",
          "name": "sellNowPrice",
          "type": "uint256"
        },
        {
          "internalType": "uint256",
          "name": "minimumBid",
          "type": "uint256"
        }
      ],
      "name": "startAuction",
      "outputs": [],
      "stateMutability": "nonpayable",
      "type": "function"
    },
    {
      "inputs": [],
      "name": "testUpgrade",
      "outputs": [
        {
          "internalType": "address",
          "name": "",
          "type": "address"
        },
        {
          "internalType": "address",
          "name": "",
          "type": "address"
        }
      ],
      "stateMutability": "view",
      "type": "function"
    },
    {
      "inputs": [
        {
          "internalType": "uint256",
          "name": "tokenId",
          "type": "uint256"
        },
        {
          "internalType": "uint256",
          "name": "auctionId",
          "type": "uint256"
        }
      ],
      "name": "withdraw",
      "outputs": [],
      "stateMutability": "nonpayable",
      "type": "function"
    }
  ],
  "bytecode": "0x60806040523480156200001157600080fd5b5060405162005c7938038062005c7983398101604081905262000034916200017c565b60008054336001600160a01b031991821617909155600180549091166001600160a01b03831617905560408051808201909152601181527021b0b63634b7339029b2ba1020b236b4b760791b6020808301919091526200009e91906200010d811b6200225117901c565b60015460405163c55b6bb760e01b81526001600160a01b039091169063c55b6bb790620000d29030903390600401620001ac565b600060405180830381600087803b158015620000ed57600080fd5b505af115801562000102573d6000803e3d6000fd5b50505050506200021c565b6200015881604051602401620001249190620001c6565b60408051601f198184030181529190526020810180516001600160e01b0390811663104c13eb60e21b179091526200015b16565b50565b80516a636f6e736f6c652e6c6f67602083016000808483855afa5050505050565b6000602082840312156200018e578081fd5b81516001600160a01b0381168114620001a5578182fd5b9392505050565b6001600160a01b0392831681529116602082015260400190565b6000602080835283518082850152825b81811015620001f457858101830151858201604001528201620001d6565b81811115620002065783604083870101525b50601f01601f1916929092016040019392505050565b615a4d806200022c6000396000f3fe6080604052600436106200009e5760003560e01c80638c7a63ae11620000615780638c7a63ae14620001685780638d8b6501146200019c57806392ba907514620001c15780639d6aed0b14620001e6578063b6756642146200020e576200009e565b806316d015aa14620000a35780631edd33d414620000ca578063441a3e7014620000ef5780634798c656146200011457806357c90de51462000151575b600080fd5b348015620000b057600080fd5b50620000c8620000c236600462003102565b62000233565b005b348015620000d757600080fd5b50620000c8620000e936600462003102565b62000588565b348015620000fc57600080fd5b50620000c86200010e36600462003102565b62000602565b3480156200012157600080fd5b50620001396200013336600462003102565b62000e0b565b604051620001489190620036e8565b60405180910390f35b620000c86200016236600462003102565b62000eb5565b3480156200017557600080fd5b506200018d6200018736600462003023565b620015fd565b60405162000148919062003673565b348015620001a957600080fd5b50620000c8620001bb36600462003055565b620018f9565b348015620001ce57600080fd5b50620000c8620001e036600462003102565b62001ab8565b348015620001f357600080fd5b50620001fe62001bf4565b60405162000148929190620032bc565b3480156200021b57600080fd5b50620000c86200022d36600462003124565b62001dbc565b600154604051635646942560e01b81526001600160a01b039091169063564694259062000267908590859060040162003863565b60206040518083038186803b1580156200028057600080fd5b505afa15801562000295573d6000803e3d6000fd5b505050506040513d601f19601f82011682018060405250810190620002bb91906200303c565b431015620002e65760405162461bcd60e51b8152600401620002dd9062003637565b60405180910390fd5b60015460405163243df89360e21b81526001600160a01b03909116906390f7e24c906200031a908590859060040162003863565b60206040518083038186803b1580156200033357600080fd5b505afa15801562000348573d6000803e3d6000fd5b505050506040513d601f19601f820116820180604052508101906200036e91906200303c565b431115620003905760405162461bcd60e51b8152600401620002dd906200352f565b6001546040516330737aa960e11b81526001600160a01b03909116906360e6f55290620003c4908590859060040162003863565b60206040518083038186803b158015620003dd57600080fd5b505afa158015620003f2573d6000803e3d6000fd5b505050506040513d601f19601f8201168201806040525081019062000418919062002e19565b15620004385760405162461bcd60e51b8152600401620002dd90620034d2565b60015460405163f7336fb160e01b81526001600160a01b039091169063f7336fb1906200046c908590859060040162003863565b60206040518083038186803b1580156200048557600080fd5b505afa1580156200049a573d6000803e3d6000fd5b505050506040513d601f19601f82011682018060405250810190620004c0919062002e19565b620004df5760405162461bcd60e51b8152600401620002dd906200347c565b60015460405163c3c5efaf60e01b81526001600160a01b039091169063c3c5efaf906200051190859060040162003814565b60206040518083038186803b1580156200052a57600080fd5b505afa1580156200053f573d6000803e3d6000fd5b505050506040513d601f19601f8201168201806040525081019062000565919062002e19565b620005845760405162461bcd60e51b8152600401620002dd9062003325565b5050565b62000594828262000233565b60015460405163bf9fde0360e01b81526001600160a01b039091169063bf9fde0390620005ca90859085904390600401620038a8565b600060405180830381600087803b158015620005e557600080fd5b505af1158015620005fa573d6000803e3d6000fd5b505050505050565b600154604051631c96a19760e31b81526000916001600160a01b03169063e4b50cb8906200063590869060040162003814565b60206040518083038186803b1580156200064e57600080fd5b505afa15801562000663573d6000803e3d6000fd5b505050506040513d601f19601f8201168201806040525081019062000689919062002d84565b60015460405163f7336fb160e01b81529192506001600160a01b03169063f7336fb190620006be908690869060040162003863565b60206040518083038186803b158015620006d757600080fd5b505afa158015620006ec573d6000803e3d6000fd5b505050506040513d601f19601f8201168201806040525081019062000712919062002e19565b620007315760405162461bcd60e51b8152600401620002dd9062003427565b60015460405163243df89360e21b81526001600160a01b03909116906390f7e24c9062000765908690869060040162003863565b60206040518083038186803b1580156200077e57600080fd5b505afa15801562000793573d6000803e3d6000fd5b505050506040513d601f19601f82011682018060405250810190620007b991906200303c565b4311806200084a57506001546040516330737aa960e11b81526001600160a01b03909116906360e6f55290620007f6908690869060040162003863565b60206040518083038186803b1580156200080f57600080fd5b505afa15801562000824573d6000803e3d6000fd5b505050506040513d601f19601f820116820180604052508101906200084a919062002e19565b620008695760405162461bcd60e51b8152600401620002dd9062003343565b6001546040516330737aa960e11b81526000916001600160a01b0316906360e6f552906200089e908790879060040162003863565b60206040518083038186803b158015620008b757600080fd5b505afa158015620008cc573d6000803e3d6000fd5b505050506040513d601f19601f82011682018060405250810190620008f2919062002e19565b90506000826001600160a01b0316636352211e866040518263ffffffff1660e01b815260040162000924919062003814565b60206040518083038186803b1580156200093d57600080fd5b505afa15801562000952573d6000803e3d6000fd5b505050506040513d601f19601f8201168201806040525081019062000978919062002d84565b600154604051634b4a39b960e01b81529192506000916001600160a01b0390911690634b4a39b990620009b2908990899060040162003863565b60206040518083038186803b158015620009cb57600080fd5b505afa158015620009e0573d6000803e3d6000fd5b505050506040513d601f19601f8201168201806040525081019062000a06919062002d84565b6001546040516370f3e77b60e11b81529192506000916001600160a01b039091169063e1e7cef69062000a40908a908a9060040162003863565b60206040518083038186803b15801562000a5957600080fd5b505afa15801562000a6e573d6000803e3d6000fd5b505050506040513d601f19601f8201168201806040525081019062000a9491906200303c565b9050831562000ac957336001600160a01b038416141562000ac95760405162461bcd60e51b8152600401620002dd906200339c565b336001600160a01b038416141562000aed5762000ae787876200229b565b62000dc5565b336001600160a01b038316141562000dc55760405163296d9a3760e21b81526001600160a01b0386169063a5b668dc9062000b31908a908790879060040162003834565b602060405180830381600087803b15801562000b4c57600080fd5b505af115801562000b61573d6000803e3d6000fd5b505050506040513d601f19601f8201168201806040525081019062000b87919062002e19565b62000ba65760405162461bcd60e51b8152600401620002dd906200337e565b62000bb287876200229b565b600154604051633f1e72fb60e11b81526001600160a01b0390911690637e3ce5f69062000be7908a9060009060040162003853565b600060405180830381600087803b15801562000c0257600080fd5b505af115801562000c17573d6000803e3d6000fd5b5050600154604051637fd3924760e01b81526001600160a01b039091169250637fd39247915062000c4f908a9086906004016200381d565b600060405180830381600087803b15801562000c6a57600080fd5b505af115801562000c7f573d6000803e3d6000fd5b505060015460405163191d469360e31b81526001600160a01b03909116925063c8ea3498915062000cba908a908a9060009060040162003890565b600060405180830381600087803b15801562000cd557600080fd5b505af115801562000cea573d6000803e3d6000fd5b505060015460405163132b3edb60e11b81526001600160a01b0390911692506326567db6915062000d25908a908a9060009060040162003871565b600060405180830381600087803b15801562000d4057600080fd5b505af115801562000d55573d6000803e3d6000fd5b505060015460405163d2aa418760e01b81526001600160a01b03909116925063d2aa4187915062000d90908a908a90600090600401620038a8565b600060405180830381600087803b15801562000dab57600080fd5b505af115801562000dc0573d6000803e3d6000fd5b505050505b7ff9226daf630542048a23086c6af599511aac100ec8f532793cc9697d061bed7e33888860405162000dfa939291906200329b565b60405180910390a150505050505050565b62000e1562002b37565b62000e1f62002b37565b6001546040516301f2835960e71b81526001600160a01b039091169063f941ac809062000e53908790879060040162003863565b60006040518083038186803b15801562000e6c57600080fd5b505afa15801562000e81573d6000803e3d6000fd5b505050506040513d6000823e601f3d908101601f1916820160405262000eab919081019062002eb2565b9150505b92915050565b600154604051631c96a19760e31b81526000916001600160a01b03169063e4b50cb89062000ee890869060040162003814565b60206040518083038186803b15801562000f0157600080fd5b505afa15801562000f16573d6000803e3d6000fd5b505050506040513d601f19601f8201168201806040525081019062000f3c919062002d84565b905062000f4a838362000233565b6000341162000f6d5760405162461bcd60e51b8152600401620002dd9062003360565b6040516331a9108f60e11b81526001600160a01b03821690636352211e9062000f9b90869060040162003814565b60206040518083038186803b15801562000fb457600080fd5b505afa15801562000fc9573d6000803e3d6000fd5b505050506040513d601f19601f8201168201806040525081019062000fef919062002d84565b6001600160a01b0316336001600160a01b03161415620010235760405162461bcd60e51b8152600401620002dd90620032eb565b600154604051630d9d2f1d60e11b81526000916001600160a01b031690631b3a5e3a9062001058908790879060040162003863565b60206040518083038186803b1580156200107157600080fd5b505afa15801562001086573d6000803e3d6000fd5b505050506040513d601f19601f82011682018060405250810190620010ac91906200303c565b905034818110801590620010bf57508115155b15620012055760015460405163bf9fde0360e01b81526001600160a01b039091169063bf9fde0390620010fb90889088904390600401620038a8565b600060405180830381600087803b1580156200111657600080fd5b505af11580156200112b573d6000803e3d6000fd5b50505050600062001146838362002a4690919063ffffffff16565b905080156200119157604051600090339083156108fc0290849084818181858888f193505050509050806200118f5760405162461bcd60e51b8152600401620002dd906200354b565b505b600180546040516345db891160e11b81528594506001600160a01b0390911691638bb7122291620011ca918a918a919060040162003890565b600060405180830381600087803b158015620011e557600080fd5b505af1158015620011fa573d6000803e3d6000fd5b5050505050620012ae565b6001546040516370f3e77b60e11b81526001600160a01b039091169063e1e7cef69062001239908890889060040162003863565b60206040518083038186803b1580156200125257600080fd5b505afa15801562001267573d6000803e3d6000fd5b505050506040513d601f19601f820116820180604052508101906200128d91906200303c565b8111620012ae5760405162461bcd60e51b8152600401620002dd90620034b5565b600154604051634b4a39b960e01b81526000916001600160a01b031690634b4a39b990620012e3908990899060040162003863565b60206040518083038186803b158015620012fc57600080fd5b505afa15801562001311573d6000803e3d6000fd5b505050506040513d601f19601f8201168201806040525081019062001337919062002d84565b6001546040516370f3e77b60e11b81529192506000916001600160a01b039091169063e1e7cef69062001371908a908a9060040162003863565b60206040518083038186803b1580156200138a57600080fd5b505afa1580156200139f573d6000803e3d6000fd5b505050506040513d601f19601f82011682018060405250810190620013c591906200303c565b90506001600160a01b0382161562001422576040516000906001600160a01b0384169083156108fc0290849084818181858888f19350505050905080620014205760405162461bcd60e51b8152600401620002dd90620035c0565b505b60015460405163132b3edb60e11b81526001600160a01b03909116906326567db69062001458908a908a90339060040162003871565b600060405180830381600087803b1580156200147357600080fd5b505af115801562001488573d6000803e3d6000fd5b505060015460405163d2aa418760e01b81526001600160a01b03909116925063d2aa41879150620014c2908a908a908890600401620038a8565b600060405180830381600087803b158015620014dd57600080fd5b505af1158015620014f2573d6000803e3d6000fd5b5050600154604051630b54303b60e41b81526001600160a01b03909116925063b54303b091506200152c908a908a90339060040162003871565b600060405180830381600087803b1580156200154757600080fd5b505af11580156200155c573d6000803e3d6000fd5b5050600154604051631db33eaf60e11b81526001600160a01b039091169250633b667d5e915062001596908a908a908890600401620038a8565b600060405180830381600087803b158015620015b157600080fd5b505af1158015620015c6573d6000803e3d6000fd5b505050507f5331b3a4532c2507900f549683f076c051f92222c177b52f82f140d8667d3ebf338460405162000dfa92919062003282565b6200160762002bce565b600154604051631c96a19760e31b81526000916001600160a01b03169063e4b50cb8906200163a90869060040162003814565b60206040518083038186803b1580156200165357600080fd5b505afa15801562001668573d6000803e3d6000fd5b505050506040513d601f19601f820116820180604052508101906200168e919062002d84565b90506001600160a01b038116620016b95760405162461bcd60e51b8152600401620002dd9062003586565b620016c362002bce565b6040518060c00160405280858152602001836001600160a01b0316636352211e876040518263ffffffff1660e01b815260040162001702919062003814565b60206040518083038186803b1580156200171b57600080fd5b505afa15801562001730573d6000803e3d6000fd5b505050506040513d601f19601f8201168201806040525081019062001756919062002d84565b6001600160a01b03168152602001836001600160a01b031663525564216040518163ffffffff1660e01b815260040160206040518083038186803b1580156200179e57600080fd5b505afa158015620017b3573d6000803e3d6000fd5b505050506040513d601f19601f82011682018060405250810190620017d9919062002d84565b6001600160a01b03168152602001836001600160a01b03168152602001836001600160a01b03166306fdde036040518163ffffffff1660e01b815260040160006040518083038186803b1580156200183057600080fd5b505afa15801562001845573d6000803e3d6000fd5b505050506040513d6000823e601f3d908101601f191682016040526200186f919081019062002e36565b8152602001836001600160a01b03166395d89b416040518163ffffffff1660e01b815260040160006040518083038186803b158015620018ae57600080fd5b505afa158015620018c3573d6000803e3d6000fd5b505050506040513d6000823e601f3d908101601f19168201604052620018ed919081019062002e36565b9052925050505b919050565b6000848484846040516200190d9062002c1f565b6200191c949392919062003227565b604051809103906000f08015801562001939573d6000803e3d6000fd5b5060405163140e25ad60e31b81529091506001600160a01b0382169063a0712d68906200196b90899060040162003814565b602060405180830381600087803b1580156200198657600080fd5b505af11580156200199b573d6000803e3d6000fd5b505050506040513d601f19601f82011682018060405250810190620019c1919062002e19565b620019e05760405162461bcd60e51b8152600401620002dd906200361b565b600154604051632b80b58560e11b81526001600160a01b03909116906357016b0a9062001a1490899085906004016200381d565b600060405180830381600087803b15801562001a2f57600080fd5b505af115801562001a44573d6000803e3d6000fd5b5050600154604051637fd3924760e01b81526001600160a01b039091169250637fd39247915062001a7c90899089906004016200381d565b600060405180830381600087803b15801562001a9757600080fd5b505af115801562001aac573d6000803e3d6000fd5b50505050505050505050565b62001ac4828262000233565b600154604051634328a71360e11b81526000916001600160a01b0316906386514e269062001af9908690869060040162003863565b60006040518083038186803b15801562001b1257600080fd5b505afa15801562001b27573d6000803e3d6000fd5b505050506040513d6000823e601f3d908101601f1916820160405262001b51919081019062002de2565b511162001b5d57600080fd5b60018054604051630d08358b60e01b81526001600160a01b0390911691630d08358b9162001b9391869186919060040162003890565b600060405180830381600087803b15801562001bae57600080fd5b505af115801562001bc3573d6000803e3d6000fd5b50506040517f462b6ca7f632601af1295aeb320851f50e8e630a309173f23535845ea4bfb3b9925060009150a15050565b600080600160009054906101000a90046001600160a01b03166001600160a01b03166329f4acb06040518163ffffffff1660e01b815260040160206040518083038186803b15801562001c4657600080fd5b505afa15801562001c5b573d6000803e3d6000fd5b505050506040513d601f19601f8201168201806040525081019062001c81919062002e19565b62001ca05760405162461bcd60e51b8152600401620002dd9062003499565b600160009054906101000a90046001600160a01b03166001600160a01b0316636e9960c36040518163ffffffff1660e01b815260040160206040518083038186803b15801562001cef57600080fd5b505afa15801562001d04573d6000803e3d6000fd5b505050506040513d601f19601f8201168201806040525081019062001d2a919062002d84565b600160009054906101000a90046001600160a01b03166001600160a01b03166380f760216040518163ffffffff1660e01b815260040160206040518083038186803b15801562001d7957600080fd5b505afa15801562001d8e573d6000803e3d6000fd5b505050506040513d601f19601f8201168201806040525081019062001db4919062002d84565b915091509091565b600154604051631c96a19760e31b81526000916001600160a01b03169063e4b50cb89062001def908b9060040162003814565b60206040518083038186803b15801562001e0857600080fd5b505afa15801562001e1d573d6000803e3d6000fd5b505050506040513d601f19601f8201168201806040525081019062001e43919062002d84565b6040516331a9108f60e11b815290915033906001600160a01b03831690636352211e9062001e76908c9060040162003814565b60206040518083038186803b15801562001e8f57600080fd5b505afa15801562001ea4573d6000803e3d6000fd5b505050506040513d601f19601f8201168201806040525081019062001eca919062002d84565b6001600160a01b03161462001ef35760405162461bcd60e51b8152600401620002dd90620035a4565b60015460405163c3c5efaf60e01b81526001600160a01b039091169063c3c5efaf9062001f25908b9060040162003814565b60206040518083038186803b15801562001f3e57600080fd5b505afa15801562001f53573d6000803e3d6000fd5b505050506040513d601f19601f8201168201806040525081019062001f79919062002e19565b1562001f995760405162461bcd60e51b8152600401620002dd9062003569565b60015460405163f7336fb160e01b81526001600160a01b039091169063f7336fb19062001fcd908b908b9060040162003863565b60206040518083038186803b15801562001fe657600080fd5b505afa15801562001ffb573d6000803e3d6000fd5b505050506040513d601f19601f8201168201806040525081019062002021919062002e19565b15620020415760405162461bcd60e51b8152600401620002dd9062003308565b6200204b62002b37565b6040805161020081018252898152602081018b90523381830152606081018990526080810188905260a0810187905260c08101869052600060e08201819052610100820181905261012082015261014081018590526001549151631150516160e31b815290916101608301916001600160a01b0390911690638a828b0890620020db908e908e9060040162003863565b60006040518083038186803b158015620020f457600080fd5b505afa15801562002109573d6000803e3d6000fd5b505050506040513d6000823e601f3d908101601f1916820160405262002133919081019062002da3565b8152600154604051634328a71360e11b81526020909201916001600160a01b03909116906386514e26906200216f908e908e9060040162003863565b60006040518083038186803b1580156200218857600080fd5b505afa1580156200219d573d6000803e3d6000fd5b505050506040513d6000823e601f3d908101601f19168201604052620021c7919081019062002de2565b815260016020820181905260006040808401829052606090930152549051639057c06360e01b81529192506001600160a01b031690639057c0639062002212908490600401620036e8565b600060405180830381600087803b1580156200222d57600080fd5b505af115801562002242573d6000803e3d6000fd5b50505050505050505050505050565b6200229881604051602401620022689190620032d6565b60408051601f198184030181529190526020810180516001600160e01b031663104c13eb60e21b17905262002a71565b50565b600154604051631c96a19760e31b81526000916001600160a01b03169063e4b50cb890620022ce90869060040162003814565b60206040518083038186803b158015620022e757600080fd5b505afa158015620022fc573d6000803e3d6000fd5b505050506040513d601f19601f8201168201806040525081019062002322919062002d84565b90506000816001600160a01b0316636352211e856040518263ffffffff1660e01b815260040162002354919062003814565b60206040518083038186803b1580156200236d57600080fd5b505afa15801562002382573d6000803e3d6000fd5b505050506040513d601f19601f82011682018060405250810190620023a8919062002d84565b600154604051634b4a39b960e01b81529192506000916001600160a01b0390911690634b4a39b990620023e2908890889060040162003863565b60206040518083038186803b158015620023fb57600080fd5b505afa15801562002410573d6000803e3d6000fd5b505050506040513d601f19601f8201168201806040525081019062002436919062002d84565b6001546040516370f3e77b60e11b81529192506000916001600160a01b039091169063e1e7cef69062002470908990899060040162003863565b60206040518083038186803b1580156200248957600080fd5b505afa1580156200249e573d6000803e3d6000fd5b505050506040513d601f19601f82011682018060405250810190620024c491906200303c565b905080620024d6575050505062000584565b60015460405163d2aa418760e01b81526001600160a01b039091169063d2aa4187906200250d9089908990600090600401620038a8565b600060405180830381600087803b1580156200252857600080fd5b505af11580156200253d573d6000803e3d6000fd5b505050506000600160009054906101000a90046001600160a01b03166001600160a01b031663e16d536c6040518163ffffffff1660e01b815260040160206040518083038186803b1580156200259257600080fd5b505afa158015620025a7573d6000803e3d6000fd5b505050506040513d601f19601f82011682018060405250810190620025cd91906200303c565b90506000600160009054906101000a90046001600160a01b03166001600160a01b031663c8f77edf6040518163ffffffff1660e01b815260040160206040518083038186803b1580156200262057600080fd5b505afa15801562002635573d6000803e3d6000fd5b505050506040513d601f19601f820116820180604052508101906200265b91906200303c565b9050846001600160a01b0316866001600160a01b031663525564216040518163ffffffff1660e01b815260040160206040518083038186803b158015620026a157600080fd5b505afa158015620026b6573d6000803e3d6000fd5b505050506040513d601f19601f82011682018060405250810190620026dc919062002d84565b6001600160a01b0316141562002807576001546040805163c8f77edf60e01b8152905162002800926001600160a01b03169163c8f77edf916004808301926020929190829003018186803b1580156200273457600080fd5b505afa15801562002749573d6000803e3d6000fd5b505050506040513d601f19601f820116820180604052508101906200276f91906200303c565b600160009054906101000a90046001600160a01b03166001600160a01b031663e16d536c6040518163ffffffff1660e01b815260040160206040518083038186803b158015620027be57600080fd5b505afa158015620027d3573d6000803e3d6000fd5b505050506040513d601f19601f82011682018060405250810190620027f991906200303c565b9062002a92565b9150600090505b60006200282260646200281b858762002ac1565b9062002b01565b905060006200283860646200281b858862002ac1565b905062002852816200284b878562002a46565b9062002a46565b945080156200291d576000886001600160a01b031663525564216040518163ffffffff1660e01b815260040160206040518083038186803b1580156200289757600080fd5b505afa158015620028ac573d6000803e3d6000fd5b505050506040513d601f19601f82011682018060405250810190620028d2919062002d84565b6001600160a01b03166108fc839081150290604051600060405180830381858888f193505050509050806200291b5760405162461bcd60e51b8152600401620002dd9062003654565b505b8115620029f057600154604080516355eb3d8560e11b815290516000926001600160a01b03169163abd67b0a916004808301926020929190829003018186803b1580156200296a57600080fd5b505afa1580156200297f573d6000803e3d6000fd5b505050506040513d601f19601f82011682018060405250810190620029a5919062002d84565b6001600160a01b03166108fc849081150290604051600060405180830381858888f19350505050905080620029ee5760405162461bcd60e51b8152600401620002dd90620035fa565b505b6040516000906001600160a01b0389169087156108fc0290889084818181858888f1935050505090508062002a395760405162461bcd60e51b8152600401620002dd90620035de565b5050505050505050505050565b60008282111562002a6b5760405162461bcd60e51b8152600401620002dd90620033f0565b50900390565b80516a636f6e736f6c652e6c6f67602083016000808483855afa5050505050565b60008282018381101562002aba5760405162461bcd60e51b8152600401620002dd90620033b9565b9392505050565b60008262002ad25750600062000eaf565b8282028284828162002ae057fe5b041462002aba5760405162461bcd60e51b8152600401620002dd90620034ee565b600080821162002b255760405162461bcd60e51b8152600401620002dd9062003445565b81838162002b2f57fe5b049392505050565b604051806102000160405280600081526020016000815260200160006001600160a01b031681526020016000815260200160008152602001600081526020016000815260200160006001600160a01b03168152602001600081526020016000151581526020016000815260200160608152602001606081526020016000151581526020016000151581526020016000151581525090565b6040518060c001604052806000815260200160006001600160a01b0316815260200160006001600160a01b0316815260200160006001600160a01b0316815260200160608152602001606081525090565b6120a9806200396f83390190565b8051620018f48162003958565b600082601f83011262002c4b578081fd5b815162002c6262002c5c82620038e3565b620038be565b81815291506020808301908481018184028601820187101562002c8457600080fd5b60005b8481101562002cb057815162002c9d8162003958565b8452928201929082019060010162002c87565b505050505092915050565b600082601f83011262002ccc578081fd5b815162002cdd62002c5c82620038e3565b81815291506020808301908481018184028601820187101562002cff57600080fd5b60005b8481101562002cb05781518452928201929082019060010162002d02565b80518015158114620018f457600080fd5b600082601f83011262002d42578081fd5b813562002d5362002c5c8262003902565b915080825283602082850101111562002d6b57600080fd5b8060208401602084013760009082016020015292915050565b60006020828403121562002d96578081fd5b815162002aba8162003958565b60006020828403121562002db5578081fd5b815167ffffffffffffffff81111562002dcc578182fd5b62002dda8482850162002c3a565b949350505050565b60006020828403121562002df4578081fd5b815167ffffffffffffffff81111562002e0b578182fd5b62002dda8482850162002cbb565b60006020828403121562002e2b578081fd5b62002aba8262002d20565b60006020828403121562002e48578081fd5b815167ffffffffffffffff81111562002e5f578182fd5b8201601f8101841362002e70578182fd5b805162002e8162002c5c8262003902565b81815285602083850101111562002e96578384fd5b62002ea982602083016020860162003925565b95945050505050565b60006020828403121562002ec4578081fd5b815167ffffffffffffffff8082111562002edc578283fd5b818401915061020080838703121562002ef3578384fd5b62002efe81620038be565b9050825181526020830151602082015262002f1c6040840162002c2d565b6040820152606083015160608201526080830151608082015260a083015160a082015260c083015160c082015262002f5760e0840162002c2d565b60e0820152610100838101519082015261012062002f7781850162002d20565b908201526101408381015190820152610160808401518381111562002f9a578586fd5b62002fa88882870162002c3a565b828401525050610180808401518381111562002fc2578586fd5b62002fd08882870162002cbb565b8284015250506101a0915062002fe882840162002d20565b828201526101c0915062002ffe82840162002d20565b828201526101e091506200301482840162002d20565b91810191909152949350505050565b60006020828403121562003035578081fd5b5035919050565b6000602082840312156200304e578081fd5b5051919050565b600080600080600060a086880312156200306d578081fd5b853594506020860135620030818162003958565b9350604086013567ffffffffffffffff808211156200309e578283fd5b620030ac89838a0162002d31565b94506060880135915080821115620030c2578283fd5b620030d089838a0162002d31565b93506080880135915080821115620030e6578283fd5b50620030f58882890162002d31565b9150509295509295909350565b6000806040838503121562003115578182fd5b50508035926020909101359150565b600080600080600080600060e0888a0312156200313f578485fd5b505085359760208701359750604087013596606081013596506080810135955060a0810135945060c0013592509050565b6001600160a01b03169052565b6000815180845260208085019450808401835b83811015620031b75781516001600160a01b03168752958201959082019060010162003190565b509495945050505050565b6000815180845260208085019450808401835b83811015620031b757815187529582019590820190600101620031d5565b15159052565b600081518084526200321381602086016020860162003925565b601f01601f19169290920160200192915050565b6001600160a01b03851681526080602082018190526000906200324d90830186620031f9565b8281036040840152620032618186620031f9565b90508281036060840152620032778185620031f9565b979650505050505050565b6001600160a01b03929092168252602082015260400190565b6001600160a01b039390931683526020830191909152604082015260600190565b6001600160a01b0392831681529116602082015260400190565b60006020825262002aba6020830184620031f9565b60208082526003908201526227a1a160e91b604082015260600190565b60208082526003908201526241415360e81b604082015260600190565b6020808252600490820152630414e49560e41b604082015260600190565b602080825260039082015262414e4560e81b604082015260600190565b6020808252600490820152630434e42360e41b604082015260600190565b602080825260049082015263434e434f60e01b604082015260600190565b60208082526003908201526241574360e81b604082015260600190565b6020808252601b908201527f536166654d6174683a206164646974696f6e206f766572666c6f770000000000604082015260600190565b6020808252601e908201527f536166654d6174683a207375627472616374696f6e206f766572666c6f770000604082015260600190565b60208082526004908201526342414e5360e01b604082015260600190565b6020808252601a908201527f536166654d6174683a206469766973696f6e206279207a65726f000000000000604082015260600190565b602080825260039082015262414e5360e81b604082015260600190565b6020808252600290820152612aa360f11b604082015260600190565b60208082526003908201526210951360ea1b604082015260600190565b602080825260029082015261414360f01b604082015260600190565b60208082526021908201527f536166654d6174683a206d756c7469706c69636174696f6e206f766572666c6f6040820152607760f81b606082015260800190565b602080825260029082015261414560f01b604082015260600190565b602080825260049082015263212326a160e11b604082015260600190565b60208082526003908201526204149560ec1b604082015260600190565b6020808252600490820152632a24a72360e11b604082015260600190565b602080825260029082015261574f60f01b604082015260600190565b6020808252600490820152632421292360e11b604082015260600190565b6020808252600290820152612ba360f11b604082015260600190565b60208082526007908201526610d394d516139160ca1b604082015260600190565b60208082526002908201526126a360f11b604082015260600190565b602080825260039082015262414e4360e81b604082015260600190565b602080825260059082015264434e53544960d81b604082015260600190565b60006020825282516020830152602083015160018060a01b0380821660408501528060408601511660608501528060608601511660808501525050608083015160c060a0840152620036c960e0840182620031f9565b905060a0840151601f198483030160c085015262002ea98282620031f9565b6000602082528251602083015260208301516040830152604083015162003713606084018262003170565b5060608301516080830152608083015160a083015260a083015160c083015260c083015160e083015260e0830151610100620037528185018362003170565b8401516101208481019190915284015190506101406200377581850183620031f3565b8401516101608481019190915284015161020061018080860182905291925090620037a56102208601846200317d565b92508086015190506101a0601f198685030181870152620037c78483620031c2565b9350808701519150506101c0620037e181870183620031f3565b86015190506101e0620037f786820183620031f3565b86015190506200380a85830182620031f3565b5090949350505050565b90815260200190565b9182526001600160a01b0316602082015260400190565b9283526001600160a01b03918216602084015216604082015260600190565b9182521515602082015260400190565b918252602082015260400190565b92835260208301919091526001600160a01b0316604082015260600190565b92835260208301919091521515604082015260600190565b9283526020830191909152604082015260600190565b60405181810167ffffffffffffffff81118282101715620038db57fe5b604052919050565b600067ffffffffffffffff821115620038f857fe5b5060209081020190565b600067ffffffffffffffff8211156200391757fe5b50601f01601f191660200190565b60005b838110156200394257818101518382015260200162003928565b8381111562003952576000848401525b50505050565b6001600160a01b03811681146200229857600080fdfe60806040523480156200001157600080fd5b50604051620020a9380380620020a983398101604081905262000034916200029b565b8181620000486301ffc9a760e01b62000101565b81516200005d9060069060208501906200015c565b508051620000739060079060208401906200015c565b50620000866380ac58cd60e01b62000101565b62000098635b5e139f60e01b62000101565b620000aa63780e9d6360e01b62000101565b50508251620000c190600d9060208601906200015c565b5050600a80546001600160a01b039094166001600160a01b03199485168117909155600b8054851690911790555050600c8054909116331790556200037f565b6001600160e01b03198082161415620001375760405162461bcd60e51b81526004016200012e9062000348565b60405180910390fd5b6001600160e01b0319166000908152602081905260409020805460ff19166001179055565b828054600181600116156101000203166002900490600052602060002090601f016020900481019282601f106200019f57805160ff1916838001178555620001cf565b82800160010185558215620001cf579182015b82811115620001cf578251825591602001919060010190620001b2565b50620001dd929150620001e1565b5090565b5b80821115620001dd5760008155600101620001e2565b600082601f83011262000209578081fd5b81516001600160401b03808211156200021e57fe5b6040516020601f8401601f19168201810183811183821017156200023e57fe5b806040525081945083825286818588010111156200025b57600080fd5b600092505b838310156200027f578583018101518284018201529182019162000260565b83831115620002915760008185840101525b5050505092915050565b60008060008060808587031215620002b1578384fd5b84516001600160a01b0381168114620002c8578485fd5b60208601519094506001600160401b0380821115620002e5578485fd5b620002f388838901620001f8565b9450604087015191508082111562000309578384fd5b6200031788838901620001f8565b935060608701519150808211156200032d578283fd5b506200033c87828801620001f8565b91505092959194509250565b6020808252601c908201527f4552433136353a20696e76616c696420696e7465726661636520696400000000604082015260600190565b611d1a806200038f6000396000f3fe608060405234801561001057600080fd5b50600436106101375760003560e01c80636352211e116100b8578063a22cb4651161007c578063a22cb46514610261578063a5b668dc14610274578063b88d4fde14610287578063c87b56dd1461029a578063d44c1a9f146102ad578063e985e9c5146102c057610137565b80636352211e146102185780636c0360eb1461022b57806370a082311461023357806395d89b4114610246578063a0712d681461024e57610137565b806323b872dd116100ff57806323b872dd146101c45780632f745c59146101d757806342842e0e146101ea5780634f6ccce7146101fd578063525564211461021057610137565b806301ffc9a71461013c57806306fdde0314610165578063081812fc1461017a578063095ea7b31461019a57806318160ddd146101af575b600080fd5b61014f61014a3660046115e3565b6102d3565b60405161015c9190611736565b60405180910390f35b61016d6102f6565b60405161015c9190611741565b61018d61018836600461161b565b61038c565b60405161015c91906116e5565b6101ad6101a83660046115ba565b6103d8565b005b6101b7610470565b60405161015c9190611c3e565b6101ad6101d2366004611485565b610481565b6101b76101e53660046115ba565b6104b9565b6101ad6101f8366004611485565b6104e4565b6101b761020b36600461161b565b6104ff565b61018d610515565b61018d61022636600461161b565b610524565b61016d61054c565b6101b7610241366004611439565b6105ad565b61016d6105f6565b61014f61025c36600461161b565b610657565b6101ad61026f366004611580565b610743565b61014f610282366004611633565b610811565b6101ad6102953660046114c0565b610878565b61016d6102a836600461161b565b6108b7565b6101ad6102bb36600461161b565b6109fd565b61014f6102ce366004611453565b610a34565b6001600160e01b0319811660009081526020819052604090205460ff165b919050565b60068054604080516020601f60026000196101006001881615020190951694909404938401819004810282018101909252828152606093909290918301828280156103825780601f1061035757610100808354040283529160200191610382565b820191906000526020600020905b81548152906001019060200180831161036557829003601f168201915b5050505050905090565b600061039782610a62565b6103bc5760405162461bcd60e51b81526004016103b390611a45565b60405180910390fd5b506000908152600460205260409020546001600160a01b031690565b60006103e382610524565b9050806001600160a01b0316836001600160a01b031614156104175760405162461bcd60e51b81526004016103b390611b75565b806001600160a01b0316610429610a6f565b6001600160a01b031614806104455750610445816102ce610a6f565b6104615760405162461bcd60e51b81526004016103b390611927565b61046b8383610a73565b505050565b600061047c6002610ae1565b905090565b61049261048c610a6f565b82610aec565b6104ae5760405162461bcd60e51b81526004016103b390611bb6565b61046b838383610b71565b6001600160a01b03821660009081526001602052604081206104db9083610c7f565b90505b92915050565b61046b83838360405180602001604052806000815250610878565b60008061050d600284610c8b565b509392505050565b600b546001600160a01b031690565b60006104de82604051806060016040528060298152602001611cbc6029913960029190610ca7565b60098054604080516020601f60026000196101006001881615020190951694909404938401819004810282018101909252828152606093909290918301828280156103825780601f1061035757610100808354040283529160200191610382565b60006001600160a01b0382166105d55760405162461bcd60e51b81526004016103b390611984565b6001600160a01b03821660009081526001602052604090206104de90610ae1565b60078054604080516020601f60026000196101006001881615020190951694909404938401819004810282018101909252828152606093909290918301828280156103825780601f1061035757610100808354040283529160200191610382565b600c546000906001600160a01b031633146106845760405162461bcd60e51b81526004016103b39061181f565b600a5461069a906001600160a01b031683610cb4565b6106a3826109fd565b600d805460408051602060026001851615610100026000190190941693909304601f810184900484028201840190925281815261073b938693919290918301828280156107315780601f1061070657610100808354040283529160200191610731565b820191906000526020600020905b81548152906001019060200180831161071457829003601f168201915b5050505050610d78565b506001919050565b61074b610a6f565b6001600160a01b0316826001600160a01b0316141561077c5760405162461bcd60e51b81526004016103b3906118a4565b8060056000610789610a6f565b6001600160a01b03908116825260208083019390935260409182016000908120918716808252919093529120805460ff1916921515929092179091556107cd610a6f565b6001600160a01b03167f17307eab39ab6107e8899845ad3d59bd9653f200f220920489ca2b5937696c31836040516108059190611736565b60405180910390a35050565b600c546000906001600160a01b0316331461083e5760405162461bcd60e51b81526004016103b39061181f565b6108498383866104e4565b610852846109fd565b50600a80546001600160a01b0319166001600160a01b03831617905560015b9392505050565b610889610883610a6f565b83610aec565b6108a55760405162461bcd60e51b81526004016103b390611bb6565b6108b184848484610dbc565b50505050565b60606108c282610a62565b6108de5760405162461bcd60e51b81526004016103b390611b26565b60008281526008602090815260409182902080548351601f60026000196101006001861615020190931692909204918201849004840281018401909452808452606093928301828280156109735780601f1061094857610100808354040283529160200191610973565b820191906000526020600020905b81548152906001019060200180831161095657829003601f168201915b50505050509050606061098461054c565b9050805160001415610998575090506102f1565b8151156109ca5780826040516020016109b29291906116b6565b604051602081830303815290604052925050506102f1565b806109d485610def565b6040516020016109e59291906116b6565b60405160208183030381529060405292505050919050565b600c546001600160a01b03163314610a275760405162461bcd60e51b81526004016103b39061181f565b610a313382610a73565b50565b6001600160a01b03918216600090815260056020908152604080832093909416825291909152205460ff1690565b60006104de600283610eca565b3390565b600081815260046020526040902080546001600160a01b0319166001600160a01b0384169081179091558190610aa882610524565b6001600160a01b03167f8c5be1e5ebec7d5bd14f71427d1e84f3dd0314c0f7b2291e5b200ac8c7c3b92560405160405180910390a45050565b60006104de82610ed6565b6000610af782610a62565b610b135760405162461bcd60e51b81526004016103b3906118db565b6000610b1e83610524565b9050806001600160a01b0316846001600160a01b03161480610b595750836001600160a01b0316610b4e8461038c565b6001600160a01b0316145b80610b695750610b698185610a34565b949350505050565b826001600160a01b0316610b8482610524565b6001600160a01b031614610baa5760405162461bcd60e51b81526004016103b390611add565b6001600160a01b038216610bd05760405162461bcd60e51b81526004016103b390611860565b610bdb83838361046b565b610be6600082610a73565b6001600160a01b0383166000908152600160205260409020610c089082610eda565b506001600160a01b0382166000908152600160205260409020610c2b9082610ee6565b50610c3860028284610ef2565b5080826001600160a01b0316846001600160a01b03167fddf252ad1be2c89b69c2b068fc378daa952ba7f163c4a11628f55a4df523b3ef60405160405180910390a4505050565b60006104db8383610f08565b6000808080610c9a8686610f4d565b9097909650945050505050565b6000610b69848484610fa9565b6001600160a01b038216610cda5760405162461bcd60e51b81526004016103b390611a10565b610ce381610a62565b15610d005760405162461bcd60e51b81526004016103b3906117e8565b610d0c6000838361046b565b6001600160a01b0382166000908152600160205260409020610d2e9082610ee6565b50610d3b60028284610ef2565b5060405181906001600160a01b038416906000907fddf252ad1be2c89b69c2b068fc378daa952ba7f163c4a11628f55a4df523b3ef908290a45050565b610d8182610a62565b610d9d5760405162461bcd60e51b81526004016103b390611a91565b6000828152600860209081526040909120825161046b9284019061138f565b610dc7848484610b71565b610dd384848484611008565b6108b15760405162461bcd60e51b81526004016103b390611796565b606081610e1457506040805180820190915260018152600360fc1b60208201526102f1565b8160005b8115610e2c57600101600a82049150610e18565b60608167ffffffffffffffff81118015610e4557600080fd5b506040519080825280601f01601f191660200182016040528015610e70576020820181803683370190505b50859350905060001982015b8315610ec157600a840660300160f81b82828060019003935081518110610e9f57fe5b60200101906001600160f81b031916908160001a905350600a84049350610e7c565b50949350505050565b60006104db83836110e7565b5490565b60006104db83836110ff565b60006104db83836111c5565b6000610b6984846001600160a01b03851661120f565b81546000908210610f2b5760405162461bcd60e51b81526004016103b390611754565b826000018281548110610f3a57fe5b9060005260206000200154905092915050565b815460009081908310610f725760405162461bcd60e51b81526004016103b3906119ce565b6000846000018481548110610f8357fe5b906000526020600020906002020190508060000154816001015492509250509250929050565b60008281526001840160205260408120548281610fd95760405162461bcd60e51b81526004016103b39190611741565b50846000016001820381548110610fec57fe5b9060005260206000209060020201600101549150509392505050565b600061101c846001600160a01b03166112a6565b61102857506001610b69565b60606110b0630a85bd0160e11b61103d610a6f565b88878760405160240161105394939291906116f9565b604051602081830303815290604052906001600160e01b0319166020820180516001600160e01b038381831617835250505050604051806060016040528060328152602001611c8a603291396001600160a01b03881691906112ac565b90506000818060200190518101906110c891906115ff565b6001600160e01b031916630a85bd0160e11b1492505050949350505050565b60009081526001919091016020526040902054151590565b600081815260018301602052604081205480156111bb578354600019808301919081019060009087908390811061113257fe5b906000526020600020015490508087600001848154811061114f57fe5b60009182526020808320909101929092558281526001898101909252604090209084019055865487908061117f57fe5b600190038181906000526020600020016000905590558660010160008781526020019081526020016000206000905560019450505050506104de565b60009150506104de565b60006111d183836110e7565b611207575081546001818101845560008481526020808220909301849055845484825282860190935260409020919091556104de565b5060006104de565b600082815260018401602052604081205480611274575050604080518082018252838152602080820184815286546001818101895560008981528481209551600290930290950191825591519082015586548684528188019092529290912055610871565b8285600001600183038154811061128757fe5b9060005260206000209060020201600101819055506000915050610871565b3b151590565b6060610b698484600085856112c0856112a6565b6112dc5760405162461bcd60e51b81526004016103b390611c07565b60006060866001600160a01b031685876040516112f9919061169a565b60006040518083038185875af1925050503d8060008114611336576040519150601f19603f3d011682016040523d82523d6000602084013e61133b565b606091505b509150915061134b828286611356565b979650505050505050565b60608315611365575081610871565b8251156113755782518084602001fd5b8160405162461bcd60e51b81526004016103b39190611741565b828054600181600116156101000203166002900490600052602060002090601f016020900481019282601f106113d057805160ff19168380011785556113fd565b828001600101855582156113fd579182015b828111156113fd5782518255916020019190600101906113e2565b5061140992915061140d565b5090565b5b80821115611409576000815560010161140e565b80356001600160a01b03811681146102f157600080fd5b60006020828403121561144a578081fd5b6104db82611422565b60008060408385031215611465578081fd5b61146e83611422565b915061147c60208401611422565b90509250929050565b600080600060608486031215611499578081fd5b6114a284611422565b92506114b060208501611422565b9150604084013590509250925092565b600080600080608085870312156114d5578081fd5b6114de85611422565b935060206114ed818701611422565b935060408601359250606086013567ffffffffffffffff80821115611510578384fd5b818801915088601f830112611523578384fd5b81358181111561152f57fe5b604051601f8201601f191681018501838111828210171561154c57fe5b60405281815283820185018b1015611562578586fd5b81858501868301379081019093019390935250939692955090935050565b60008060408385031215611592578182fd5b61159b83611422565b9150602083013580151581146115af578182fd5b809150509250929050565b600080604083850312156115cc578182fd5b6115d583611422565b946020939093013593505050565b6000602082840312156115f4578081fd5b813561087181611c73565b600060208284031215611610578081fd5b815161087181611c73565b60006020828403121561162c578081fd5b5035919050565b600080600060608486031215611647578283fd5b8335925061165760208501611422565b915061166560408501611422565b90509250925092565b60008151808452611686816020860160208601611c47565b601f01601f19169290920160200192915050565b600082516116ac818460208701611c47565b9190910192915050565b600083516116c8818460208801611c47565b8351908301906116dc818360208801611c47565b01949350505050565b6001600160a01b0391909116815260200190565b6001600160a01b038581168252841660208201526040810183905260806060820181905260009061172c9083018461166e565b9695505050505050565b901515815260200190565b6000602082526104db602083018461166e565b60208082526022908201527f456e756d657261626c655365743a20696e646578206f7574206f6620626f756e604082015261647360f01b606082015260800190565b60208082526032908201527f4552433732313a207472616e7366657220746f206e6f6e20455243373231526560408201527131b2b4bb32b91034b6b83632b6b2b73a32b960711b606082015260800190565b6020808252601c908201527f4552433732313a20746f6b656e20616c7265616479206d696e74656400000000604082015260600190565b60208082526021908201527f4f6e6c792061646d696e2063616e2063616c6c207468697320636f6e747261636040820152601d60fa1b606082015260800190565b60208082526024908201527f4552433732313a207472616e7366657220746f20746865207a65726f206164646040820152637265737360e01b606082015260800190565b60208082526019908201527f4552433732313a20617070726f766520746f2063616c6c657200000000000000604082015260600190565b6020808252602c908201527f4552433732313a206f70657261746f7220717565727920666f72206e6f6e657860408201526b34b9ba32b73a103a37b5b2b760a11b606082015260800190565b60208082526038908201527f4552433732313a20617070726f76652063616c6c6572206973206e6f74206f7760408201527f6e6572206e6f7220617070726f76656420666f7220616c6c0000000000000000606082015260800190565b6020808252602a908201527f4552433732313a2062616c616e636520717565727920666f7220746865207a65604082015269726f206164647265737360b01b606082015260800190565b60208082526022908201527f456e756d657261626c654d61703a20696e646578206f7574206f6620626f756e604082015261647360f01b606082015260800190565b6020808252818101527f4552433732313a206d696e7420746f20746865207a65726f2061646472657373604082015260600190565b6020808252602c908201527f4552433732313a20617070726f76656420717565727920666f72206e6f6e657860408201526b34b9ba32b73a103a37b5b2b760a11b606082015260800190565b6020808252602c908201527f4552433732314d657461646174613a2055524920736574206f66206e6f6e657860408201526b34b9ba32b73a103a37b5b2b760a11b606082015260800190565b60208082526029908201527f4552433732313a207472616e73666572206f6620746f6b656e2074686174206960408201526839903737ba1037bbb760b91b606082015260800190565b6020808252602f908201527f4552433732314d657461646174613a2055524920717565727920666f72206e6f60408201526e3732bc34b9ba32b73a103a37b5b2b760891b606082015260800190565b60208082526021908201527f4552433732313a20617070726f76616c20746f2063757272656e74206f776e656040820152603960f91b606082015260800190565b60208082526031908201527f4552433732313a207472616e736665722063616c6c6572206973206e6f74206f6040820152701ddb995c881b9bdc88185c1c1c9bdd9959607a1b606082015260800190565b6020808252601d908201527f416464726573733a2063616c6c20746f206e6f6e2d636f6e7472616374000000604082015260600190565b90815260200190565b60005b83811015611c62578181015183820152602001611c4a565b838111156108b15750506000910152565b6001600160e01b031981168114610a3157600080fdfe4552433732313a207472616e7366657220746f206e6f6e20455243373231526563656976657220696d706c656d656e7465724552433732313a206f776e657220717565727920666f72206e6f6e6578697374656e7420746f6b656ea264697066735822122093611c37ac37fef9021ac57d69103e07ac333bb67e19478df978db084852539e64736f6c63430007030033a2646970667358221220e4ed15ef3556f7275e8881db466b9ce6f86045972f3e58d2042900a6503d406564736f6c63430007030033",
  "linkReferences": {},
  "deployedLinkReferences": {}
}