{
  "_format": "hh-sol-artifact-1",
  "contractName": "Yasuke",
  "sourceName": "contracts/YASUKE.sol",
  "abi": [
    {
      "inputs": [
        {
          "internalType": "address",
          "name": "storeAddress",
          "type": "address"
        }
      ],
      "stateMutability": "nonpayable",
      "type": "constructor"
    },
    {
      "anonymous": false,
      "inputs": [
        {
          "indexed": false,
          "internalType": "address",
          "name": "",
          "type": "address"
        },
        {
          "indexed": false,
          "internalType": "uint256",
          "name": "",
          "type": "uint256"
        }
      ],
      "name": "LogBid",
      "type": "event"
    },
    {
      "anonymous": false,
      "inputs": [],
      "name": "LogCanceled",
      "type": "event"
    },
    {
      "anonymous": false,
      "inputs": [
        {
          "indexed": false,
          "internalType": "address",
          "name": "",
          "type": "address"
        },
        {
          "indexed": false,
          "internalType": "address",
          "name": "",
          "type": "address"
        },
        {
          "indexed": false,
          "internalType": "uint256",
          "name": "",
          "type": "uint256"
        }
      ],
      "name": "LogWithdrawal",
      "type": "event"
    },
    {
      "inputs": [
        {
          "internalType": "uint256",
          "name": "tokenId",
          "type": "uint256"
        },
        {
          "internalType": "uint256",
          "name": "auctionId",
          "type": "uint256"
        }
      ],
      "name": "cancelAuction",
      "outputs": [],
      "stateMutability": "nonpayable",
      "type": "function"
    },
    {
      "inputs": [
        {
          "internalType": "uint256",
          "name": "tokenId",
          "type": "uint256"
        },
        {
          "internalType": "uint256",
          "name": "auctionId",
          "type": "uint256"
        }
      ],
      "name": "endBid",
      "outputs": [],
      "stateMutability": "nonpayable",
      "type": "function"
    },
    {
      "inputs": [
        {
          "internalType": "uint256",
          "name": "tokenId",
          "type": "uint256"
        },
        {
          "internalType": "uint256",
          "name": "auctionId",
          "type": "uint256"
        }
      ],
      "name": "getAuctionInfo",
      "outputs": [
        {
          "components": [
            {
              "internalType": "uint256",
              "name": "auctionId",
              "type": "uint256"
            },
            {
              "internalType": "uint256",
              "name": "tokenId",
              "type": "uint256"
            },
            {
              "internalType": "address",
              "name": "owner",
              "type": "address"
            },
            {
              "internalType": "uint256",
              "name": "startBlock",
              "type": "uint256"
            },
            {
              "internalType": "uint256",
              "name": "endBlock",
              "type": "uint256"
            },
            {
              "internalType": "uint256",
              "name": "sellNowPrice",
              "type": "uint256"
            },
            {
              "internalType": "address",
              "name": "highestBidder",
              "type": "address"
            },
            {
              "internalType": "uint256",
              "name": "highestBid",
              "type": "uint256"
            },
            {
              "internalType": "bool",
              "name": "cancelled",
              "type": "bool"
            },
            {
              "internalType": "uint256",
              "name": "minimumBid",
              "type": "uint256"
            },
            {
              "internalType": "address[]",
              "name": "bidders",
              "type": "address[]"
            },
            {
              "internalType": "uint256[]",
              "name": "bids",
              "type": "uint256[]"
            }
          ],
          "internalType": "struct Models.AuctionInfo",
          "name": "",
          "type": "tuple"
        }
      ],
      "stateMutability": "view",
      "type": "function"
    },
    {
      "inputs": [
        {
          "internalType": "uint256",
          "name": "tokenId",
          "type": "uint256"
        }
      ],
      "name": "getTokenInfo",
      "outputs": [
        {
          "components": [
            {
              "internalType": "uint256",
              "name": "tokenId",
              "type": "uint256"
            },
            {
              "internalType": "address",
              "name": "owner",
              "type": "address"
            },
            {
              "internalType": "address",
              "name": "issuer",
              "type": "address"
            },
            {
              "internalType": "address",
              "name": "contractAddress",
              "type": "address"
            },
            {
              "internalType": "string",
              "name": "symbol",
              "type": "string"
            },
            {
              "internalType": "string",
              "name": "name",
              "type": "string"
            }
          ],
          "internalType": "struct Models.Asset",
          "name": "",
          "type": "tuple"
        }
      ],
      "stateMutability": "view",
      "type": "function"
    },
    {
      "inputs": [
        {
          "internalType": "uint256",
          "name": "tokenId",
          "type": "uint256"
        },
        {
          "internalType": "address payable",
          "name": "owner",
          "type": "address"
        },
        {
          "internalType": "string",
          "name": "_uri",
          "type": "string"
        },
        {
          "internalType": "string",
          "name": "_name",
          "type": "string"
        },
        {
          "internalType": "string",
          "name": "_symbol",
          "type": "string"
        }
      ],
      "name": "issueToken",
      "outputs": [],
      "stateMutability": "nonpayable",
      "type": "function"
    },
    {
      "inputs": [
        {
          "internalType": "uint256",
          "name": "tokenId",
          "type": "uint256"
        },
        {
          "internalType": "uint256",
          "name": "auctionId",
          "type": "uint256"
        }
      ],
      "name": "placeBid",
      "outputs": [],
      "stateMutability": "payable",
      "type": "function"
    },
    {
      "inputs": [
        {
          "internalType": "uint256",
          "name": "tokenId",
          "type": "uint256"
        },
        {
          "internalType": "uint256",
          "name": "auctionId",
          "type": "uint256"
        }
      ],
      "name": "shouldBeStarted",
      "outputs": [],
      "stateMutability": "view",
      "type": "function"
    },
    {
      "inputs": [
        {
          "internalType": "uint256",
          "name": "tokenId",
          "type": "uint256"
        },
        {
          "internalType": "uint256",
          "name": "auctionId",
          "type": "uint256"
        },
        {
          "internalType": "uint256",
          "name": "startBlock",
          "type": "uint256"
        },
        {
          "internalType": "uint256",
          "name": "endBlock",
          "type": "uint256"
        },
        {
          "internalType": "uint256",
          "name": "sellNowPrice",
          "type": "uint256"
        },
        {
          "internalType": "uint256",
          "name": "minimumBid",
          "type": "uint256"
        }
      ],
      "name": "startAuction",
      "outputs": [],
      "stateMutability": "nonpayable",
      "type": "function"
    },
    {
      "inputs": [],
      "name": "testUpgrade",
      "outputs": [
        {
          "internalType": "address",
          "name": "",
          "type": "address"
        },
        {
          "internalType": "address",
          "name": "",
          "type": "address"
        }
      ],
      "stateMutability": "view",
      "type": "function"
    },
    {
      "inputs": [
        {
          "internalType": "uint256",
          "name": "tokenId",
          "type": "uint256"
        },
        {
          "internalType": "uint256",
          "name": "auctionId",
          "type": "uint256"
        }
      ],
      "name": "withdraw",
      "outputs": [],
      "stateMutability": "nonpayable",
      "type": "function"
    }
  ],
  "bytecode": "0x60806040523480156200001157600080fd5b50604051620061613803806200616183398101604081905262000034916200017c565b60008054336001600160a01b031991821617909155600180549091166001600160a01b03831617905560408051808201909152601181527021b0b63634b7339029b2ba1020b236b4b760791b6020808301919091526200009e91906200010d811b62002b5f17901c565b60015460405163c55b6bb760e01b81526001600160a01b039091169063c55b6bb790620000d29030903390600401620001ac565b600060405180830381600087803b158015620000ed57600080fd5b505af115801562000102573d6000803e3d6000fd5b50505050506200021c565b6200015881604051602401620001249190620001c6565b60408051601f198184030181529190526020810180516001600160e01b0390811663104c13eb60e21b179091526200015b16565b50565b80516a636f6e736f6c652e6c6f67602083016000808483855afa5050505050565b6000602082840312156200018e578081fd5b81516001600160a01b0381168114620001a5578182fd5b9392505050565b6001600160a01b0392831681529116602082015260400190565b6000602080835283518082850152825b81811015620001f457858101830151858201604001528201620001d6565b81811115620002065783604083870101525b50601f01601f1916929092016040019392505050565b615f35806200022c6000396000f3fe608060405260043610620000c25760003560e01c80638c7a63ae116200007357806392ba9075116200005557806392ba907514620001e55780639d6aed0b146200020a578063bbecae15146200023257620000c2565b80638c7a63ae146200018c5780638d8b650114620001c057620000c2565b8063441a3e7011620000a9578063441a3e7014620001135780634798c656146200013857806357c90de5146200017557620000c2565b806316d015aa14620000c75780631edd33d414620000ee575b600080fd5b348015620000d457600080fd5b50620000ec620000e6366004620031a6565b62000257565b005b348015620000fb57600080fd5b50620000ec6200010d366004620031a6565b620005f7565b3480156200012057600080fd5b50620000ec62000132366004620031a6565b6200068a565b3480156200014557600080fd5b506200015d62000157366004620031a6565b62001654565b6040516200016c919062003993565b60405180910390f35b620000ec62000186366004620031a6565b62001715565b3480156200019957600080fd5b50620001b1620001ab366004620030c7565b62001e49565b6040516200016c91906200391d565b348015620001cd57600080fd5b50620000ec620001df366004620030f9565b62002145565b348015620001f257600080fd5b50620000ec62000204366004620031a6565b6200234f565b3480156200021757600080fd5b5062000222620024bd565b6040516200016c92919062003358565b3480156200023f57600080fd5b50620000ec62000251366004620031c8565b62002685565b6001546040517f564694250000000000000000000000000000000000000000000000000000000081526001600160a01b0390911690635646942590620002a4908590859060040162003abc565b60206040518083038186803b158015620002bd57600080fd5b505afa158015620002d2573d6000803e3d6000fd5b505050506040513d601f19601f82011682018060405250810190620002f89190620030e0565b431015620003235760405162461bcd60e51b81526004016200031a90620038af565b60405180910390fd5b6001546040517f90f7e24c0000000000000000000000000000000000000000000000000000000081526001600160a01b03909116906390f7e24c9062000370908590859060040162003abc565b60206040518083038186803b1580156200038957600080fd5b505afa1580156200039e573d6000803e3d6000fd5b505050506040513d601f19601f82011682018060405250810190620003c49190620030e0565b431115620003e65760405162461bcd60e51b81526004016200031a90620036c0565b6001546040516330737aa960e11b81526001600160a01b03909116906360e6f552906200041a908590859060040162003abc565b60206040518083038186803b1580156200043357600080fd5b505afa15801562000448573d6000803e3d6000fd5b505050506040513d601f19601f820116820180604052508101906200046e919062002f0a565b156200048e5760405162461bcd60e51b81526004016200031a9062003652565b60015460405163f7336fb160e01b81526001600160a01b039091169063f7336fb190620004c2908590859060040162003abc565b60206040518083038186803b158015620004db57600080fd5b505afa158015620004f0573d6000803e3d6000fd5b505050506040513d601f19601f8201168201806040525081019062000516919062002f0a565b620005355760405162461bcd60e51b81526004016200031a90620035ad565b6001546040517fc3c5efaf0000000000000000000000000000000000000000000000000000000081526001600160a01b039091169063c3c5efaf906200058090859060040162003a6d565b60206040518083038186803b1580156200059957600080fd5b505afa158015620005ae573d6000803e3d6000fd5b505050506040513d601f19601f82011682018060405250810190620005d4919062002f0a565b620005f35760405162461bcd60e51b81526004016200031a90620033f5565b5050565b62000603828262000257565b6001546040517fbf9fde030000000000000000000000000000000000000000000000000000000081526001600160a01b039091169063bf9fde0390620006529085908590439060040162003b25565b600060405180830381600087803b1580156200066d57600080fd5b505af115801562000682573d6000803e3d6000fd5b505050505050565b600154604051631c96a19760e31b81526000916001600160a01b03169063e4b50cb890620006bd90869060040162003a6d565b60206040518083038186803b158015620006d657600080fd5b505afa158015620006eb573d6000803e3d6000fd5b505050506040513d601f19601f8201168201806040525081019062000711919062002e7d565b60015460405163f7336fb160e01b81529192506001600160a01b03169063f7336fb19062000746908690869060040162003abc565b60206040518083038186803b1580156200075f57600080fd5b505afa15801562000774573d6000803e3d6000fd5b505050506040513d601f19601f820116820180604052508101906200079a919062002f0a565b620007b95760405162461bcd60e51b81526004016200031a90620035ad565b6001546040517f90f7e24c0000000000000000000000000000000000000000000000000000000081526001600160a01b03909116906390f7e24c9062000806908690869060040162003abc565b60206040518083038186803b1580156200081f57600080fd5b505afa15801562000834573d6000803e3d6000fd5b505050506040513d601f19601f820116820180604052508101906200085a9190620030e0565b431180620008eb57506001546040516330737aa960e11b81526001600160a01b03909116906360e6f5529062000897908690869060040162003abc565b60206040518083038186803b158015620008b057600080fd5b505afa158015620008c5573d6000803e3d6000fd5b505050506040513d601f19601f82011682018060405250810190620008eb919062002f0a565b6200090a5760405162461bcd60e51b81526004016200031a906200342c565b6001546040516330737aa960e11b81526000916001600160a01b0316906360e6f552906200093f908790879060040162003abc565b60206040518083038186803b1580156200095857600080fd5b505afa1580156200096d573d6000803e3d6000fd5b505050506040513d601f19601f8201168201806040525081019062000993919062002f0a565b90506000826001600160a01b0316636352211e866040518263ffffffff1660e01b8152600401620009c5919062003a6d565b60206040518083038186803b158015620009de57600080fd5b505afa158015620009f3573d6000803e3d6000fd5b505050506040513d601f19601f8201168201806040525081019062000a19919062002e7d565b6001546040517f4b4a39b90000000000000000000000000000000000000000000000000000000081529192506000916001600160a01b0390911690634b4a39b99062000a6c908990899060040162003abc565b60206040518083038186803b15801562000a8557600080fd5b505afa15801562000a9a573d6000803e3d6000fd5b505050506040513d601f19601f8201168201806040525081019062000ac0919062002e7d565b9050821562000af557336001600160a01b038316141562000af55760405162461bcd60e51b81526004016200031a90620034d1565b60015460405163743f148d60e11b81526000916001600160a01b03169063e87e291a9062000b2c908a908a90339060040162003aca565b60206040518083038186803b15801562000b4557600080fd5b505afa15801562000b5a573d6000803e3d6000fd5b505050506040513d601f19601f8201168201806040525081019062000b809190620030e0565b9050336001600160a01b03841681141562000d0e576001600160a01b03831662000bbe5760405162461bcd60e51b81526004016200031a9062003765565b6001546040517fe1e7cef60000000000000000000000000000000000000000000000000000000081526001600160a01b039091169063e1e7cef69062000c0b908b908b9060040162003abc565b60206040518083038186803b15801562000c2457600080fd5b505afa15801562000c39573d6000803e3d6000fd5b505050506040513d601f19601f8201168201806040525081019062000c5f9190620030e0565b60015460405163743f148d60e11b815291935083916001600160a01b039091169063e87e291a9062000c9a908c908c90899060040162003aca565b60206040518083038186803b15801562000cb357600080fd5b505afa15801562000cc8573d6000803e3d6000fd5b505050506040513d601f19601f8201168201806040525081019062000cee9190620030e0565b1462000d0e5760405162461bcd60e51b81526004016200031a9062003508565b6000846001600160a01b0316826001600160a01b03161415801562000d455750836001600160a01b0316826001600160a01b031614155b1562000dc25760015460405163032bdec360e41b81526001600160a01b03909116906332bdec309062000d84908c908c90879060009060040162003ae9565b600060405180830381600087803b15801562000d9f57600080fd5b505af115801562000db4573d6000803e3d6000fd5b505050506001905062001597565b846001600160a01b0316826001600160a01b03161415620012ec5760015460405163032bdec360e41b81526001600160a01b03909116906332bdec309062000e16908c908c90899060009060040162003ae9565b600060405180830381600087803b15801562000e3157600080fd5b505af115801562000e46573d6000803e3d6000fd5b505050506000600160009054906101000a90046001600160a01b03166001600160a01b031663e16d536c6040518163ffffffff1660e01b815260040160206040518083038186803b15801562000e9b57600080fd5b505afa15801562000eb0573d6000803e3d6000fd5b505050506040513d601f19601f8201168201806040525081019062000ed69190620030e0565b90506000600160009054906101000a90046001600160a01b03166001600160a01b031663c8f77edf6040518163ffffffff1660e01b815260040160206040518083038186803b15801562000f2957600080fd5b505afa15801562000f3e573d6000803e3d6000fd5b505050506040513d601f19601f8201168201806040525081019062000f649190620030e0565b9050866001600160a01b0316896001600160a01b031663525564216040518163ffffffff1660e01b815260040160206040518083038186803b15801562000faa57600080fd5b505afa15801562000fbf573d6000803e3d6000fd5b505050506040513d601f19601f8201168201806040525081019062000fe5919062002e7d565b6001600160a01b031614156200111157600160009054906101000a90046001600160a01b03166001600160a01b031663c8f77edf6040518163ffffffff1660e01b815260040160206040518083038186803b1580156200104457600080fd5b505afa15801562001059573d6000803e3d6000fd5b505050506040513d601f19601f820116820180604052508101906200107f9190620030e0565b600160009054906101000a90046001600160a01b03166001600160a01b031663e16d536c6040518163ffffffff1660e01b815260040160206040518083038186803b158015620010ce57600080fd5b505afa158015620010e3573d6000803e3d6000fd5b505050506040513d601f19601f82011682018060405250810190620011099190620030e0565b019150600090505b6064818602819004868402919091049586900381900395908015620011f25760008b6001600160a01b031663525564216040518163ffffffff1660e01b815260040160206040518083038186803b1580156200116c57600080fd5b505afa15801562001181573d6000803e3d6000fd5b505050506040513d601f19601f82011682018060405250810190620011a7919062002e7d565b6001600160a01b03166108fc839081150290604051600060405180830381858888f19350505050905080620011f05760405162461bcd60e51b81526004016200031a90620038e6565b505b8115620012de57600154604080517fabd67b0a00000000000000000000000000000000000000000000000000000000815290516000926001600160a01b03169163abd67b0a916004808301926020929190829003018186803b1580156200125857600080fd5b505afa1580156200126d573d6000803e3d6000fd5b505050506040513d601f19601f8201168201806040525081019062001293919062002e7d565b6001600160a01b03166108fc849081150290604051600060405180830381858888f19350505050905080620012dc5760405162461bcd60e51b81526004016200031a9062003841565b505b600194505050505062001597565b836001600160a01b0316826001600160a01b0316141562001597578515620013475760015460405163032bdec360e41b81526001600160a01b03909116906332bdec309062000d84908c908c90899060009060040162003ae9565b6040516331a9108f60e11b81526000906001600160a01b03891690636352211e9062001378908d9060040162003a6d565b60206040518083038186803b1580156200139157600080fd5b505afa158015620013a6573d6000803e3d6000fd5b505050506040513d601f19601f82011682018060405250810190620013cc919062002e7d565b6040517fa5b668dc0000000000000000000000000000000000000000000000000000000081529091506001600160a01b0389169063a5b668dc906200141a908d9085908a9060040162003a8d565b602060405180830381600087803b1580156200143557600080fd5b505af11580156200144a573d6000803e3d6000fd5b505050506040513d601f19601f8201168201806040525081019062001470919062002f0a565b6200148f5760405162461bcd60e51b81526004016200031a906200349a565b6001546040517f7e3ce5f6000000000000000000000000000000000000000000000000000000008152600093506001600160a01b0390911690637e3ce5f690620014e0908d90869060040162003aac565b600060405180830381600087803b158015620014fb57600080fd5b505af115801562001510573d6000803e3d6000fd5b50506001546040517f7fd392470000000000000000000000000000000000000000000000000000000081526001600160a01b039091169250637fd39247915062001561908d90899060040162003a76565b600060405180830381600087803b1580156200157c57600080fd5b505af115801562001591573d6000803e3d6000fd5b50505050505b80156200160c5760008311620015c15760405162461bcd60e51b81526004016200031a9062003689565b6040516000906001600160a01b0384169085156108fc0290869084818181858888f193505050509050806200160a5760405162461bcd60e51b81526004016200031a906200380a565b505b7f0ec497a8ae5b1ba29c60470ef651def995fac3deebbdcc56c47a4e5f51a4c2bd3383856040516200164193929190620032c2565b60405180910390a1505050505050505050565b6200165e62002c52565b6200166862002c52565b6001546040517ff941ac800000000000000000000000000000000000000000000000000000000081526001600160a01b039091169063f941ac8090620016b5908790879060040162003abc565b60006040518083038186803b158015620016ce57600080fd5b505afa158015620016e3573d6000803e3d6000fd5b505050506040513d6000823e601f3d908101601f191682016040526200170d919081019062002fa3565b949350505050565b600154604051631c96a19760e31b81526000916001600160a01b03169063e4b50cb8906200174890869060040162003a6d565b60206040518083038186803b1580156200176157600080fd5b505afa15801562001776573d6000803e3d6000fd5b505050506040513d601f19601f820116820180604052508101906200179c919062002e7d565b9050620017aa838362000257565b60003411620017cd5760405162461bcd60e51b81526004016200031a9062003463565b6040516331a9108f60e11b81526001600160a01b03821690636352211e90620017fb90869060040162003a6d565b60206040518083038186803b1580156200181457600080fd5b505afa15801562001829573d6000803e3d6000fd5b505050506040513d601f19601f820116820180604052508101906200184f919062002e7d565b6001600160a01b0316336001600160a01b03161415620018835760405162461bcd60e51b81526004016200031a9062003387565b60015460405163743f148d60e11b81526000916001600160a01b03169063e87e291a90620018ba9087908790339060040162003aca565b60206040518083038186803b158015620018d357600080fd5b505afa158015620018e8573d6000803e3d6000fd5b505050506040513d601f19601f820116820180604052508101906200190e9190620030e0565b6001546040517f1b3a5e3a0000000000000000000000000000000000000000000000000000000081529192506000916001600160a01b0390911690631b3a5e3a9062001961908890889060040162003abc565b60206040518083038186803b1580156200197a57600080fd5b505afa1580156200198f573d6000803e3d6000fd5b505050506040513d601f19601f82011682018060405250810190620019b59190620030e0565b90506000620019c5348462002bd7565b9050818110158015620019d757508115155b1562001acc576001546040517fbf9fde030000000000000000000000000000000000000000000000000000000081526001600160a01b039091169063bf9fde039062001a2c9089908990439060040162003b25565b600060405180830381600087803b15801562001a4757600080fd5b505af115801562001a5c573d6000803e3d6000fd5b50505050600062001a77838362002c0690919063ffffffff16565b9050801562001ac257604051600090339083156108fc0290849084818181858888f1935050505090508062001ac05760405162461bcd60e51b81526004016200031a90620036f7565b505b8291505062001b8e565b6001546040517fe1e7cef60000000000000000000000000000000000000000000000000000000081526001600160a01b039091169063e1e7cef69062001b19908990899060040162003abc565b60206040518083038186803b15801562001b3257600080fd5b505afa15801562001b47573d6000803e3d6000fd5b505050506040513d601f19601f8201168201806040525081019062001b6d9190620030e0565b811162001b8e5760405162461bcd60e51b81526004016200031a906200361b565b60015460405163032bdec360e41b81526001600160a01b03909116906332bdec309062001bc690899089903390879060040162003ae9565b600060405180830381600087803b15801562001be157600080fd5b505af115801562001bf6573d6000803e3d6000fd5b50506001546040517f26567db60000000000000000000000000000000000000000000000000000000081526001600160a01b0390911692506326567db6915062001c499089908990339060040162003aca565b600060405180830381600087803b15801562001c6457600080fd5b505af115801562001c79573d6000803e3d6000fd5b50506001546040517fd2aa41870000000000000000000000000000000000000000000000000000000081526001600160a01b03909116925063d2aa4187915062001ccc9089908990869060040162003b25565b600060405180830381600087803b15801562001ce757600080fd5b505af115801562001cfc573d6000803e3d6000fd5b50506001546040517fb54303b00000000000000000000000000000000000000000000000000000000081526001600160a01b03909116925063b54303b0915062001d4f9089908990339060040162003aca565b600060405180830381600087803b15801562001d6a57600080fd5b505af115801562001d7f573d6000803e3d6000fd5b50506001546040517f3b667d5e0000000000000000000000000000000000000000000000000000000081526001600160a01b039091169250633b667d5e915062001dd29089908990869060040162003b25565b600060405180830381600087803b15801562001ded57600080fd5b505af115801562001e02573d6000803e3d6000fd5b505050507f5331b3a4532c2507900f549683f076c051f92222c177b52f82f140d8667d3ebf338260405162001e399291906200333f565b60405180910390a1505050505050565b62001e5362002cc7565b600154604051631c96a19760e31b81526000916001600160a01b03169063e4b50cb89062001e8690869060040162003a6d565b60206040518083038186803b15801562001e9f57600080fd5b505afa15801562001eb4573d6000803e3d6000fd5b505050506040513d601f19601f8201168201806040525081019062001eda919062002e7d565b90506001600160a01b03811662001f055760405162461bcd60e51b81526004016200031a906200379c565b62001f0f62002cc7565b6040518060c00160405280858152602001836001600160a01b0316636352211e876040518263ffffffff1660e01b815260040162001f4e919062003a6d565b60206040518083038186803b15801562001f6757600080fd5b505afa15801562001f7c573d6000803e3d6000fd5b505050506040513d601f19601f8201168201806040525081019062001fa2919062002e7d565b6001600160a01b03168152602001836001600160a01b031663525564216040518163ffffffff1660e01b815260040160206040518083038186803b15801562001fea57600080fd5b505afa15801562001fff573d6000803e3d6000fd5b505050506040513d601f19601f8201168201806040525081019062002025919062002e7d565b6001600160a01b03168152602001836001600160a01b03168152602001836001600160a01b03166306fdde036040518163ffffffff1660e01b815260040160006040518083038186803b1580156200207c57600080fd5b505afa15801562002091573d6000803e3d6000fd5b505050506040513d6000823e601f3d908101601f19168201604052620020bb919081019062002f27565b8152602001836001600160a01b03166395d89b416040518163ffffffff1660e01b815260040160006040518083038186803b158015620020fa57600080fd5b505afa1580156200210f573d6000803e3d6000fd5b505050506040513d6000823e601f3d908101601f1916820160405262002139919081019062002f27565b9052925050505b919050565b600084848484604051620021599062002d18565b620021689493929190620032e6565b604051809103906000f08015801562002185573d6000803e3d6000fd5b506040517fa0712d680000000000000000000000000000000000000000000000000000000081529091506001600160a01b0382169063a0712d6890620021d090899060040162003a6d565b602060405180830381600087803b158015620021eb57600080fd5b505af115801562002200573d6000803e3d6000fd5b505050506040513d601f19601f8201168201806040525081019062002226919062002f0a565b620022455760405162461bcd60e51b81526004016200031a9062003878565b6001546040517f57016b0a0000000000000000000000000000000000000000000000000000000081526001600160a01b03909116906357016b0a9062002292908990859060040162003a76565b600060405180830381600087803b158015620022ad57600080fd5b505af1158015620022c2573d6000803e3d6000fd5b50506001546040517f7fd392470000000000000000000000000000000000000000000000000000000081526001600160a01b039091169250637fd39247915062002313908990899060040162003a76565b600060405180830381600087803b1580156200232e57600080fd5b505af115801562002343573d6000803e3d6000fd5b50505050505050505050565b6200235b828262000257565b6001546040517f86514e260000000000000000000000000000000000000000000000000000000081526000916001600160a01b0316906386514e2690620023a9908690869060040162003abc565b60006040518083038186803b158015620023c257600080fd5b505afa158015620023d7573d6000803e3d6000fd5b505050506040513d6000823e601f3d908101601f1916820160405262002401919081019062002ed3565b51116200240d57600080fd5b600180546040517f0d08358b0000000000000000000000000000000000000000000000000000000081526001600160a01b0390911691630d08358b916200245c91869186919060040162003b0d565b600060405180830381600087803b1580156200247757600080fd5b505af11580156200248c573d6000803e3d6000fd5b50506040517f462b6ca7f632601af1295aeb320851f50e8e630a309173f23535845ea4bfb3b9925060009150a15050565b600080600160009054906101000a90046001600160a01b03166001600160a01b03166329f4acb06040518163ffffffff1660e01b815260040160206040518083038186803b1580156200250f57600080fd5b505afa15801562002524573d6000803e3d6000fd5b505050506040513d601f19601f820116820180604052508101906200254a919062002f0a565b620025695760405162461bcd60e51b81526004016200031a90620035e4565b600160009054906101000a90046001600160a01b03166001600160a01b0316636e9960c36040518163ffffffff1660e01b815260040160206040518083038186803b158015620025b857600080fd5b505afa158015620025cd573d6000803e3d6000fd5b505050506040513d601f19601f82011682018060405250810190620025f3919062002e7d565b600160009054906101000a90046001600160a01b03166001600160a01b03166380f760216040518163ffffffff1660e01b815260040160206040518083038186803b1580156200264257600080fd5b505afa15801562002657573d6000803e3d6000fd5b505050506040513d601f19601f820116820180604052508101906200267d919062002e7d565b915091509091565b600154604051631c96a19760e31b81526000916001600160a01b03169063e4b50cb890620026b8908a9060040162003a6d565b60206040518083038186803b158015620026d157600080fd5b505afa158015620026e6573d6000803e3d6000fd5b505050506040513d601f19601f820116820180604052508101906200270c919062002e7d565b6040516331a9108f60e11b815290915033906001600160a01b03831690636352211e906200273f908b9060040162003a6d565b60206040518083038186803b1580156200275857600080fd5b505afa1580156200276d573d6000803e3d6000fd5b505050506040513d601f19601f8201168201806040525081019062002793919062002e7d565b6001600160a01b031614620027bc5760405162461bcd60e51b81526004016200031a90620037d3565b6001546040517fc3c5efaf0000000000000000000000000000000000000000000000000000000081526001600160a01b039091169063c3c5efaf9062002807908a9060040162003a6d565b60206040518083038186803b1580156200282057600080fd5b505afa15801562002835573d6000803e3d6000fd5b505050506040513d601f19601f820116820180604052508101906200285b919062002f0a565b156200287b5760405162461bcd60e51b81526004016200031a906200372e565b60015460405163f7336fb160e01b81526001600160a01b039091169063f7336fb190620028af908a908a9060040162003abc565b60206040518083038186803b158015620028c857600080fd5b505afa158015620028dd573d6000803e3d6000fd5b505050506040513d601f19601f8201168201806040525081019062002903919062002f0a565b15620029235760405162461bcd60e51b81526004016200031a90620033be565b6200292d62002c52565b6040805161018081018252888152602081018a90523381830152606081018890526080810187905260a08101869052600060c0820181905260e08201819052610100820152610120810185905260015491517f8a828b0800000000000000000000000000000000000000000000000000000000815290916101408301916001600160a01b0390911690638a828b0890620029ce908d908d9060040162003abc565b60006040518083038186803b158015620029e757600080fd5b505afa158015620029fc573d6000803e3d6000fd5b505050506040513d6000823e601f3d908101601f1916820160405262002a26919081019062002e9c565b81526001546040517f86514e260000000000000000000000000000000000000000000000000000000081526020909201916001600160a01b03909116906386514e269062002a7b908d908d9060040162003abc565b60006040518083038186803b15801562002a9457600080fd5b505afa15801562002aa9573d6000803e3d6000fd5b505050506040513d6000823e601f3d908101601f1916820160405262002ad3919081019062002ed3565b90526001546040517f77ae25420000000000000000000000000000000000000000000000000000000081529192506001600160a01b0316906377ae25429062002b2190849060040162003993565b600060405180830381600087803b15801562002b3c57600080fd5b505af115801562002b51573d6000803e3d6000fd5b505050505050505050505050565b62002bd48160405160240162002b76919062003372565b60408051601f198184030181529190526020810180517bffffffffffffffffffffffffffffffffffffffffffffffffffffffff167f41304fac0000000000000000000000000000000000000000000000000000000017905262002c31565b50565b60008282018381101562002bff5760405162461bcd60e51b81526004016200031a906200353f565b9392505050565b60008282111562002c2b5760405162461bcd60e51b81526004016200031a9062003576565b50900390565b80516a636f6e736f6c652e6c6f67602083016000808483855afa5050505050565b604051806101800160405280600081526020016000815260200160006001600160a01b0316815260200160008152602001600081526020016000815260200160006001600160a01b03168152602001600081526020016000151581526020016000815260200160608152602001606081525090565b6040518060c001604052806000815260200160006001600160a01b0316815260200160006001600160a01b0316815260200160006001600160a01b0316815260200160608152602001606081525090565b6123148062003bec83390190565b8051620021408162003bd5565b600082601f83011262002d44578081fd5b815162002d5b62002d558262003b60565b62003b3b565b81815291506020808301908481018184028601820187101562002d7d57600080fd5b60005b8481101562002da957815162002d968162003bd5565b8452928201929082019060010162002d80565b505050505092915050565b600082601f83011262002dc5578081fd5b815162002dd662002d558262003b60565b81815291506020808301908481018184028601820187101562002df857600080fd5b60005b8481101562002da95781518452928201929082019060010162002dfb565b805180151581146200214057600080fd5b600082601f83011262002e3b578081fd5b813562002e4c62002d558262003b7f565b915080825283602082850101111562002e6457600080fd5b8060208401602084013760009082016020015292915050565b60006020828403121562002e8f578081fd5b815162002bff8162003bd5565b60006020828403121562002eae578081fd5b815167ffffffffffffffff81111562002ec5578182fd5b6200170d8482850162002d33565b60006020828403121562002ee5578081fd5b815167ffffffffffffffff81111562002efc578182fd5b6200170d8482850162002db4565b60006020828403121562002f1c578081fd5b62002bff8262002e19565b60006020828403121562002f39578081fd5b815167ffffffffffffffff81111562002f50578182fd5b8201601f8101841362002f61578182fd5b805162002f7262002d558262003b7f565b81815285602083850101111562002f87578384fd5b62002f9a82602083016020860162003ba2565b95945050505050565b60006020828403121562002fb5578081fd5b815167ffffffffffffffff8082111562002fcd578283fd5b818401915061018080838703121562002fe4578384fd5b62002fef8162003b3b565b905082518152602083015160208201526200300d6040840162002d26565b6040820152606083015160608201526080830151608082015260a083015160a08201526200303e60c0840162002d26565b60c082015260e083015160e08201526101006200305d81850162002e19565b908201526101208381015190820152610140808401518381111562003080578586fd5b6200308e8882870162002d33565b8284015250506101608084015183811115620030a8578586fd5b620030b68882870162002db4565b918301919091525095945050505050565b600060208284031215620030d9578081fd5b5035919050565b600060208284031215620030f2578081fd5b5051919050565b600080600080600060a0868803121562003111578081fd5b853594506020860135620031258162003bd5565b9350604086013567ffffffffffffffff8082111562003142578283fd5b6200315089838a0162002e2a565b9450606088013591508082111562003166578283fd5b6200317489838a0162002e2a565b935060808801359150808211156200318a578283fd5b50620031998882890162002e2a565b9150509295509295909350565b60008060408385031215620031b9578182fd5b50508035926020909101359150565b60008060008060008060c08789031215620031e1578384fd5b505084359660208601359650604086013595606081013595506080810135945060a0013592509050565b6001600160a01b03169052565b6000815180845260208085019450808401835b83811015620032525781516001600160a01b0316875295820195908201906001016200322b565b509495945050505050565b6000815180845260208085019450808401835b83811015620032525781518752958201959082019060010162003270565b15159052565b60008151808452620032ae81602086016020860162003ba2565b601f01601f19169290920160200192915050565b6001600160a01b039384168152919092166020820152604081019190915260600190565b60006001600160a01b0386168252608060208301526200330a608083018662003294565b82810360408401526200331e818662003294565b9050828103606084015262003334818562003294565b979650505050505050565b6001600160a01b03929092168252602082015260400190565b6001600160a01b0392831681529116602082015260400190565b60006020825262002bff602083018462003294565b60208082526003908201527f4f43420000000000000000000000000000000000000000000000000000000000604082015260600190565b60208082526003908201527f4141530000000000000000000000000000000000000000000000000000000000604082015260600190565b60208082526004908201527f414e495000000000000000000000000000000000000000000000000000000000604082015260600190565b60208082526003908201527f414e450000000000000000000000000000000000000000000000000000000000604082015260600190565b60208082526004908201527f434e423000000000000000000000000000000000000000000000000000000000604082015260600190565b60208082526004908201527f434e434f00000000000000000000000000000000000000000000000000000000604082015260600190565b60208082526003908201527f4157430000000000000000000000000000000000000000000000000000000000604082015260600190565b60208082526005908201527f4842464157000000000000000000000000000000000000000000000000000000604082015260600190565b6020808252601b908201527f536166654d6174683a206164646974696f6e206f766572666c6f770000000000604082015260600190565b6020808252601e908201527f536166654d6174683a207375627472616374696f6e206f766572666c6f770000604082015260600190565b60208082526003908201527f414e530000000000000000000000000000000000000000000000000000000000604082015260600190565b60208082526002908201527f5546000000000000000000000000000000000000000000000000000000000000604082015260600190565b60208082526003908201527f42544c0000000000000000000000000000000000000000000000000000000000604082015260600190565b60208082526002908201527f4143000000000000000000000000000000000000000000000000000000000000604082015260600190565b60208082526002908201527f5a57000000000000000000000000000000000000000000000000000000000000604082015260600190565b60208082526002908201527f4145000000000000000000000000000000000000000000000000000000000000604082015260600190565b60208082526004908201527f42464d4200000000000000000000000000000000000000000000000000000000604082015260600190565b60208082526003908201527f4149500000000000000000000000000000000000000000000000000000000000604082015260600190565b60208082526004908201527f48424e5a00000000000000000000000000000000000000000000000000000000604082015260600190565b60208082526004908201527f54494e4600000000000000000000000000000000000000000000000000000000604082015260600190565b60208082526002908201527f574f000000000000000000000000000000000000000000000000000000000000604082015260600190565b60208082526002908201527f5746000000000000000000000000000000000000000000000000000000000000604082015260600190565b60208082526007908201527f434e5354584e4400000000000000000000000000000000000000000000000000604082015260600190565b60208082526002908201527f4d46000000000000000000000000000000000000000000000000000000000000604082015260600190565b60208082526003908201527f414e430000000000000000000000000000000000000000000000000000000000604082015260600190565b60208082526005908201527f434e535449000000000000000000000000000000000000000000000000000000604082015260600190565b6000602082528251602083015260208301516001600160a01b0380821660408501528060408601511660608501528060608601511660808501525050608083015160c060a08401526200397460e084018262003294565b905060a0840151601f198483030160c085015262002f9a828262003294565b60006020825282516020830152602083015160408301526040830151620039be60608401826200320b565b5060608301516080830152608083015160a083015260a083015160c083015260c0830151620039f160e08401826200320b565b5060e08301516101008381019190915283015161012062003a15818501836200328e565b840151610140848101919091528401516101806101608086018290529192509062003a456101a086018462003218565b90860151858203601f19018387015290925062003a6383826200325d565b9695505050505050565b90815260200190565b9182526001600160a01b0316602082015260400190565b9283526001600160a01b03918216602084015216604082015260600190565b9182521515602082015260400190565b918252602082015260400190565b92835260208301919091526001600160a01b0316604082015260600190565b93845260208401929092526001600160a01b03166040830152606082015260800190565b92835260208301919091521515604082015260600190565b9283526020830191909152604082015260600190565b60405181810167ffffffffffffffff8111828210171562003b5857fe5b604052919050565b600067ffffffffffffffff82111562003b7557fe5b5060209081020190565b600067ffffffffffffffff82111562003b9457fe5b50601f01601f191660200190565b60005b8381101562003bbf57818101518382015260200162003ba5565b8381111562003bcf576000848401525b50505050565b6001600160a01b038116811462002bd457600080fdfe60806040523480156200001157600080fd5b50604051620023143803806200231483398101604081905262000034916200029b565b8181620000486301ffc9a760e01b62000101565b81516200005d9060069060208501906200015c565b508051620000739060079060208401906200015c565b50620000866380ac58cd60e01b62000101565b62000098635b5e139f60e01b62000101565b620000aa63780e9d6360e01b62000101565b50508251620000c190600d9060208601906200015c565b5050600a80546001600160a01b039094166001600160a01b03199485168117909155600b8054851690911790555050600c8054909116331790556200037f565b6001600160e01b03198082161415620001375760405162461bcd60e51b81526004016200012e9062000348565b60405180910390fd5b6001600160e01b0319166000908152602081905260409020805460ff19166001179055565b828054600181600116156101000203166002900490600052602060002090601f016020900481019282601f106200019f57805160ff1916838001178555620001cf565b82800160010185558215620001cf579182015b82811115620001cf578251825591602001919060010190620001b2565b50620001dd929150620001e1565b5090565b5b80821115620001dd5760008155600101620001e2565b600082601f83011262000209578081fd5b81516001600160401b03808211156200021e57fe5b6040516020601f8401601f19168201810183811183821017156200023e57fe5b806040525081945083825286818588010111156200025b57600080fd5b600092505b838310156200027f578583018101518284018201529182019162000260565b83831115620002915760008185840101525b5050505092915050565b60008060008060808587031215620002b1578384fd5b84516001600160a01b0381168114620002c8578485fd5b60208601519094506001600160401b0380821115620002e5578485fd5b620002f388838901620001f8565b9450604087015191508082111562000309578384fd5b6200031788838901620001f8565b935060608701519150808211156200032d578283fd5b506200033c87828801620001f8565b91505092959194509250565b6020808252601c908201527f4552433136353a20696e76616c696420696e7465726661636520696400000000604082015260600190565b611f85806200038f6000396000f3fe608060405234801561001057600080fd5b50600436106101775760003560e01c80636352211e116100d8578063a22cb4651161008c578063c87b56dd11610066578063c87b56dd146102da578063d44c1a9f146102ed578063e985e9c51461030057610177565b8063a22cb465146102a1578063a5b668dc146102b4578063b88d4fde146102c757610177565b806370a08231116100bd57806370a082311461027357806395d89b4114610286578063a0712d681461028e57610177565b80636352211e146102585780636c0360eb1461026b57610177565b806323b872dd1161012f57806342842e0e1161011457806342842e0e1461022a5780634f6ccce71461023d578063525564211461025057610177565b806323b872dd146102045780632f745c591461021757610177565b8063081812fc11610160578063081812fc146101ba578063095ea7b3146101da57806318160ddd146101ef57610177565b806301ffc9a71461017c57806306fdde03146101a5575b600080fd5b61018f61018a366004611731565b610313565b60405161019c9190611883565b60405180910390f35b6101ad61034e565b60405161019c919061188e565b6101cd6101c8366004611769565b6103e4565b60405161019c9190611833565b6101ed6101e8366004611708565b610430565b005b6101f76104c8565b60405161019c9190611e91565b6101ed6102123660046115d3565b6104d9565b6101f7610225366004611708565b610511565b6101ed6102383660046115d3565b61053c565b6101f761024b366004611769565b610557565b6101cd61056d565b6101cd610266366004611769565b61057c565b6101ad6105a4565b6101f7610281366004611587565b610605565b6101ad61064e565b61018f61029c366004611769565b6106af565b6101ed6102af3660046116ce565b61079b565b61018f6102c2366004611781565b610887565b6101ed6102d536600461160e565b610906565b6101ad6102e8366004611769565b610945565b6101ed6102fb366004611769565b610a8b565b61018f61030e3660046115a1565b610ac2565b7fffffffff00000000000000000000000000000000000000000000000000000000811660009081526020819052604090205460ff165b919050565b60068054604080516020601f60026000196101006001881615020190951694909404938401819004810282018101909252828152606093909290918301828280156103da5780601f106103af576101008083540402835291602001916103da565b820191906000526020600020905b8154815290600101906020018083116103bd57829003601f168201915b5050505050905090565b60006103ef82610af0565b6104145760405162461bcd60e51b815260040161040b90611c2c565b60405180910390fd5b506000908152600460205260409020546001600160a01b031690565b600061043b8261057c565b9050806001600160a01b0316836001600160a01b0316141561046f5760405162461bcd60e51b815260040161040b90611da0565b806001600160a01b0316610481610afd565b6001600160a01b0316148061049d575061049d8161030e610afd565b6104b95760405162461bcd60e51b815260040161040b90611ae0565b6104c38383610b01565b505050565b60006104d46002610b87565b905090565b6104ea6104e4610afd565b82610b92565b6105065760405162461bcd60e51b815260040161040b90611dfd565b6104c3838383610c17565b6001600160a01b03821660009081526001602052604081206105339083610d25565b90505b92915050565b6104c383838360405180602001604052806000815250610906565b600080610565600284610d31565b509392505050565b600b546001600160a01b031690565b600061053682604051806060016040528060298152602001611f276029913960029190610d4d565b60098054604080516020601f60026000196101006001881615020190951694909404938401819004810282018101909252828152606093909290918301828280156103da5780601f106103af576101008083540402835291602001916103da565b60006001600160a01b03821661062d5760405162461bcd60e51b815260040161040b90611b3d565b6001600160a01b038216600090815260016020526040902061053690610b87565b60078054604080516020601f60026000196101006001881615020190951694909404938401819004810282018101909252828152606093909290918301828280156103da5780601f106103af576101008083540402835291602001916103da565b600c546000906001600160a01b031633146106dc5760405162461bcd60e51b815260040161040b90611992565b600a546106f2906001600160a01b031683610d5a565b6106fb82610a8b565b600d805460408051602060026001851615610100026000190190941693909304601f8101849004840282018401909252818152610793938693919290918301828280156107895780601f1061075e57610100808354040283529160200191610789565b820191906000526020600020905b81548152906001019060200180831161076c57829003601f168201915b5050505050610e1e565b506001919050565b6107a3610afd565b6001600160a01b0316826001600160a01b031614156107d45760405162461bcd60e51b815260040161040b90611a4c565b80600560006107e1610afd565b6001600160a01b0390811682526020808301939093526040918201600090812091871680825291909352912080547fffffffffffffffffffffffffffffffffffffffffffffffffffffffffffffff001692151592909217909155610843610afd565b6001600160a01b03167f17307eab39ab6107e8899845ad3d59bd9653f200f220920489ca2b5937696c318360405161087b9190611883565b60405180910390a35050565b600c546000906001600160a01b031633146108b45760405162461bcd60e51b815260040161040b90611992565b6108bf83838661053c565b6108c884610a8b565b50600a80547fffffffffffffffffffffffff0000000000000000000000000000000000000000166001600160a01b03831617905560015b9392505050565b610917610911610afd565b83610b92565b6109335760405162461bcd60e51b815260040161040b90611dfd565b61093f84848484610e62565b50505050565b606061095082610af0565b61096c5760405162461bcd60e51b815260040161040b90611d43565b60008281526008602090815260409182902080548351601f6002600019610100600186161502019093169290920491820184900484028101840190945280845260609392830182828015610a015780601f106109d657610100808354040283529160200191610a01565b820191906000526020600020905b8154815290600101906020018083116109e457829003601f168201915b505050505090506060610a126105a4565b9050805160001415610a2657509050610349565b815115610a58578082604051602001610a40929190611804565b60405160208183030381529060405292505050610349565b80610a6285610e95565b604051602001610a73929190611804565b60405160208183030381529060405292505050919050565b600c546001600160a01b03163314610ab55760405162461bcd60e51b815260040161040b90611992565b610abf3382610b01565b50565b6001600160a01b03918216600090815260056020908152604080832093909416825291909152205460ff1690565b6000610536600283610fa4565b3390565b600081815260046020526040902080547fffffffffffffffffffffffff0000000000000000000000000000000000000000166001600160a01b0384169081179091558190610b4e8261057c565b6001600160a01b03167f8c5be1e5ebec7d5bd14f71427d1e84f3dd0314c0f7b2291e5b200ac8c7c3b92560405160405180910390a45050565b600061053682610fb0565b6000610b9d82610af0565b610bb95760405162461bcd60e51b815260040161040b90611a83565b6000610bc48361057c565b9050806001600160a01b0316846001600160a01b03161480610bff5750836001600160a01b0316610bf4846103e4565b6001600160a01b0316145b80610c0f5750610c0f8185610ac2565b949350505050565b826001600160a01b0316610c2a8261057c565b6001600160a01b031614610c505760405162461bcd60e51b815260040161040b90611ce6565b6001600160a01b038216610c765760405162461bcd60e51b815260040161040b906119ef565b610c818383836104c3565b610c8c600082610b01565b6001600160a01b0383166000908152600160205260409020610cae9082610fb4565b506001600160a01b0382166000908152600160205260409020610cd19082610fc0565b50610cde60028284610fcc565b5080826001600160a01b0316846001600160a01b03167fddf252ad1be2c89b69c2b068fc378daa952ba7f163c4a11628f55a4df523b3ef60405160405180910390a4505050565b60006105338383610fe2565b6000808080610d408686611027565b9097909650945050505050565b6000610c0f848484611083565b6001600160a01b038216610d805760405162461bcd60e51b815260040161040b90611bf7565b610d8981610af0565b15610da65760405162461bcd60e51b815260040161040b9061195b565b610db2600083836104c3565b6001600160a01b0382166000908152600160205260409020610dd49082610fc0565b50610de160028284610fcc565b5060405181906001600160a01b038416906000907fddf252ad1be2c89b69c2b068fc378daa952ba7f163c4a11628f55a4df523b3ef908290a45050565b610e2782610af0565b610e435760405162461bcd60e51b815260040161040b90611c89565b600082815260086020908152604090912082516104c3928401906114dd565b610e6d848484610c17565b610e79848484846110e2565b61093f5760405162461bcd60e51b815260040161040b906118fe565b606081610ed6575060408051808201909152600181527f30000000000000000000000000000000000000000000000000000000000000006020820152610349565b8160005b8115610eee57600101600a82049150610eda565b60608167ffffffffffffffff81118015610f0757600080fd5b506040519080825280601f01601f191660200182016040528015610f32576020820181803683370190505b50859350905060001982015b8315610f9b57600a840660300160f81b82828060019003935081518110610f6157fe5b60200101907effffffffffffffffffffffffffffffffffffffffffffffffffffffffffffff1916908160001a905350600a84049350610f3e565b50949350505050565b60006105338383611235565b5490565b6000610533838361124d565b60006105338383611313565b6000610c0f84846001600160a01b03851661135d565b815460009082106110055760405162461bcd60e51b815260040161040b906118a1565b82600001828154811061101457fe5b9060005260206000200154905092915050565b81546000908190831061104c5760405162461bcd60e51b815260040161040b90611b9a565b600084600001848154811061105d57fe5b906000526020600020906002020190508060000154816001015492509250509250929050565b600082815260018401602052604081205482816110b35760405162461bcd60e51b815260040161040b919061188e565b508460000160018203815481106110c657fe5b9060005260206000209060020201600101549150509392505050565b60006110f6846001600160a01b03166113f4565b61110257506001610c0f565b60606111cd7f150b7a0200000000000000000000000000000000000000000000000000000000611130610afd565b8887876040516024016111469493929190611847565b604051602081830303815290604052907bffffffffffffffffffffffffffffffffffffffffffffffffffffffff19166020820180517bffffffffffffffffffffffffffffffffffffffffffffffffffffffff8381831617835250505050604051806060016040528060328152602001611ef5603291396001600160a01b03881691906113fa565b90506000818060200190518101906111e5919061174d565b7fffffffff00000000000000000000000000000000000000000000000000000000167f150b7a02000000000000000000000000000000000000000000000000000000001492505050949350505050565b60009081526001919091016020526040902054151590565b60008181526001830160205260408120548015611309578354600019808301919081019060009087908390811061128057fe5b906000526020600020015490508087600001848154811061129d57fe5b6000918252602080832090910192909255828152600189810190925260409020908401905586548790806112cd57fe5b60019003818190600052602060002001600090559055866001016000878152602001908152602001600020600090556001945050505050610536565b6000915050610536565b600061131f8383611235565b61135557508154600181810184556000848152602080822090930184905584548482528286019093526040902091909155610536565b506000610536565b6000828152600184016020526040812054806113c25750506040805180820182528381526020808201848152865460018181018955600089815284812095516002909302909501918255915190820155865486845281880190925292909120556108ff565b828560000160018303815481106113d557fe5b90600052602060002090600202016001018190555060009150506108ff565b3b151590565b6060610c0f84846000858561140e856113f4565b61142a5760405162461bcd60e51b815260040161040b90611e5a565b60006060866001600160a01b0316858760405161144791906117e8565b60006040518083038185875af1925050503d8060008114611484576040519150601f19603f3d011682016040523d82523d6000602084013e611489565b606091505b50915091506114998282866114a4565b979650505050505050565b606083156114b35750816108ff565b8251156114c35782518084602001fd5b8160405162461bcd60e51b815260040161040b919061188e565b828054600181600116156101000203166002900490600052602060002090601f016020900481019282601f1061151e57805160ff191683800117855561154b565b8280016001018555821561154b579182015b8281111561154b578251825591602001919060010190611530565b5061155792915061155b565b5090565b5b80821115611557576000815560010161155c565b80356001600160a01b038116811461034957600080fd5b600060208284031215611598578081fd5b61053382611570565b600080604083850312156115b3578081fd5b6115bc83611570565b91506115ca60208401611570565b90509250929050565b6000806000606084860312156115e7578081fd5b6115f084611570565b92506115fe60208501611570565b9150604084013590509250925092565b60008060008060808587031215611623578081fd5b61162c85611570565b9350602061163b818701611570565b935060408601359250606086013567ffffffffffffffff8082111561165e578384fd5b818801915088601f830112611671578384fd5b81358181111561167d57fe5b60405184601f19601f840116820101818110848211171561169a57fe5b60405281815283820185018b10156116b0578586fd5b81858501868301379081019093019390935250939692955090935050565b600080604083850312156116e0578182fd5b6116e983611570565b9150602083013580151581146116fd578182fd5b809150509250929050565b6000806040838503121561171a578182fd5b61172383611570565b946020939093013593505050565b600060208284031215611742578081fd5b81356108ff81611ec6565b60006020828403121561175e578081fd5b81516108ff81611ec6565b60006020828403121561177a578081fd5b5035919050565b600080600060608486031215611795578283fd5b833592506117a560208501611570565b91506117b360408501611570565b90509250925092565b600081518084526117d4816020860160208601611e9a565b601f01601f19169290920160200192915050565b600082516117fa818460208701611e9a565b9190910192915050565b60008351611816818460208801611e9a565b83519083019061182a818360208801611e9a565b01949350505050565b6001600160a01b0391909116815260200190565b60006001600160a01b0380871683528086166020840152508360408301526080606083015261187960808301846117bc565b9695505050505050565b901515815260200190565b60006020825261053360208301846117bc565b60208082526022908201527f456e756d657261626c655365743a20696e646578206f7574206f6620626f756e60408201527f6473000000000000000000000000000000000000000000000000000000000000606082015260800190565b60208082526032908201527f4552433732313a207472616e7366657220746f206e6f6e20455243373231526560408201527f63656976657220696d706c656d656e7465720000000000000000000000000000606082015260800190565b6020808252601c908201527f4552433732313a20746f6b656e20616c7265616479206d696e74656400000000604082015260600190565b60208082526021908201527f4f6e6c792061646d696e2063616e2063616c6c207468697320636f6e7472616360408201527f7400000000000000000000000000000000000000000000000000000000000000606082015260800190565b60208082526024908201527f4552433732313a207472616e7366657220746f20746865207a65726f2061646460408201527f7265737300000000000000000000000000000000000000000000000000000000606082015260800190565b60208082526019908201527f4552433732313a20617070726f766520746f2063616c6c657200000000000000604082015260600190565b6020808252602c908201527f4552433732313a206f70657261746f7220717565727920666f72206e6f6e657860408201527f697374656e7420746f6b656e0000000000000000000000000000000000000000606082015260800190565b60208082526038908201527f4552433732313a20617070726f76652063616c6c6572206973206e6f74206f7760408201527f6e6572206e6f7220617070726f76656420666f7220616c6c0000000000000000606082015260800190565b6020808252602a908201527f4552433732313a2062616c616e636520717565727920666f7220746865207a6560408201527f726f206164647265737300000000000000000000000000000000000000000000606082015260800190565b60208082526022908201527f456e756d657261626c654d61703a20696e646578206f7574206f6620626f756e60408201527f6473000000000000000000000000000000000000000000000000000000000000606082015260800190565b6020808252818101527f4552433732313a206d696e7420746f20746865207a65726f2061646472657373604082015260600190565b6020808252602c908201527f4552433732313a20617070726f76656420717565727920666f72206e6f6e657860408201527f697374656e7420746f6b656e0000000000000000000000000000000000000000606082015260800190565b6020808252602c908201527f4552433732314d657461646174613a2055524920736574206f66206e6f6e657860408201527f697374656e7420746f6b656e0000000000000000000000000000000000000000606082015260800190565b60208082526029908201527f4552433732313a207472616e73666572206f6620746f6b656e2074686174206960408201527f73206e6f74206f776e0000000000000000000000000000000000000000000000606082015260800190565b6020808252602f908201527f4552433732314d657461646174613a2055524920717565727920666f72206e6f60408201527f6e6578697374656e7420746f6b656e0000000000000000000000000000000000606082015260800190565b60208082526021908201527f4552433732313a20617070726f76616c20746f2063757272656e74206f776e6560408201527f7200000000000000000000000000000000000000000000000000000000000000606082015260800190565b60208082526031908201527f4552433732313a207472616e736665722063616c6c6572206973206e6f74206f60408201527f776e6572206e6f7220617070726f766564000000000000000000000000000000606082015260800190565b6020808252601d908201527f416464726573733a2063616c6c20746f206e6f6e2d636f6e7472616374000000604082015260600190565b90815260200190565b60005b83811015611eb5578181015183820152602001611e9d565b8381111561093f5750506000910152565b7fffffffff0000000000000000000000000000000000000000000000000000000081168114610abf57600080fdfe4552433732313a207472616e7366657220746f206e6f6e20455243373231526563656976657220696d706c656d656e7465724552433732313a206f776e657220717565727920666f72206e6f6e6578697374656e7420746f6b656ea2646970667358221220ea8c04b118188a08f5c41ecf3e1ff86cf08afbe784523a0f2e70a86abe50191064736f6c63430007030033a26469706673582212201da6f87d764a907cd3bbb3c93d7ef60d21ca63411d696b6bb2f778e66891162964736f6c63430007030033",
  "linkReferences": {},
  "deployedLinkReferences": {}
}